Component: ARM Compiler 5.06 update 1 (build 61) Tool: armlink [4d35a8]

==============================================================================

Section Cross References

    proj_main.o(i.user_custom_parameters) refers to driver_efuse.o(i.efuse_get_chip_unique_id) for efuse_get_chip_unique_id
    proj_main.o(i.user_custom_parameters) refers to jump_table.o(i.jump_table_set_static_keys_store_offset) for jump_table_set_static_keys_store_offset
    proj_main.o(i.user_custom_parameters) refers to sys_utils.o(ram_code) for retry_handshake
    proj_main.o(i.user_entry_after_ble_init) refers to sys_utils.o(i.system_sleep_disable) for system_sleep_disable
    proj_main.o(i.user_entry_after_ble_init) refers to user_task.o(i.user_task_init) for user_task_init
    proj_main.o(i.user_entry_after_ble_init) refers to ble_multi_role.o(i.multi_role_init) for multi_role_init
    proj_main.o(i.user_entry_before_ble_init) refers to driver_pmu.o(i.pmu_set_sys_power_mode) for pmu_set_sys_power_mode
    proj_main.o(i.user_entry_before_ble_init) refers to flash.o(ram_code) for flash_protect_enable
    proj_main.o(i.user_entry_before_ble_init) refers to driver_pmu.o(i.pmu_enable_irq) for pmu_enable_irq
    proj_main.o(ram_code) refers to entry.o(ram_code) for frspim_rd
    proj_main.o(ram_code) refers to button.o(i.button_toggle_detected) for button_toggle_detected
    user_task.o(i.user_task_func) refers to user_task.o(.constdata) for .constdata
    user_task.o(i.user_task_init) refers to os_task.o(i.os_task_create) for os_task_create
    user_task.o(i.user_task_init) refers to user_task.o(i.user_task_func) for user_task_func
    user_task.o(i.user_task_init) refers to user_task.o(.data) for .data
    user_task.o(.constdata) refers to user_task.o(.conststring) for .conststring
    ble_multi_role.o(i.app_gap_evt_cb) refers to ble_multi_role.o(i.mr_start_adv) for mr_start_adv
    ble_multi_role.o(i.app_gap_evt_cb) refers to gap_api.o(i.gap_get_connect_num) for gap_get_connect_num
==============================================================================

Removing Unused input sections from the image.

    Removing proj_main.o(.rev16_text), (4 bytes).
    Removing proj_main.o(.revsh_text), (4 bytes).
    Removing proj_main.o(.rrx_text), (6 bytes).
    Removing ble_multi_role.o(.rev16_text), (4 bytes).
    Removing ble_multi_role.o(.revsh_text), (4 bytes).
    Removing ble_multi_role.o(.rrx_text), (6 bytes).
    Removing button.o(i.button_anti_shake_timeout_handler), (64 bytes).
    Removing button.o(i.button_comb_just_pressed), (124 bytes).
    Removing button.o(i.button_comb_long_long_pressed), (132 bytes).
    Removing button.o(i.button_comb_long_pressed), (152 bytes).
    Removing button.o(i.button_comb_pressed), (156 bytes).
    Removing button.o(i.button_idle), (72 bytes).
    Removing button.o(i.button_init), (76 bytes).
    Removing button.o(i.button_int_isr), (40 bytes).
    Removing button.o(i.button_just_pressed), (92 bytes).
    Removing button.o(i.button_long_long_pressed), (80 bytes).
    Removing button.o(i.button_long_pressed), (104 bytes).
    Removing button.o(i.button_pressed), (120 bytes).
==============================================================================

Adding Veneers to the image

    Adding TT veneer (10 bytes, Long) for call to 'co_printf' from core_cm3_isr.o(i.HardFault_Handler_C).
    Adding TT veneer (10 bytes, Long) for call to 'ke_state_set' from app_proj_event.o(i.app_act_created_ind_func).
    Adding TT veneer (10 bytes, Long) for call to '__aeabi_memcpy' from app_proj_event.o(i.app_connection_req_ind_func).
    Adding TT veneer (10 bytes, Long) for call to 'srand' from app_proj_event.o(i.app_db_init_complete_ind_func).
    Adding TT veneer (10 bytes, Long) for call to '__aeabi_memcpy4' from ble_multi_role.o(i.app_gap_evt_cb).
    Adding TT veneer (10 bytes, Long) for call to 'memcmp' from ble_multi_role.o(i.app_gap_evt_cb).
    Adding TT veneer (10 bytes, Long) for call to 'main_loop' from entry.o(i.app_main).
    Adding TT veneer (10 bytes, Long) for call to '__aeabi_memclr4' from entry.o(i.app_main).
    Adding TT veneer (10 bytes, Long) for call to 'app_boot_get_storage_type' from entry.o(i.app_main).
    Adding TT veneer (10 bytes, Long) for call to 'enable_cache' from entry.o(i.app_main).
    Adding TT veneer (10 bytes, Long) for call to 'system_optimize_power_consumption_get' from entry.o(i.app_main).
    Adding TT veneer (10 bytes, Long) for call to 'NVIC_SetPriority' from entry.o(i.app_main).
    Adding TT veneer (10 bytes, Long) for call to 'patch_init' from entry.o(i.app_main).
    Adding TT veneer (10 bytes, Long) for call to 'co_delay_10us' from entry.o(i.app_main).
    Adding TT veneer (10 bytes, Long) for call to 'frspim_wr' from entry.o(i.app_main).
    Adding TT veneer (10 bytes, Long) for call to 'frspim_rd' from entry.o(i.app_main).
    Adding TT veneer (10 bytes, Long) for call to 'pmu_smooth_calc_calib_result' from entry.o(i.app_main).
    Adding TT veneer (10 bytes, Long) for call to 'user_entry4' from entry.o(i.app_main).
    Adding TT veneer (10 bytes, Long) for call to 'ke_free' from app.o(i.appm_adv_recv_gapm_cmp).
    Adding TT veneer (10 bytes, Long) for call to 'ke_msg_alloc' from app.o(i.appm_create_aux_adv_act).
    Adding TT veneer (10 bytes, Long) for call to 'ke_msg_send' from app.o(i.appm_create_aux_adv_act).
    Adding TT veneer (10 bytes, Long) for call to 'co_list_pop_front' from app.o(i.appm_exc_activity_cmp).
    Adding TT veneer (10 bytes, Long) for call to 'ke_malloc' from app.o(i.appm_execute_activity_cmd).
    Adding TT veneer (10 bytes, Long) for call to 'co_list_push_back' from app.o(i.appm_execute_activity_cmd).
    Adding TT veneer (10 bytes, Long) for call to 'co_list_init' from app.o(i.appm_init_imp).
    Adding TT veneer (10 bytes, Long) for call to 'ke_task_create' from app.o(i.appm_init_imp).
    Adding TT veneer (10 bytes, Long) for call to 'ke_timer_clear' from attc.o(i.attc_l2cc_pdu_recv_handler).
    Adding TT veneer (10 bytes, Long) for call to 'ke_timer_set' from attc.o(i.attc_send_att_req).
    Adding TT veneer (10 bytes, Long) for call to 'ke_msg_free' from attc.o(i.attc_send_read_ind).
    Adding TT veneer (10 bytes, Long) for call to 'co_list_size' from atts.o(i.atts_find_by_type_req).
    Adding TT veneer (10 bytes, Long) for call to 'ke_state_get' from atts.o(i.atts_l2cc_pdu_recv_handler).
    Adding TT veneer (10 bytes, Long) for call to 'co_list_push_front' from atts.o(i.atts_prepare_write_req).
    Adding TT veneer (10 bytes, Long) for call to 'co_list_insert_before' from atts.o(i.atts_store_prep_data).
    Adding TT veneer (10 bytes, Long) for call to '__aeabi_memclr' from user_bond_manage.o(i.ble_bond_clr_all_info).
    Adding TT veneer (10 bytes, Long) for call to 'flash_erase' from user_bond_manage.o(i.ble_bond_clr_all_info).
    Adding TT veneer (10 bytes, Long) for call to 'flash_write' from user_bond_manage.o(i.ble_bond_clr_all_info).
    Adding TT veneer (10 bytes, Long) for call to 'flash_read' from user_bond_manage.o(i.ble_bond_read_info_from_flash).
    Adding TT veneer (10 bytes, Long) for call to 'CPU_SR_Save' from os_timer.o(i.check_timer_handle).
    Adding TT veneer (10 bytes, Long) for call to 'CPU_SR_Restore' from os_timer.o(i.check_timer_handle).
    Adding TT veneer (10 bytes, Long) for call to 'rand' from app_sec.o(i.gapc_bond_req_ind_handler).
    Adding TT veneer (10 bytes, Long) for call to 'hci_send_2_controller' from gapc_task.o(i.gapc_disconnect_cmd_handler).
    Adding TT veneer (10 bytes, Long) for call to 'ke_msg_src_id_get' from gapc.o(i.gapc_get_requester).
    Adding TT veneer (10 bytes, Long) for call to 'ke_timer_active' from gapc_task.o(i.gapc_key_press_notification_cmd_handler).
    Adding TT veneer (10 bytes, Long) for call to 'ke_msg_in_queue' from gapc.o(i.gapc_operation_cleanup).
    Adding TT veneer (10 bytes, Long) for call to 'ke_msg_forward' from gapc.o(i.gapc_reschedule_operation).
    Adding TT veneer (10 bytes, Long) for call to 'hci_basic_cmd_send_2_controller' from gapm_cfg.o(i.gapm_get_dev_info_cmd_handler).
    Adding TT veneer (10 bytes, Long) for call to 'aes_encrypt' from gapm_smp.o(i.gapm_smp_encrypt_req).
    Adding TT veneer (10 bytes, Long) for call to 'aes_rand' from gapm_smp.o(i.gapm_smp_rand_req).
    Adding TT veneer (10 bytes, Long) for call to 'ke_check_malloc' from gattc_task.o(i.gattc_cmp_evt_handler).
    Adding TT veneer (10 bytes, Long) for call to 'co_list_extract' from gattc_task.o(i.gattc_reg_to_peer_evt_cmd_handler).
    Adding TT veneer (10 bytes, Long) for call to 'ke_msg_send_basic' from gattc_task.o(i.gattc_timeout_handler).
    Adding TT veneer (10 bytes, Long) for call to 'ble_util_buf_rx_free' from l2cc_task.o(i.hci_acl_data_handler).
    Adding TT veneer (10 bytes, Long) for call to 'ke_event_set' from l2cc_task.o(i.hci_nb_cmp_pkts_evt_handler).
    Adding TT veneer (10 bytes, Long) for call to 'ble_util_buf_init_env' from jump_table.o(i.initial_static_memory).
    Adding TT veneer (10 bytes, Long) for call to '__aeabi_memset' from jump_table.o(i.jump_table_memmory_init).
    Adding TT veneer (10 bytes, Long) for call to 'ke_mem_init' from jump_table.o(i.jump_table_memmory_init).
    Adding TT veneer (10 bytes, Long) for call to 'ble_util_buf_acl_tx_alloc' from l2cc.o(i.l2cc_data_send).
    Adding TT veneer (10 bytes, Long) for call to 'ble_util_buf_acl_tx_free' from l2cc.o(i.l2cc_data_send).
    Adding TT veneer (10 bytes, Long) for call to 'ke_event_callback_set' from l2cm.o(i.l2cm_init).
    Adding TT veneer (10 bytes, Long) for call to 'ke_event_clear' from l2cm.o(i.l2cm_init).
    Adding TT veneer (10 bytes, Long) for call to 'llc_start' from patch_rf.o(i.llc_patch_1).
    Adding TT veneer (10 bytes, Long) for call to 'hci_ble_conhdl_register' from patch_rf.o(i.llc_patch_1).
    Adding TT veneer (10 bytes, Long) for call to 'hci_send_2_host' from patch_rf.o(i.llc_patch_1).
    Adding TT veneer (10 bytes, Long) for call to 'FPB_CompSet' from sys_utils.o(i.platform_reset_patch).
    Adding TT veneer (10 bytes, Long) for call to 'GLOBAL_INT_STOP' from sys_utils.o(i.platform_reset_patch).
    Adding TT veneer (10 bytes, Long) for call to 'ke_task_msg_flush' from prf.o(i.prf_init).
    Adding TT veneer (10 bytes, Long) for call to 'retry_handshake' from proj_main.o(i.user_custom_parameters).
    Adding TT veneer (10 bytes, Long) for call to 'flash_protect_enable' from proj_main.o(i.user_entry_before_ble_init).
    Adding TT veneer (10 bytes, Long) for call to 'NVIC_EnableIRQ' from proj_main.o(i.user_entry_before_ble_init).
    Adding TT veneer (10 bytes, Long) for call to 'button_toggle_detected' from proj_main.o(ram_code).
    Adding TT veneer (10 bytes, Long) for call to 'system_set_port_pull' from proj_main.o(ram_code).
    Adding TT veneer (10 bytes, Long) for call to 'system_set_port_mux' from proj_main.o(ram_code).
    Adding TT veneer (10 bytes, Long) for call to 'uart_init' from proj_main.o(ram_code).
    Adding TT veneer (10 bytes, Long) for call to 'NVIC_EnableIRQ' from proj_main.o(ram_code).
    Adding TT veneer (10 bytes, Long) for call to 'pmu_enable_isr' from driver_pmu.o(ram_code).
    Adding TT veneer (10 bytes, Long) for call to 'co_printf' from driver_pmu.o(ram_code).
    Adding TT veneer (10 bytes, Long) for call to 'pmu_disable_isr' from driver_pmu.o(ram_code).
    Adding TT veneer (10 bytes, Long) for call to 'pmu_disable_isr2' from driver_pmu.o(ram_code).
    Adding TT veneer (10 bytes, Long) for call to 'pmu_enable_isr2' from driver_pmu.o(ram_code).
    Adding TT veneer (10 bytes, Long) for call to 'pmu_get_isr_state' from driver_pmu.o(ram_code).
    Adding TT veneer (10 bytes, Long) for call to 'pmu_qdec_get_cnt' from driver_pmu_qdec.o(ram_code).
    Adding TT veneer (10 bytes, Long) for call to 'uart_putc_noint' from driver_uart.o(ram_code).
    Adding TT veneer (10 bytes, Long) for call to 'wdt_init' from driver_wdt.o(ram_code).
    Adding TT veneer (10 bytes, Long) for call to 'vPortSVCHandler' from app_boot_vectors.o(ram_code).
    Adding TT veneer (10 bytes, Long) for call to 'FPB_CompSet' from patch.o(ram_code).
    Adding TT veneer (10 bytes, Long) for call to 'pmu_calibration_stop' from patch.o(ram_code).
    Adding TT veneer (10 bytes, Long) for call to 'pmu_calibration_start' from patch.o(ram_code).
    Adding TT veneer (10 bytes, Long) for call to 'CPU_SR_Save' from patch.o(ram_code).
    Adding TT veneer (10 bytes, Long) for call to 'CPU_SR_Restore' from patch.o(ram_code).
    Adding TT veneer (10 bytes, Long) for call to 'rwip_sleep_mul_64' from entry.o(ram_code).
    Adding TT veneer (10 bytes, Long) for call to 'rwip_sleep_div_64' from entry.o(ram_code).
    Adding TT veneer (10 bytes, Long) for call to 'rwip_prevent_sleep_clear' from entry.o(ram_code).
    Adding TT veneer (10 bytes, Long) for call to 'rwip_prevent_sleep_set' from entry.o(ram_code).
    Adding TT veneer (10 bytes, Long) for call to 'GLOBAL_INT_START' from entry.o(ram_code).
    Adding TT veneer (10 bytes, Long) for call to 'rwip_schedule' from entry.o(ram_code).
    Adding TT veneer (10 bytes, Long) for call to 'rwip_sleep' from entry.o(ram_code).
    Adding TT veneer (10 bytes, Long) for call to 'low_power_save' from entry.o(ram_code).
    Adding TT veneer (10 bytes, Long) for call to 'low_power_restore' from entry.o(ram_code).
    Adding TT veneer (10 bytes, Long) for call to 'gapc_get_conidx_imp' from patch_rf.o(ram_code).
    Adding TT veneer (10 bytes, Long) for call to 'gap_rssi_ind' from patch_rf.o(ram_code).
    Adding TT veneer (10 bytes, Long) for call to 'rf_init_api' from patch_rf.o(ram_code).
    Adding TT veneer (10 bytes, Long) for call to 'rf_em_init' from patch_rf.o(ram_code).
    Adding TT veneer (10 bytes, Long) for call to 'rf_init_controller' from patch_rf.o(ram_code).
    Adding TT veneer (10 bytes, Long) for call to 'system_set_pclk' from patch_rf.o(ram_code).
    Adding TT veneer (10 bytes, Long) for call to 'rwip_time_get' from patch_rf.o(ram_code).
    Adding TT veneer (10 bytes, Long) for call to 'co_list_pop_front' from patch_rf.o(ram_code).
    Adding TT veneer (10 bytes, Long) for call to 'co_list_push_back' from patch_rf.o(ram_code).
    Adding TT veneer (10 bytes, Long) for call to 'rwip_sw_int_req' from patch_rf.o(ram_code).
    Adding TT veneer (10 bytes, Long) for call to 'ke_event_set' from patch_rf.o(ram_code).
    Adding TT veneer (10 bytes, Long) for call to 'sch_arb_sw_isr' from patch_rf.o(ram_code).
    Adding TT veneer (10 bytes, Long) for call to 'rwip_isr' from patch_rf.o(ram_code).
    Adding TT veneer (10 bytes, Long) for call to 'sch_prog_skip_isr' from patch_rf.o(ram_code).
    Adding TT veneer (10 bytes, Long) for call to 'sch_prog_end_isr' from patch_rf.o(ram_code).
    Adding TT veneer (10 bytes, Long) for call to '__aeabi_memcpy' from patch_no_md_bit.o(ram_code).
    Adding TT veneer (10 bytes, Long) for call to 'lld_read_clock' from patch_no_md_bit.o(ram_code).
    Adding TT veneer (10 bytes, Long) for call to 'sch_arb_remove' from patch_no_md_bit.o(ram_code).
    Adding TT veneer (10 bytes, Long) for call to 'lld_con_sched' from patch_no_md_bit.o(ram_code).
    Adding TT veneer (10 bytes, Long) for call to 'eTaskConfirmSleepModeStatus' from patch_rtos.o(ram_code).
    Adding TT veneer (10 bytes, Long) for call to 'rwip_sleep_time_calc' from patch_rtos.o(ram_code).
    Adding TT veneer (10 bytes, Long) for call to 'rwble_sleep_enter' from patch_rtos.o(ram_code).
    Adding TT veneer (10 bytes, Long) for call to 'NVIC_SetPriority' from patch_rtos.o(ram_code).
    Adding TT veneer (10 bytes, Long) for call to 'system_get_pclk_config' from sys_utils.o(ram_code).
    Adding TT veneer (10 bytes, Long) for call to 'app_boot_host_comm' from sys_utils.o(ram_code).
    Adding TT veneer (10 bytes, Long) for call to 'qspi_stig_cmd' from flash.o(ram_code).
    Adding TT veneer (10 bytes, Long) for call to 'ble_util_buf_acl_tx_alloc' from adv_check_mode.o(ram_code).
    Adding TT veneer (10 bytes, Long) for call to 'calib_meter_recv_msg' from adv_check_mode.o(ram_code).
    Adding TT veneer (10 bytes, Long) for call to 'lld_rxdesc_check' from adv_check_mode.o(ram_code).
    Adding TT veneer (10 bytes, Long) for call to 'calib_meter_evt_end' from adv_check_mode.o(ram_code).
    Adding TT veneer (10 bytes, Long) for call to 'ble_util_buf_acl_tx_free' from adv_check_mode.o(ram_code).
    Adding TT veneer (10 bytes, Long) for call to 'llm_activity_free_set' from adv_check_mode.o(ram_code).
    Adding TT veneer (10 bytes, Long) for call to 'llm_activity_free_get' from adv_check_mode.o(ram_code).

131 Veneer(s) (total 1310 bytes) added to the image.

==============================================================================

Image Symbol Table

    Local Symbols

    Symbol Name                              Value     Ov Type        Size  Object(Section)

    ../clib/microlib/division.c              0x00000000   Number         0  uldiv.o ABSOLUTE
    ../clib/microlib/division.c              0x00000000   Number         0  uidiv.o ABSOLUTE
    ../clib/microlib/longlong.c              0x00000000   Number         0  llushr.o ABSOLUTE
    ../clib/microlib/longlong.c              0x00000000   Number         0  llsshr.o ABSOLUTE
    ../clib/microlib/longlong.c              0x00000000   Number         0  llshl.o ABSOLUTE
    ../clib/microlib/printf/printf.c         0x00000000   Number         0  printf6.o ABSOLUTE
    ../clib/microlib/printf/printf.c         0x00000000   Number         0  printf7.o ABSOLUTE
    ../clib/microlib/printf/printf.c         0x00000000   Number         0  printf8.o ABSOLUTE
    ../clib/microlib/printf/printf.c         0x00000000   Number         0  printfa.o ABSOLUTE
    ../clib/microlib/printf/printf.c         0x00000000   Number         0  printfb.o ABSOLUTE
    ../clib/microlib/printf/printf.c         0x00000000   Number         0  printf0.o ABSOLUTE
    ../clib/microlib/printf/printf.c         0x00000000   Number         0  printf1.o ABSOLUTE
    ../clib/microlib/printf/printf.c         0x00000000   Number         0  printf2.o ABSOLUTE
    ../clib/microlib/printf/printf.c         0x00000000   Number         0  printf3.o ABSOLUTE
    ../clib/microlib/printf/printf.c         0x00000000   Number         0  printf4.o ABSOLUTE
    ../clib/microlib/printf/printf.c         0x00000000   Number         0  printf5.o ABSOLUTE
    ../clib/microlib/printf/stubs.s          0x00000000   Number         0  stubs.o ABSOLUTE
    ../clib/microlib/stubs.s                 0x00000000   Number         0  iusefp.o ABSOLUTE
    ../fplib/microlib/fpadd.c                0x00000000   Number         0  dadd.o ABSOLUTE
    ../fplib/microlib/fpdiv.c                0x00000000   Number         0  ddiv.o ABSOLUTE
    ../fplib/microlib/fpepilogue.c           0x00000000   Number         0  depilogue.o ABSOLUTE
    ../fplib/microlib/fpfix.c                0x00000000   Number         0  dfixul.o ABSOLUTE
    ../fplib/microlib/fpmul.c                0x00000000   Number         0  dmul.o ABSOLUTE
    ..\..\..\..\components\ble\profiles\ble_simple_profile\simple_gatt_service.c 0x00000000   Number         0  simple_gatt_service.o ABSOLUTE
    ..\..\..\..\components\driver\driver_efuse.c 0x00000000   Number         0  driver_efuse.o ABSOLUTE
    ..\..\..\..\components\driver\driver_exti.c 0x00000000   Number         0  driver_exti.o ABSOLUTE
    ..\..\..\..\components\driver\driver_i2s.c 0x00000000   Number         0  driver_i2s.o ABSOLUTE
    ..\..\..\..\components\driver\driver_iic.c 0x00000000   Number         0  driver_iic.o ABSOLUTE
    ..\..\..\..\components\driver\driver_keyscan.c 0x00000000   Number         0  driver_keyscan.o ABSOLUTE
    ..\..\..\..\components\driver\driver_pmu.c 0x00000000   Number         0  driver_pmu.o ABSOLUTE
    ..\..\..\..\components\driver\driver_pmu_qdec.c 0x00000000   Number         0  driver_pmu_qdec.o ABSOLUTE
    ..\..\..\..\components\driver\driver_rtc.c 0x00000000   Number         0  driver_rtc.o ABSOLUTE
    ..\..\..\..\components\driver\driver_timer.c 0x00000000   Number         0  driver_timer.o ABSOLUTE
    ..\..\..\..\components\driver\driver_uart.c 0x00000000   Number         0  driver_uart.o ABSOLUTE
    ..\..\..\..\components\driver\driver_wdt.c 0x00000000   Number         0  driver_wdt.o ABSOLUTE
    ..\..\..\..\components\modules\button\button.c 0x00000000   Number         0  button.o ABSOLUTE
    ..\..\..\..\components\modules\patch\patch.c 0x00000000   Number         0  patch.o ABSOLUTE
    ..\..\..\..\components\modules\platform\source\app_boot_vectors.s 0x00000000   Number         0  app_boot_vectors.o ABSOLUTE
    ..\..\..\..\components\modules\platform\source\core_cm3_isr.c 0x00000000   Number         0  core_cm3_isr.o ABSOLUTE
    ..\\..\\..\\..\\components\\driver\\driver_efuse.c 0x00000000   Number         0  driver_efuse.o ABSOLUTE
    ..\\..\\..\\..\\components\\driver\\driver_exti.c 0x00000000   Number         0  driver_exti.o ABSOLUTE
    ..\\..\\..\\..\\components\\driver\\driver_i2s.c 0x00000000   Number         0  driver_i2s.o ABSOLUTE
    ..\\..\\..\\..\\components\\driver\\driver_iic.c 0x00000000   Number         0  driver_iic.o ABSOLUTE
    ..\\..\\..\\..\\components\\driver\\driver_rtc.c 0x00000000   Number         0  driver_rtc.o ABSOLUTE
    ..\\..\\..\\..\\components\\driver\\driver_timer.c 0x00000000   Number         0  driver_timer.o ABSOLUTE
    ..\\..\\..\\..\\components\\driver\\driver_uart.c 0x00000000   Number         0  driver_uart.o ABSOLUTE
    ..\\..\\..\\..\\components\\modules\\patch\\patch.c 0x00000000   Number         0  patch.o ABSOLUTE
    ..\\..\\..\\..\\components\\modules\\platform\\source\\core_cm3_isr.c 0x00000000   Number         0  core_cm3_isr.o ABSOLUTE
    ..\\app\\src\\adv_check_mode.c           0x00000000   Number         0  adv_check_mode.o ABSOLUTE
    ..\\app\\src\\app.c                      0x00000000   Number         0  app.o ABSOLUTE
    ..\\code\\ble_multi_role.c               0x00000000   Number         0  ble_multi_role.o ABSOLUTE
    ..\\code\\proj_main.c                    0x00000000   Number         0  proj_main.o ABSOLUTE
    ..\\modules\\patch\\patch_rf.c           0x00000000   Number         0  patch_rf.o ABSOLUTE
    ..\\modules\\patch\\patch_rtos.c         0x00000000   Number         0  patch_rtos.o ABSOLUTE
    ..\\modules\\sys\\sys_utils.c            0x00000000   Number         0  sys_utils.o ABSOLUTE
    ..\\plf\\refip\\src\\arch\\entry.c       0x00000000   Number         0  entry.o ABSOLUTE
    ..\\plf\\refip\\src\\arch\\jump_table.c  0x00000000   Number         0  jump_table.o ABSOLUTE
    ..\\plf\\refip\\src\\driver\\flash\\flash.c 0x00000000   Number         0  flash.o ABSOLUTE
    ..\app\src\adv_check_mode.c              0x00000000   Number         0  adv_check_mode.o ABSOLUTE
    ..\app\src\app.c                         0x00000000   Number         0  app.o ABSOLUTE
    ..\app\src\app_conn.c                    0x00000000   Number         0  app_conn.o ABSOLUTE
    ..\app\src\app_mesh_info.c               0x00000000   Number         0  app_mesh_info.o ABSOLUTE
    ..\app\src\app_prf.c                     0x00000000   Number         0  app_prf.o ABSOLUTE
    ..\app\src\app_proj_event.c              0x00000000   Number         0  app_proj_event.o ABSOLUTE
    ..\app\src\app_sec.c                     0x00000000   Number         0  app_sec.o ABSOLUTE
    ..\app\src\app_task.c                    0x00000000   Number         0  app_task.o ABSOLUTE
    ..\app\src\user_bond_manage.c            0x00000000   Number         0  user_bond_manage.o ABSOLUTE
    ..\app\src\user_mem.c                    0x00000000   Number         0  user_mem.o ABSOLUTE
    ..\code\ble_multi_role.c                 0x00000000   Number         0  ble_multi_role.o ABSOLUTE
    ..\code\proj_main.c                      0x00000000   Number         0  proj_main.o ABSOLUTE
    ..\code\user_task.c                      0x00000000   Number         0  user_task.o ABSOLUTE
    ..\ip\ble\hl\src\gap\gapc\gapc.c         0x00000000   Number         0  gapc.o ABSOLUTE
    ..\ip\ble\hl\src\gap\gapc\gapc_hci.c     0x00000000   Number         0  gapc_hci.o ABSOLUTE
    ..\ip\ble\hl\src\gap\gapc\gapc_sig.c     0x00000000   Number         0  gapc_sig.o ABSOLUTE
    ..\ip\ble\hl\src\gap\gapc\gapc_task.c    0x00000000   Number         0  gapc_task.o ABSOLUTE
    ..\ip\ble\hl\src\gap\gapm\gapm.c         0x00000000   Number         0  gapm.o ABSOLUTE
    ..\ip\ble\hl\src\gap\gapm\gapm_actv.c    0x00000000   Number         0  gapm_actv.o ABSOLUTE
    ..\ip\ble\hl\src\gap\gapm\gapm_addr.c    0x00000000   Number         0  gapm_addr.o ABSOLUTE
    ..\ip\ble\hl\src\gap\gapm\gapm_adv.c     0x00000000   Number         0  gapm_adv.o ABSOLUTE
    ..\ip\ble\hl\src\gap\gapm\gapm_cfg.c     0x00000000   Number         0  gapm_cfg.o ABSOLUTE
    ..\ip\ble\hl\src\gap\gapm\gapm_init.c    0x00000000   Number         0  gapm_init.o ABSOLUTE
    ..\ip\ble\hl\src\gap\gapm\gapm_list.c    0x00000000   Number         0  gapm_list.o ABSOLUTE
    ..\ip\ble\hl\src\gap\gapm\gapm_per_sync.c 0x00000000   Number         0  gapm_per_sync.o ABSOLUTE
    ..\ip\ble\hl\src\gap\gapm\gapm_scan.c    0x00000000   Number         0  gapm_scan.o ABSOLUTE
    ..\ip\ble\hl\src\gap\gapm\gapm_smp.c     0x00000000   Number         0  gapm_smp.o ABSOLUTE
    ..\ip\ble\hl\src\gap\gapm\gapm_task.c    0x00000000   Number         0  gapm_task.o ABSOLUTE
    ..\ip\ble\hl\src\gap\smpc\smpc.c         0x00000000   Number         0  smpc.o ABSOLUTE
    ..\ip\ble\hl\src\gap\smpc\smpc_api.c     0x00000000   Number         0  smpc_api.o ABSOLUTE
    ..\ip\ble\hl\src\gap\smpc\smpc_crypto.c  0x00000000   Number         0  smpc_crypto.o ABSOLUTE
    ..\ip\ble\hl\src\gap\smpc\smpc_util.c    0x00000000   Number         0  smpc_util.o ABSOLUTE
    ..\ip\ble\hl\src\gatt\attc\attc.c        0x00000000   Number         0  attc.o ABSOLUTE
    ..\ip\ble\hl\src\gatt\attm\attm.c        0x00000000   Number         0  attm.o ABSOLUTE
    ..\ip\ble\hl\src\gatt\attm\attm_db.c     0x00000000   Number         0  attm_db.o ABSOLUTE
    ..\ip\ble\hl\src\gatt\atts\atts.c        0x00000000   Number         0  atts.o ABSOLUTE
    ..\ip\ble\hl\src\gatt\gattc\gattc.c      0x00000000   Number         0  gattc.o ABSOLUTE
    ..\ip\ble\hl\src\gatt\gattc\gattc_task.c 0x00000000   Number         0  gattc_task.o ABSOLUTE
    ..\ip\ble\hl\src\gatt\gattm\gattm.c      0x00000000   Number         0  gattm.o ABSOLUTE
    ..\ip\ble\hl\src\gatt\gattm\gattm_task.c 0x00000000   Number         0  gattm_task.o ABSOLUTE
    ..\ip\ble\hl\src\l2c\l2cc\l2cc.c         0x00000000   Number         0  l2cc.o ABSOLUTE
    ..\ip\ble\hl\src\l2c\l2cc\l2cc_pdu.c     0x00000000   Number         0  l2cc_pdu.o ABSOLUTE
    ..\ip\ble\hl\src\l2c\l2cc\l2cc_sig.c     0x00000000   Number         0  l2cc_sig.o ABSOLUTE
    ..\ip\ble\hl\src\l2c\l2cc\l2cc_task.c    0x00000000   Number         0  l2cc_task.o ABSOLUTE
    ..\ip\ble\hl\src\l2c\l2cm\l2cm.c         0x00000000   Number         0  l2cm.o ABSOLUTE
    ..\ip\ble\hl\src\prf\prf.c               0x00000000   Number         0  prf.o ABSOLUTE
    ..\ip\ble\hl\src\prf\prf_utils.c         0x00000000   Number         0  prf_utils.o ABSOLUTE
    ..\ip\ble\hl\src\rwble_hl\rwble_hl.c     0x00000000   Number         0  rwble_hl.o ABSOLUTE
    ..\ip\ble\hl_api\gap\gap_api.c           0x00000000   Number         0  gap_api.o ABSOLUTE
    ..\ip\ble\hl_api\gatt\gatt_api.c         0x00000000   Number         0  gatt_api.o ABSOLUTE
    ..\ip\ble\hl_api\mesh\mesh_api.c         0x00000000   Number         0  mesh_api.o ABSOLUTE
    ..\ip\ble\mesh\m_al\m_al_activity.c      0x00000000   Number         0  m_al_activity.o ABSOLUTE
    ..\ip\ble\mesh\m_al\m_al_adv.c           0x00000000   Number         0  m_al_adv.o ABSOLUTE
    ..\ip\ble\mesh\m_al\m_al_con.c           0x00000000   Number         0  m_al_con.o ABSOLUTE
    ..\ip\ble\mesh\m_al\m_al_djob.c          0x00000000   Number         0  m_al_djob.o ABSOLUTE
    ..\ip\ble\mesh\m_al\m_al_scan.c          0x00000000   Number         0  m_al_scan.o ABSOLUTE
    ..\ip\ble\mesh\m_al\m_al_sec.c           0x00000000   Number         0  m_al_sec.o ABSOLUTE
    ..\ip\ble\mesh\m_al\m_al_task.c          0x00000000   Number         0  m_al_task.o ABSOLUTE
    ..\ip\ble\mesh\m_al\m_al_timer.c         0x00000000   Number         0  m_al_timer.o ABSOLUTE
    ..\ip\ble\mesh\models\m_api_msg\m_api_msg.c 0x00000000   Number         0  m_api_msg.o ABSOLUTE
    ..\ip\ble\mesh\src\m_api.c               0x00000000   Number         0  m_api.o ABSOLUTE
    ..\ip\ble\mesh\src\m_bcn\m_bcn.c         0x00000000   Number         0  m_bcn.o ABSOLUTE
    ..\ip\ble\mesh\src\m_bearer\m_bearer.c   0x00000000   Number         0  m_bearer.o ABSOLUTE
    ..\ip\ble\mesh\src\m_bearer\m_bearer_adv.c 0x00000000   Number         0  m_bearer_adv.o ABSOLUTE
    ..\ip\ble\mesh\src\m_bearer\m_bearer_gatt.c 0x00000000   Number         0  m_bearer_gatt.o ABSOLUTE
    ..\ip\ble\mesh\src\m_fnd\m_fnd.c         0x00000000   Number         0  m_fnd.o ABSOLUTE
    ..\ip\ble\mesh\src\m_fnd\m_fnd_confs.c   0x00000000   Number         0  m_fnd_confs.o ABSOLUTE
    ..\ip\ble\mesh\src\m_fnd\m_fnd_hlths.c   0x00000000   Number         0  m_fnd_hlths.o ABSOLUTE
    ..\ip\ble\mesh\src\m_lay\m_lay.c         0x00000000   Number         0  m_lay.o ABSOLUTE
    ..\ip\ble\mesh\src\m_lay\m_lay_access.c  0x00000000   Number         0  m_lay_access.o ABSOLUTE
    ..\ip\ble\mesh\src\m_lay\m_lay_friend.c  0x00000000   Number         0  m_lay_friend.o ABSOLUTE
    ..\ip\ble\mesh\src\m_lay\m_lay_hb.c      0x00000000   Number         0  m_lay_hb.o ABSOLUTE
    ..\ip\ble\mesh\src\m_lay\m_lay_lpn.c     0x00000000   Number         0  m_lay_lpn.o ABSOLUTE
    ..\ip\ble\mesh\src\m_lay\m_lay_ltrans.c  0x00000000   Number         0  m_lay_ltrans.o ABSOLUTE
    ..\ip\ble\mesh\src\m_lay\m_lay_net.c     0x00000000   Number         0  m_lay_net.o ABSOLUTE
    ..\ip\ble\mesh\src\m_lay\m_lay_proxy.c   0x00000000   Number         0  m_lay_proxy.o ABSOLUTE
    ..\ip\ble\mesh\src\m_lay\m_lay_utrans.c  0x00000000   Number         0  m_lay_utrans.o ABSOLUTE
    ..\ip\ble\mesh\src\m_prov\m_prov.c       0x00000000   Number         0  m_prov.o ABSOLUTE
    ..\ip\ble\mesh\src\m_prov\m_prov_adv_trans.c 0x00000000   Number         0  m_prov_adv_trans.o ABSOLUTE
    ..\ip\ble\mesh\src\m_prov\m_prov_bearer.c 0x00000000   Number         0  m_prov_bearer.o ABSOLUTE
    ..\ip\ble\mesh\src\m_tb\m_tb.c           0x00000000   Number         0  m_tb.o ABSOLUTE
    ..\ip\ble\mesh\src\m_tb\m_tb_buf.c       0x00000000   Number         0  m_tb_buf.o ABSOLUTE
    ..\ip\ble\mesh\src\m_tb\m_tb_friend.c    0x00000000   Number         0  m_tb_friend.o ABSOLUTE
    ..\ip\ble\mesh\src\m_tb\m_tb_key.c       0x00000000   Number         0  m_tb_key.o ABSOLUTE
    ..\ip\ble\mesh\src\m_tb\m_tb_mio.c       0x00000000   Number         0  m_tb_mio.o ABSOLUTE
    ..\ip\ble\mesh\src\m_tb\m_tb_sec.c       0x00000000   Number         0  m_tb_sec.o ABSOLUTE
    ..\ip\ble\mesh\src\m_tb\m_tb_state.c     0x00000000   Number         0  m_tb_state.o ABSOLUTE
    ..\ip\ble\mesh\src\m_tb\m_tb_store_wvt.c 0x00000000   Number         0  m_tb_store_wvt.o ABSOLUTE
    ..\ip\ble\mesh\src\m_tb\m_tb_timer.c     0x00000000   Number         0  m_tb_timer.o ABSOLUTE
    ..\modules\os\os_mem.c                   0x00000000   Number         0  os_mem.o ABSOLUTE
    ..\modules\os\os_msg_q.c                 0x00000000   Number         0  os_msg_q.o ABSOLUTE
    ..\modules\os\os_task.c                  0x00000000   Number         0  os_task.o ABSOLUTE
    ..\modules\os\os_timer.c                 0x00000000   Number         0  os_timer.o ABSOLUTE
    ..\modules\patch\patch_No_MD_bit.c       0x00000000   Number         0  patch_no_md_bit.o ABSOLUTE
    ..\modules\patch\patch_rf.c              0x00000000   Number         0  patch_rf.o ABSOLUTE
    ..\modules\patch\patch_rtos.c            0x00000000   Number         0  patch_rtos.o ABSOLUTE
    ..\modules\sys\sys_utils.c               0x00000000   Number         0  sys_utils.o ABSOLUTE
    ..\plf\refip\src\arch\entry.c            0x00000000   Number         0  entry.o ABSOLUTE
    ..\plf\refip\src\arch\jump_table.c       0x00000000   Number         0  jump_table.o ABSOLUTE
    ..\plf\refip\src\driver\flash\flash.c    0x00000000   Number         0  flash.o ABSOLUTE
    cdrcmple.s                               0x00000000   Number         0  cdrcmple.o ABSOLUTE
    jump_table_0                             0x01000000   Section        4  jump_table.o(jump_table_0)
    jump_table_1                             0x01000004   Section        8  proj_main.o(jump_table_1)
    jump_table_2                             0x0100000c   Section       12  jump_table.o(jump_table_2)
    jump_table_3                             0x01000018   Section        4  proj_main.o(jump_table_3)
    jump_table_4                             0x0100001c   Section       64  jump_table.o(jump_table_4)
    .text                                    0x0100005c   Section       18  app_boot_vectors.o(.text)
    HardFault_Handler_Ram                    0x0100005d   Thumb Code    18  app_boot_vectors.o(.text)
    Long Thumb to Thumb Veneer to pmu_smooth_calc_calib_result 0x0100010f   Thumb Code    10  anon$$obj.o(Veneer$$Code)
    i.HardFault_Handler_C                    0x01000320   Section        0  core_cm3_isr.o(i.HardFault_Handler_C)
    i.app_act_created_ind_func               0x0100037c   Section        0  app_proj_event.o(i.app_act_created_ind_func)
    i.app_act_deleted_ind_func               0x010003c4   Section        0  app_proj_event.o(i.app_act_deleted_ind_func)
    i.app_addr_resolve_result_ind_func       0x010003e8   Section        0  app_proj_event.o(i.app_addr_resolve_result_ind_func)
    i.app_adv_complete_ind_func              0x01000408   Section        0  app_proj_event.o(i.app_adv_complete_ind_func)
    i.app_adv_report_ind_func                0x0100043c   Section        0  app_proj_event.o(i.app_adv_report_ind_func)
    i.app_conn_complete_ind_func             0x010004e0   Section        0  app_proj_event.o(i.app_conn_complete_ind_func)
    i.app_connection_master_encrypt_compeleted_ind_func 0x01000504   Section        0  app_proj_event.o(i.app_connection_master_encrypt_compeleted_ind_func)
    i.app_connection_master_encrypted_ind_func 0x01000530   Section        0  app_proj_event.o(i.app_connection_master_encrypted_ind_func)
    i.app_connection_paring_info_ind_func    0x0100055c   Section        0  app_proj_event.o(i.app_connection_paring_info_ind_func)
    i.app_connection_req_ind_func            0x0100057c   Section        0  app_proj_event.o(i.app_connection_req_ind_func)
    i.app_connection_slave_encrypted_ind_func 0x010005b0   Section        0  app_proj_event.o(i.app_connection_slave_encrypted_ind_func)
    i.app_connection_success_ind_func        0x010005dc   Section        0  app_proj_event.o(i.app_connection_success_ind_func)
    i.app_db_init_complete_ind_func          0x01000610   Section        0  app_proj_event.o(i.app_db_init_complete_ind_func)
    i.app_disconnect_ind_func                0x0100063c   Section        0  app_proj_event.o(i.app_disconnect_ind_func)
    i.app_gap_evt_cb                         0x01000664   Section        0  ble_multi_role.o(i.app_gap_evt_cb)
    i.app_get_current_rssi_rsp               0x01000978   Section        0  app_task.o(i.app_get_current_rssi_rsp)
    app_get_current_rssi_rsp                 0x01000979   Thumb Code    34  app_task.o(i.app_get_current_rssi_rsp)
    i.app_get_handler                        0x010009a0   Section        0  app_task.o(i.app_get_handler)
    app_get_handler                          0x010009a1   Thumb Code    70  app_task.o(i.app_get_handler)
    i.app_get_info_ind_func                  0x010009e8   Section        0  app_proj_event.o(i.app_get_info_ind_func)
    i.app_main                               0x01000a1c   Section        0  entry.o(i.app_main)
    i.app_per_sync_completed_ind_func        0x01000d1c   Section        0  app_proj_event.o(i.app_per_sync_completed_ind_func)
    i.app_per_sync_established_ind_func      0x01000d40   Section        0  app_proj_event.o(i.app_per_sync_established_ind_func)
    i.app_reset_complete_ind_func            0x01000d88   Section        0  app_proj_event.o(i.app_reset_complete_ind_func)
    i.app_scanning_completed_ind_func        0x01000dcc   Section        0  app_proj_event.o(i.app_scanning_completed_ind_func)
    i.app_sec_msg_dflt_handler               0x01000df0   Section        0  app_sec.o(i.app_sec_msg_dflt_handler)
    app_sec_msg_dflt_handler                 0x01000df1   Thumb Code     4  app_sec.o(i.app_sec_msg_dflt_handler)
    i.app_set_dev_config_complete_ind_func   0x01000df4   Section        0  app_proj_event.o(i.app_set_dev_config_complete_ind_func)
    i.app_set_phy_ind_func                   0x01000e2c   Section        0  app_proj_event.o(i.app_set_phy_ind_func)
    i.app_svc_added_ind_func                 0x01000e64   Section        0  app_proj_event.o(i.app_svc_added_ind_func)
    i.app_update_params_complete_ind_func    0x01000e74   Section        0  app_proj_event.o(i.app_update_params_complete_ind_func)
    i.app_update_params_rejected_ind_func    0x01000e78   Section        0  app_proj_event.o(i.app_update_params_rejected_ind_func)
    i.app_update_params_update_ind_func      0x01000ea0   Section        0  app_proj_event.o(i.app_update_params_update_ind_func)
    i.app_update_phy_rejected_ind_func       0x01000ee4   Section        0  app_proj_event.o(i.app_update_phy_rejected_ind_func)
    i.appm_adv_get_defer_op                  0x01000f0c   Section        0  app.o(i.appm_adv_get_defer_op)
    i.appm_adv_recv_gapm_cmp                 0x01000f1c   Section        0  app.o(i.appm_adv_recv_gapm_cmp)
    i.appm_adv_set_defer_op                  0x01001084   Section        0  app.o(i.appm_adv_set_defer_op)
    i.appm_conn_recv_gapm_cmp                0x0100109c   Section        0  app_conn.o(i.appm_conn_recv_gapm_cmp)
    i.appm_create_adv_act                    0x010010f0   Section        0  app.o(i.appm_create_adv_act)
    i.appm_create_aux_adv_act                0x01001108   Section        0  app.o(i.appm_create_aux_adv_act)
    i.appm_create_conn_act                   0x01001194   Section        0  app_conn.o(i.appm_create_conn_act)
    i.appm_create_legacy_adv_act             0x010011c8   Section        0  app.o(i.appm_create_legacy_adv_act)
    i.appm_create_per_adv_act                0x0100129c   Section        0  app.o(i.appm_create_per_adv_act)
    i.appm_create_per_sync_act               0x01001314   Section        0  app.o(i.appm_create_per_sync_act)
    i.appm_create_scan_act                   0x01001340   Section        0  app.o(i.appm_create_scan_act)
    i.appm_delete_act                        0x01001378   Section        0  app.o(i.appm_delete_act)
    i.appm_exc_activity_cmp                  0x010013c4   Section        0  app.o(i.appm_exc_activity_cmp)
    i.appm_execute_activity_cmd              0x01001400   Section        0  app.o(i.appm_execute_activity_cmd)
    i.appm_init_imp                          0x01001438   Section        0  app.o(i.appm_init_imp)
    i.appm_msg_handler                       0x010014b0   Section        0  app_task.o(i.appm_msg_handler)
    appm_msg_handler                         0x010014b1   Thumb Code   160  app_task.o(i.appm_msg_handler)
    i.appm_period_sync_recv_gapm_cmp         0x0100155c   Section        0  app.o(i.appm_period_sync_recv_gapm_cmp)
    i.appm_scan_recv_gapm_cmp                0x010015a8   Section        0  app.o(i.appm_scan_recv_gapm_cmp)
    i.appm_set_advertising_data              0x010015f4   Section        0  app.o(i.appm_set_advertising_data)
    i.appm_set_advertising_param             0x01001690   Section        0  app.o(i.appm_set_advertising_param)
    i.appm_set_per_adv_data                  0x010016f4   Section        0  app.o(i.appm_set_per_adv_data)
    i.appm_set_scan_response_data            0x01001790   Section        0  app.o(i.appm_set_scan_response_data)
    i.appm_start_advertising                 0x0100182c   Section        0  app.o(i.appm_start_advertising)
    i.appm_start_conn                        0x01001890   Section        0  app_conn.o(i.appm_start_conn)
    i.appm_stop_advertising                  0x0100196c   Section        0  app.o(i.appm_stop_advertising)
    i.attc_err_rsp_handler                   0x010019c0   Section        0  attc.o(i.attc_err_rsp_handler)
    attc_err_rsp_handler                     0x010019c1   Thumb Code    14  attc.o(i.attc_err_rsp_handler)
    i.attc_exc_mtu_rsp_handler               0x010019ce   Section        0  attc.o(i.attc_exc_mtu_rsp_handler)
    attc_exc_mtu_rsp_handler                 0x010019cf   Thumb Code    56  attc.o(i.attc_exc_mtu_rsp_handler)
    i.attc_exe_wr_rsp_handler                0x01001a06   Section        0  attc.o(i.attc_exe_wr_rsp_handler)
    attc_exe_wr_rsp_handler                  0x01001a07   Thumb Code    56  attc.o(i.attc_exe_wr_rsp_handler)
    i.attc_find_by_type_rsp_handler          0x01001a3e   Section        0  attc.o(i.attc_find_by_type_rsp_handler)
    attc_find_by_type_rsp_handler            0x01001a3f   Thumb Code   172  attc.o(i.attc_find_by_type_rsp_handler)
    i.attc_find_info_rsp_handler             0x01001aea   Section        0  attc.o(i.attc_find_info_rsp_handler)
    attc_find_info_rsp_handler               0x01001aeb   Thumb Code   180  attc.o(i.attc_find_info_rsp_handler)
    i.attc_hdl_val_ntf_ind_handler           0x01001ba0   Section        0  attc.o(i.attc_hdl_val_ntf_ind_handler)
    attc_hdl_val_ntf_ind_handler             0x01001ba1   Thumb Code   124  attc.o(i.attc_hdl_val_ntf_ind_handler)
    i.attc_l2cc_pdu_recv_handler             0x01001c20   Section        0  attc.o(i.attc_l2cc_pdu_recv_handler)
    i.attc_prep_wr_rsp_handler               0x01001c78   Section        0  attc.o(i.attc_prep_wr_rsp_handler)
    attc_prep_wr_rsp_handler                 0x01001c79   Thumb Code    96  attc.o(i.attc_prep_wr_rsp_handler)
    i.attc_rd_by_grp_type_rsp_handler        0x01001cd8   Section        0  attc.o(i.attc_rd_by_grp_type_rsp_handler)
    attc_rd_by_grp_type_rsp_handler          0x01001cd9   Thumb Code   242  attc.o(i.attc_rd_by_grp_type_rsp_handler)
    i.attc_rd_by_type_rsp_handler            0x01001dcc   Section        0  attc.o(i.attc_rd_by_type_rsp_handler)
    attc_rd_by_type_rsp_handler              0x01001dcd   Thumb Code   616  attc.o(i.attc_rd_by_type_rsp_handler)
    i.attc_rd_mult_rsp_handler               0x01002038   Section        0  attc.o(i.attc_rd_mult_rsp_handler)
    attc_rd_mult_rsp_handler                 0x01002039   Thumb Code   182  attc.o(i.attc_rd_mult_rsp_handler)
    i.attc_rd_rsp_handler                    0x010020f0   Section        0  attc.o(i.attc_rd_rsp_handler)
    attc_rd_rsp_handler                      0x010020f1   Thumb Code   256  attc.o(i.attc_rd_rsp_handler)
    i.attc_send_att_req                      0x010021f4   Section        0  attc.o(i.attc_send_att_req)
    i.attc_send_execute                      0x01002224   Section        0  attc.o(i.attc_send_execute)
    i.attc_send_hdl_cfm                      0x0100224c   Section        0  attc.o(i.attc_send_hdl_cfm)
    i.attc_send_read_ind                     0x01002270   Section        0  attc.o(i.attc_send_read_ind)
    i.attc_wr_rsp_handler                    0x01002358   Section        0  attc.o(i.attc_wr_rsp_handler)
    attc_wr_rsp_handler                      0x01002359   Thumb Code    32  attc.o(i.attc_wr_rsp_handler)
    i.attm_att_set_value                     0x01002378   Section        0  attm.o(i.attm_att_set_value)
    i.attm_att_update_perm                   0x01002422   Section        0  attm.o(i.attm_att_update_perm)
    i.attm_convert_to128                     0x01002488   Section        0  attm.o(i.attm_convert_to128)
    i.attm_get_value                         0x010024c8   Section        0  attm.o(i.attm_get_value)
    i.attm_init                              0x01002640   Section        0  attm.o(i.attm_init)
    i.attm_is_bt16_uuid                      0x01002654   Section        0  attm.o(i.attm_is_bt16_uuid)
    i.attm_is_bt32_uuid                      0x01002684   Section        0  attm.o(i.attm_is_bt32_uuid)
    i.attm_svc_create_db                     0x010026b4   Section        0  attm.o(i.attm_svc_create_db)
    i.attm_svc_create_db_ext                 0x010027b4   Section        0  attm.o(i.attm_svc_create_db_ext)
    i.attm_svc_get_permission                0x01002918   Section        0  attm.o(i.attm_svc_get_permission)
    i.attm_uuid16_comp                       0x01002934   Section        0  attm.o(i.attm_uuid16_comp)
    i.attm_uuid_comp                         0x01002940   Section        0  attm.o(i.attm_uuid_comp)
    i.attmdb_add_service                     0x01002998   Section        0  attm_db.o(i.attmdb_add_service)
    i.attmdb_att_get_permission              0x01002a0c   Section        0  attm_db.o(i.attmdb_att_get_permission)
    i.attmdb_destroy                         0x01002b1c   Section        0  attm_db.o(i.attmdb_destroy)
    i.attmdb_get_attribute                   0x01002b3c   Section        0  attm_db.o(i.attmdb_get_attribute)
    i.attmdb_get_max_len                     0x01002b70   Section        0  attm_db.o(i.attmdb_get_max_len)
    i.attmdb_get_next_att                    0x01002bcc   Section        0  attm_db.o(i.attmdb_get_next_att)
    i.attmdb_get_service                     0x01002c44   Section        0  attm_db.o(i.attmdb_get_service)
    i.attmdb_get_uuid                        0x01002c8c   Section        0  attm_db.o(i.attmdb_get_uuid)
    i.attmdb_svc_calc_len                    0x01002d62   Section        0  attm_db.o(i.attmdb_svc_calc_len)
    attmdb_svc_calc_len                      0x01002d63   Thumb Code   452  attm_db.o(i.attmdb_svc_calc_len)
    i.attmdb_svc_check_hdl                   0x01002f28   Section        0  attm_db.o(i.attmdb_svc_check_hdl)
    i.attmdb_svc_init                        0x01002f7c   Section        0  attm_db.o(i.attmdb_svc_init)
    attmdb_svc_init                          0x01002f7d   Thumb Code   458  attm_db.o(i.attmdb_svc_init)
    i.attmdb_uuid16_comp                     0x01003146   Section        0  attm_db.o(i.attmdb_uuid16_comp)
    i.atts_check_length_and_offset           0x01003180   Section        0  atts.o(i.atts_check_length_and_offset)
    atts_check_length_and_offset             0x01003181   Thumb Code    44  atts.o(i.atts_check_length_and_offset)
    i.atts_clear_prep_data                   0x010031ac   Section        0  atts.o(i.atts_clear_prep_data)
    i.atts_clear_read_cache                  0x010031d0   Section        0  atts.o(i.atts_clear_read_cache)
    i.atts_clear_rsp_data                    0x010031f4   Section        0  atts.o(i.atts_clear_rsp_data)
    i.atts_execute_write_req                 0x01003218   Section        0  atts.o(i.atts_execute_write_req)
    atts_execute_write_req                   0x01003219   Thumb Code   372  atts.o(i.atts_execute_write_req)
    i.atts_find_by_type_req                  0x01003390   Section        0  atts.o(i.atts_find_by_type_req)
    atts_find_by_type_req                    0x01003391   Thumb Code   386  atts.o(i.atts_find_by_type_req)
    i.atts_find_end                          0x01003518   Section        0  atts.o(i.atts_find_end)
    atts_find_end                            0x01003519   Thumb Code   122  atts.o(i.atts_find_end)
    i.atts_find_info_req                     0x01003594   Section        0  atts.o(i.atts_find_info_req)
    atts_find_info_req                       0x01003595   Thumb Code   324  atts.o(i.atts_find_info_req)
    i.atts_find_value_by_uuid                0x010036dc   Section        0  atts.o(i.atts_find_value_by_uuid)
    atts_find_value_by_uuid                  0x010036dd   Thumb Code   152  atts.o(i.atts_find_value_by_uuid)
    i.atts_get_att_chk_perm                  0x01003774   Section        0  atts.o(i.atts_get_att_chk_perm)
    atts_get_att_chk_perm                    0x01003775   Thumb Code   148  atts.o(i.atts_get_att_chk_perm)
    i.atts_get_dest_task                     0x0100380c   Section        0  atts.o(i.atts_get_dest_task)
    atts_get_dest_task                       0x0100380d   Thumb Code    26  atts.o(i.atts_get_dest_task)
    i.atts_get_value                         0x01003828   Section        0  atts.o(i.atts_get_value)
    atts_get_value                           0x01003829   Thumb Code   126  atts.o(i.atts_get_value)
    i.atts_l2cc_pdu_recv_handler             0x010038ac   Section        0  atts.o(i.atts_l2cc_pdu_recv_handler)
    i.atts_mtu_exc_req                       0x01003950   Section        0  atts.o(i.atts_mtu_exc_req)
    atts_mtu_exc_req                         0x01003951   Thumb Code    66  atts.o(i.atts_mtu_exc_req)
    i.atts_prepare_write_req                 0x01003994   Section        0  atts.o(i.atts_prepare_write_req)
    atts_prepare_write_req                   0x01003995   Thumb Code   244  atts.o(i.atts_prepare_write_req)
    i.atts_process_pdu                       0x01003a8c   Section        0  atts.o(i.atts_process_pdu)
    i.atts_read_blob_req                     0x01003b00   Section        0  atts.o(i.atts_read_blob_req)
    atts_read_blob_req                       0x01003b01   Thumb Code   186  atts.o(i.atts_read_blob_req)
    i.atts_read_by_grp_type_req              0x01003bbc   Section        0  atts.o(i.atts_read_by_grp_type_req)
    atts_read_by_grp_type_req                0x01003bbd   Thumb Code   442  atts.o(i.atts_read_by_grp_type_req)
    i.atts_read_by_type_req                  0x01003d7c   Section        0  atts.o(i.atts_read_by_type_req)
    atts_read_by_type_req                    0x01003d7d   Thumb Code   420  atts.o(i.atts_read_by_type_req)
    i.atts_read_mult_req                     0x01003f24   Section        0  atts.o(i.atts_read_mult_req)
    atts_read_mult_req                       0x01003f25   Thumb Code   284  atts.o(i.atts_read_mult_req)
    i.atts_read_req                          0x01004044   Section        0  atts.o(i.atts_read_req)
    atts_read_req                            0x01004045   Thumb Code   156  atts.o(i.atts_read_req)
    i.atts_send_error                        0x010040e0   Section        0  atts.o(i.atts_send_error)
    i.atts_send_event                        0x01004108   Section        0  atts.o(i.atts_send_event)
    i.atts_store_prep_data                   0x01004198   Section        0  atts.o(i.atts_store_prep_data)
    atts_store_prep_data                     0x01004199   Thumb Code   116  atts.o(i.atts_store_prep_data)
    i.atts_update_elmt                       0x01004210   Section        0  atts.o(i.atts_update_elmt)
    atts_update_elmt                         0x01004211   Thumb Code    68  atts.o(i.atts_update_elmt)
    i.atts_write_cmd                         0x01004254   Section        0  atts.o(i.atts_write_cmd)
    atts_write_cmd                           0x01004255   Thumb Code    62  atts.o(i.atts_write_cmd)
    i.atts_write_req                         0x01004292   Section        0  atts.o(i.atts_write_req)
    atts_write_req                           0x01004293   Thumb Code    78  atts.o(i.atts_write_req)
    i.atts_write_rsp_send                    0x010042e0   Section        0  atts.o(i.atts_write_rsp_send)
    i.atts_write_signed                      0x0100430e   Section        0  atts.o(i.atts_write_signed)
    atts_write_signed                        0x0100430f   Thumb Code   122  atts.o(i.atts_write_signed)
    i.atts_write_signed_cfm                  0x01004388   Section        0  atts.o(i.atts_write_signed_cfm)
    i.ble_add_svc                            0x010043c4   Section        0  app.o(i.ble_add_svc)
    i.ble_bond_addr_resolve_cb               0x010043fc   Section        0  user_bond_manage.o(i.ble_bond_addr_resolve_cb)
    ble_bond_addr_resolve_cb                 0x010043fd   Thumb Code   102  user_bond_manage.o(i.ble_bond_addr_resolve_cb)
    i.ble_bond_check                         0x01004490   Section        0  user_bond_manage.o(i.ble_bond_check)
    i.ble_bond_clr_all_info                  0x010045a8   Section        0  user_bond_manage.o(i.ble_bond_clr_all_info)
    i.ble_bond_get_info                      0x01004628   Section        0  user_bond_manage.o(i.ble_bond_get_info)
    i.ble_bond_init                          0x01004668   Section        0  user_bond_manage.o(i.ble_bond_init)
    i.ble_bond_read_info_from_flash          0x0100472c   Section        0  user_bond_manage.o(i.ble_bond_read_info_from_flash)
    i.ble_bond_store_info                    0x0100476c   Section        0  user_bond_manage.o(i.ble_bond_store_info)
    i.ble_bond_write_info_to_flash           0x01004830   Section        0  user_bond_manage.o(i.ble_bond_write_info_to_flash)
    i.ble_gap_set_dev_config                 0x010048bc   Section        0  app.o(i.ble_gap_set_dev_config)
    i.ble_sec_check_ediv_rand                0x01004948   Section        0  app_sec.o(i.ble_sec_check_ediv_rand)
    i.ble_sec_get_bond_status                0x01004990   Section        0  app_sec.o(i.ble_sec_get_bond_status)
    i.ble_sec_init                           0x0100499c   Section        0  app_sec.o(i.ble_sec_init)
    i.ble_sec_resolve_address                0x01004a04   Section        0  app_sec.o(i.ble_sec_resolve_address)
    i.ble_sec_set_pairing_param              0x01004a4c   Section        0  app_sec.o(i.ble_sec_set_pairing_param)
    i.ble_sec_start_bond                     0x01004a5c   Section        0  app_sec.o(i.ble_sec_start_bond)
    i.ble_sec_start_enc_req                  0x01004ab0   Section        0  app_sec.o(i.ble_sec_start_enc_req)
    i.ble_set_evt_func                       0x01004af4   Section        0  app.o(i.ble_set_evt_func)
    i.button_toggle_detected                 0x01004b08   Section        0  button.o(i.button_toggle_detected)
    i.calib_meter_evt_end                    0x01004b28   Section        0  adv_check_mode.o(i.calib_meter_evt_end)
    i.calib_meter_recv_msg                   0x01004b2a   Section        0  adv_check_mode.o(i.calib_meter_recv_msg)
    i.check_timer_handle                     0x01004b2c   Section        0  os_timer.o(i.check_timer_handle)
    i.con_max_lat_calc_patch                 0x01004ba4   Section        0  patch_rf.o(i.con_max_lat_calc_patch)
    i.efuse_get_chip_unique_id               0x01004c24   Section        0  driver_efuse.o(i.efuse_get_chip_unique_id)
    i.efuse_read                             0x01004cc0   Section        0  driver_efuse.o(i.efuse_read)
    i.em_ble_generate_base_address_table     0x01004cec   Section        0  jump_table.o(i.em_ble_generate_base_address_table)
    em_ble_generate_base_address_table       0x01004ced   Thumb Code   174  jump_table.o(i.em_ble_generate_base_address_table)
    i.free_time_evt_id                       0x01004dcc   Section        0  os_timer.o(i.free_time_evt_id)
    free_time_evt_id                         0x01004dcd   Thumb Code    30  os_timer.o(i.free_time_evt_id)
    i.from_task_func_to_msg_handle           0x01004df0   Section        0  os_task.o(i.from_task_func_to_msg_handle)
    i.gap_address_get                        0x01004e14   Section        0  gap_api.o(i.gap_address_get)
    i.gap_bond_manager_delete_all            0x01004e28   Section        0  gap_api.o(i.gap_bond_manager_delete_all)
    i.gap_bond_manager_init                  0x01004e2c   Section        0  gap_api.o(i.gap_bond_manager_init)
    i.gap_disconnect_req                     0x01004e30   Section        0  gap_api.o(i.gap_disconnect_req)
    i.gap_get_connect_num                    0x01004e60   Section        0  gap_api.o(i.gap_get_connect_num)
    i.gap_get_connect_status                 0x01004e80   Section        0  gap_api.o(i.gap_get_connect_status)
    i.gap_get_dev_appearance                 0x01004e8c   Section        0  gap_api.o(i.gap_get_dev_appearance)
    i.gap_get_dev_name                       0x01004e98   Section        0  gap_api.o(i.gap_get_dev_name)
    i.gap_paring_req_cb                      0x01004eb0   Section        0  app_sec.o(i.gap_paring_req_cb)
    gap_paring_req_cb                        0x01004eb1   Thumb Code   108  app_sec.o(i.gap_paring_req_cb)
    i.gap_rssi_ind                           0x01004f20   Section        0  patch_rf.o(i.gap_rssi_ind)
    i.gap_security_enc_req                   0x01004f22   Section        0  gap_api.o(i.gap_security_enc_req)
    i.gap_security_get_bond_status           0x01004f26   Section        0  gap_api.o(i.gap_security_get_bond_status)
    i.gap_security_pairing_req               0x01004f2a   Section        0  gap_api.o(i.gap_security_pairing_req)
    i.gap_security_param_init                0x01004f2e   Section        0  gap_api.o(i.gap_security_param_init)
    i.gap_set_advertising_data               0x01004f32   Section        0  gap_api.o(i.gap_set_advertising_data)
    i.gap_set_advertising_param              0x01004f3c   Section        0  gap_api.o(i.gap_set_advertising_param)
    i.gap_set_advertising_rsp_data           0x01004f44   Section        0  gap_api.o(i.gap_set_advertising_rsp_data)
    i.gap_set_cb_func                        0x01004f50   Section        0  gap_api.o(i.gap_set_cb_func)
    i.gap_set_dev_name                       0x01004f5c   Section        0  gap_api.o(i.gap_set_dev_name)
    i.gap_start_advertising                  0x01004f78   Section        0  gap_api.o(i.gap_start_advertising)
    i.gap_start_conn                         0x01004f80   Section        0  gap_api.o(i.gap_start_conn)
    i.gap_start_scan                         0x01004fd4   Section        0  gap_api.o(i.gap_start_scan)
    i.gap_stop_scan                          0x01005060   Section        0  gap_api.o(i.gap_stop_scan)
    i.gapc_auth_get                          0x01005098   Section        0  gapc.o(i.gapc_auth_get)
    i.gapc_auth_set                          0x010050dc   Section        0  gapc.o(i.gapc_auth_set)
    i.gapc_bond_cfm_handler                  0x01005140   Section        0  gapc_task.o(i.gapc_bond_cfm_handler)
    gapc_bond_cfm_handler                    0x01005141   Thumb Code   220  gapc_task.o(i.gapc_bond_cfm_handler)
    i.gapc_bond_cmd_handler                  0x01005220   Section        0  gapc_task.o(i.gapc_bond_cmd_handler)
    gapc_bond_cmd_handler                    0x01005221   Thumb Code    88  gapc_task.o(i.gapc_bond_cmd_handler)
    i.gapc_bond_ind_handler                  0x0100527c   Section        0  app_sec.o(i.gapc_bond_ind_handler)
    gapc_bond_ind_handler                    0x0100527d   Thumb Code   224  app_sec.o(i.gapc_bond_ind_handler)
    i.gapc_bond_req_ind_handler              0x010053bc   Section        0  app_sec.o(i.gapc_bond_req_ind_handler)
    gapc_bond_req_ind_handler                0x010053bd   Thumb Code   320  app_sec.o(i.gapc_bond_req_ind_handler)
    i.gapc_cleanup                           0x0100552c   Section        0  gapc.o(i.gapc_cleanup)
    gapc_cleanup                             0x0100552d   Thumb Code   122  gapc.o(i.gapc_cleanup)
    i.gapc_cmp_evt_handler                   0x010055ac   Section        0  app_task.o(i.gapc_cmp_evt_handler)
    gapc_cmp_evt_handler                     0x010055ad   Thumb Code    68  app_task.o(i.gapc_cmp_evt_handler)
    i.gapc_cmp_evt_handler                   0x010055f0   Section        0  gapc_task.o(i.gapc_cmp_evt_handler)
    gapc_cmp_evt_handler                     0x010055f1   Thumb Code     4  gapc_task.o(i.gapc_cmp_evt_handler)
    i.gapc_cmp_evt_handler                   0x010055f4   Section        0  gattc_task.o(i.gapc_cmp_evt_handler)
    gapc_cmp_evt_handler                     0x010055f5   Thumb Code    54  gattc_task.o(i.gapc_cmp_evt_handler)
    i.gapc_cmp_evt_handler                   0x01005630   Section        0  gapm_init.o(i.gapc_cmp_evt_handler)
    i.gapc_con_cleanup                       0x01005694   Section        0  gapc.o(i.gapc_con_cleanup)
    i.gapc_con_create                        0x010056a4   Section        0  gapc.o(i.gapc_con_create)
    i.gapc_connection_cfm_handler            0x0100581c   Section        0  gapc_task.o(i.gapc_connection_cfm_handler)
    gapc_connection_cfm_handler              0x0100581d   Thumb Code   126  gapc_task.o(i.gapc_connection_cfm_handler)
    i.gapc_connection_req_ind_handler        0x010058a0   Section        0  app_task.o(i.gapc_connection_req_ind_handler)
    gapc_connection_req_ind_handler          0x010058a1   Thumb Code    94  app_task.o(i.gapc_connection_req_ind_handler)
    i.gapc_connection_send_cfm               0x0100590c   Section        0  app_task.o(i.gapc_connection_send_cfm)
    i.gapc_default_msg_handler               0x01005954   Section        0  gapc_task.o(i.gapc_default_msg_handler)
    gapc_default_msg_handler                 0x01005955   Thumb Code     4  gapc_task.o(i.gapc_default_msg_handler)
    i.gapc_disconnect_cmd_handler            0x01005958   Section        0  gapc_task.o(i.gapc_disconnect_cmd_handler)
    gapc_disconnect_cmd_handler              0x01005959   Thumb Code   108  gapc_task.o(i.gapc_disconnect_cmd_handler)
    i.gapc_disconnect_ind_handler            0x010059c8   Section        0  app_task.o(i.gapc_disconnect_ind_handler)
    gapc_disconnect_ind_handler              0x010059c9   Thumb Code    34  app_task.o(i.gapc_disconnect_ind_handler)
    i.gapc_enc_keysize_get                   0x010059f0   Section        0  gapc.o(i.gapc_enc_keysize_get)
    i.gapc_enc_keysize_set                   0x01005a0c   Section        0  gapc.o(i.gapc_enc_keysize_set)
    i.gapc_encrypt_cfm_handler               0x01005a24   Section        0  gapc_task.o(i.gapc_encrypt_cfm_handler)
    gapc_encrypt_cfm_handler                 0x01005a25   Thumb Code    54  gapc_task.o(i.gapc_encrypt_cfm_handler)
    i.gapc_encrypt_cmd_handler               0x01005a5c   Section        0  gapc_task.o(i.gapc_encrypt_cmd_handler)
    gapc_encrypt_cmd_handler                 0x01005a5d   Thumb Code    88  gapc_task.o(i.gapc_encrypt_cmd_handler)
    i.gapc_encrypt_ind_handler               0x01005ab8   Section        0  app_sec.o(i.gapc_encrypt_ind_handler)
    gapc_encrypt_ind_handler                 0x01005ab9   Thumb Code    32  app_sec.o(i.gapc_encrypt_ind_handler)
    i.gapc_encrypt_req_ind_handler           0x01005adc   Section        0  app_sec.o(i.gapc_encrypt_req_ind_handler)
    gapc_encrypt_req_ind_handler             0x01005add   Thumb Code    78  app_sec.o(i.gapc_encrypt_req_ind_handler)
    i.gapc_gen_dh_key_ind_handler            0x01005b38   Section        0  gapc_task.o(i.gapc_gen_dh_key_ind_handler)
    gapc_gen_dh_key_ind_handler              0x01005b39   Thumb Code    28  gapc_task.o(i.gapc_gen_dh_key_ind_handler)
    i.gapc_get_bdaddr                        0x01005b54   Section        0  gapc.o(i.gapc_get_bdaddr)
    i.gapc_get_chan_sel_algo                 0x01005b78   Section        0  gapc.o(i.gapc_get_chan_sel_algo)
    i.gapc_get_conhdl                        0x01005b90   Section        0  gapc.o(i.gapc_get_conhdl)
    i.gapc_get_conidx_imp                    0x01005bb8   Section        0  gapc.o(i.gapc_get_conidx_imp)
    i.gapc_get_csrk                          0x01005bf0   Section        0  gapc.o(i.gapc_get_csrk)
    i.gapc_get_dest_task                     0x01005c14   Section        0  gapc.o(i.gapc_get_dest_task)
    i.gapc_get_dev_info_cfm_handler          0x01005c24   Section        0  gapc_task.o(i.gapc_get_dev_info_cfm_handler)
    gapc_get_dev_info_cfm_handler            0x01005c25   Thumb Code   186  gapc_task.o(i.gapc_get_dev_info_cfm_handler)
    i.gapc_get_dev_info_req_ind_handler      0x01005cde   Section        0  app_task.o(i.gapc_get_dev_info_req_ind_handler)
    gapc_get_dev_info_req_ind_handler        0x01005cdf   Thumb Code   108  app_task.o(i.gapc_get_dev_info_req_ind_handler)
    i.gapc_get_info_cmd_handler              0x01005d4c   Section        0  gapc_task.o(i.gapc_get_info_cmd_handler)
    gapc_get_info_cmd_handler                0x01005d4d   Thumb Code   300  gapc_task.o(i.gapc_get_info_cmd_handler)
    i.gapc_get_operation                     0x01005e84   Section        0  gapc.o(i.gapc_get_operation)
    i.gapc_get_operation_ptr                 0x01005ea0   Section        0  gapc.o(i.gapc_get_operation_ptr)
    i.gapc_get_requester                     0x01005eb0   Section        0  gapc.o(i.gapc_get_requester)
    i.gapc_get_role                          0x01005ed0   Section        0  gapc.o(i.gapc_get_role)
    i.gapc_get_sign_counter                  0x01005ef0   Section        0  gapc.o(i.gapc_get_sign_counter)
    i.gapc_hci_handler                       0x01005f14   Section        0  gapc_hci.o(i.gapc_hci_handler)
    i.gapc_init                              0x01005f78   Section        0  gapc.o(i.gapc_init)
    i.gapc_is_disc_connection                0x01005fc4   Section        0  gapc.o(i.gapc_is_disc_connection)
    i.gapc_is_sec_set                        0x01005fc8   Section        0  gapc.o(i.gapc_is_sec_set)
    i.gapc_key_press_notification_cmd_handler 0x01006008   Section        0  gapc_task.o(i.gapc_key_press_notification_cmd_handler)
    gapc_key_press_notification_cmd_handler  0x01006009   Thumb Code   104  gapc_task.o(i.gapc_key_press_notification_cmd_handler)
    i.gapc_link_encrypted                    0x01006078   Section        0  gapc.o(i.gapc_link_encrypted)
    i.gapc_lk_sec_lvl_get                    0x010060a0   Section        0  gapc.o(i.gapc_lk_sec_lvl_get)
    i.gapc_operation_cleanup                 0x010060cc   Section        0  gapc.o(i.gapc_operation_cleanup)
    gapc_operation_cleanup                   0x010060cd   Thumb Code    92  gapc.o(i.gapc_operation_cleanup)
    i.gapc_param_update_cfm_handler          0x0100612c   Section        0  gapc_task.o(i.gapc_param_update_cfm_handler)
    gapc_param_update_cfm_handler            0x0100612d   Thumb Code   256  gapc_task.o(i.gapc_param_update_cfm_handler)
    i.gapc_param_update_cmd_handler          0x01006230   Section        0  gapc_task.o(i.gapc_param_update_cmd_handler)
    gapc_param_update_cmd_handler            0x01006231   Thumb Code   276  gapc_task.o(i.gapc_param_update_cmd_handler)
    i.gapc_param_update_req_ind_handler      0x0100634c   Section        0  app_task.o(i.gapc_param_update_req_ind_handler)
    gapc_param_update_req_ind_handler        0x0100634d   Thumb Code   130  app_task.o(i.gapc_param_update_req_ind_handler)
    i.gapc_param_update_sanity               0x010063d8   Section        0  gapc.o(i.gapc_param_update_sanity)
    i.gapc_peer_att_info_ind_handler         0x01006400   Section        0  gapm_init.o(i.gapc_peer_att_info_ind_handler)
    i.gapc_peer_features_ind_handler         0x01006464   Section        0  app_task.o(i.gapc_peer_features_ind_handler)
    gapc_peer_features_ind_handler           0x01006465   Thumb Code    14  app_task.o(i.gapc_peer_features_ind_handler)
    i.gapc_peer_ver_ind_handler              0x01006474   Section        0  app_task.o(i.gapc_peer_ver_ind_handler)
    gapc_peer_ver_ind_handler                0x01006475   Thumb Code    46  app_task.o(i.gapc_peer_ver_ind_handler)
    i.gapc_process_op                        0x010064a8   Section        0  gapc_task.o(i.gapc_process_op)
    i.gapc_reschedule_operation              0x01006534   Section        0  gapc.o(i.gapc_reschedule_operation)
    i.gapc_security_cmd_handler              0x01006570   Section        0  gapc_task.o(i.gapc_security_cmd_handler)
    gapc_security_cmd_handler                0x01006571   Thumb Code    68  gapc_task.o(i.gapc_security_cmd_handler)
    i.gapc_security_ind_handler              0x010065b8   Section        0  app_sec.o(i.gapc_security_ind_handler)
    gapc_security_ind_handler                0x010065b9   Thumb Code    52  app_sec.o(i.gapc_security_ind_handler)
    i.gapc_send_complete_evt                 0x01006600   Section        0  gapc.o(i.gapc_send_complete_evt)
    i.gapc_send_disconect_ind                0x01006660   Section        0  gapc.o(i.gapc_send_disconect_ind)
    i.gapc_send_error_evt                    0x01006686   Section        0  gapc.o(i.gapc_send_error_evt)
    i.gapc_set_dev_info_cfm_handler          0x010066ac   Section        0  gapc_task.o(i.gapc_set_dev_info_cfm_handler)
    gapc_set_dev_info_cfm_handler            0x010066ad   Thumb Code    78  gapc_task.o(i.gapc_set_dev_info_cfm_handler)
    i.gapc_set_dev_info_req_ind_handler      0x010066fa   Section        0  app_task.o(i.gapc_set_dev_info_req_ind_handler)
    gapc_set_dev_info_req_ind_handler        0x010066fb   Thumb Code    34  app_task.o(i.gapc_set_dev_info_req_ind_handler)
    i.gapc_set_le_ping_to_handler            0x0100671c   Section        0  gapc_task.o(i.gapc_set_le_ping_to_handler)
    gapc_set_le_ping_to_handler              0x0100671d   Thumb Code    70  gapc_task.o(i.gapc_set_le_ping_to_handler)
    i.gapc_set_le_pkt_size_handler           0x01006768   Section        0  gapc_task.o(i.gapc_set_le_pkt_size_handler)
    gapc_set_le_pkt_size_handler             0x01006769   Thumb Code    74  gapc_task.o(i.gapc_set_le_pkt_size_handler)
    i.gapc_set_local_addr                    0x010067b8   Section        0  gapc.o(i.gapc_set_local_addr)
    i.gapc_set_operation_ptr                 0x010067dc   Section        0  gapc.o(i.gapc_set_operation_ptr)
    i.gapc_set_phy_cmd_handler               0x010067ec   Section        0  gapc_task.o(i.gapc_set_phy_cmd_handler)
    gapc_set_phy_cmd_handler                 0x010067ed   Thumb Code   104  gapc_task.o(i.gapc_set_phy_cmd_handler)
    i.gapc_set_pref_slave_latency_cmd_handler 0x01006858   Section        0  gapc_task.o(i.gapc_set_pref_slave_latency_cmd_handler)
    gapc_set_pref_slave_latency_cmd_handler  0x01006859   Thumb Code    70  gapc_task.o(i.gapc_set_pref_slave_latency_cmd_handler)
    i.gapc_sig_pdu_recv_handler              0x010068a4   Section        0  gapc_sig.o(i.gapc_sig_pdu_recv_handler)
    i.gapc_sig_send_param_resp               0x010068e0   Section        0  gapc_sig.o(i.gapc_sig_send_param_resp)
    i.gapc_sign_cmd_handler                  0x01006904   Section        0  gapc_task.o(i.gapc_sign_cmd_handler)
    gapc_sign_cmd_handler                    0x01006905   Thumb Code    54  gapc_task.o(i.gapc_sign_cmd_handler)
    i.gapc_sign_ind_handler                  0x01006940   Section        0  gattc_task.o(i.gapc_sign_ind_handler)
    gapc_sign_ind_handler                    0x01006941   Thumb Code   138  gattc_task.o(i.gapc_sign_ind_handler)
    i.gapc_smp_rep_attempts_timer_handler    0x010069cc   Section        0  gapc_task.o(i.gapc_smp_rep_attempts_timer_handler)
    gapc_smp_rep_attempts_timer_handler      0x010069cd   Thumb Code    44  gapc_task.o(i.gapc_smp_rep_attempts_timer_handler)
    i.gapc_smp_timeout_timer_ind_handler     0x010069fc   Section        0  gapc_task.o(i.gapc_smp_timeout_timer_ind_handler)
    gapc_smp_timeout_timer_ind_handler       0x010069fd   Thumb Code    64  gapc_task.o(i.gapc_smp_timeout_timer_ind_handler)
    i.gapc_svc_chg_ccc_get                   0x01006a40   Section        0  gapc.o(i.gapc_svc_chg_ccc_get)
    i.gapc_svc_chg_ccc_set                   0x01006a54   Section        0  gapc.o(i.gapc_svc_chg_ccc_set)
    i.gapc_update_conn_param_to_ind_handler  0x01006a70   Section        0  gapc_task.o(i.gapc_update_conn_param_to_ind_handler)
    gapc_update_conn_param_to_ind_handler    0x01006a71   Thumb Code    68  gapc_task.o(i.gapc_update_conn_param_to_ind_handler)
    i.gapc_update_state                      0x01006ab4   Section        0  gapc.o(i.gapc_update_state)
    i.gapm_activity_create_cmd_handler       0x01006ae8   Section        0  gapm_actv.o(i.gapm_activity_create_cmd_handler)
    i.gapm_activity_created_ind_handler      0x01006bb0   Section        0  app_task.o(i.gapm_activity_created_ind_handler)
    gapm_activity_created_ind_handler        0x01006bb1   Thumb Code    60  app_task.o(i.gapm_activity_created_ind_handler)
    i.gapm_activity_delete_cmd_handler       0x01006bf0   Section        0  gapm_actv.o(i.gapm_activity_delete_cmd_handler)
    i.gapm_activity_start_cmd_handler        0x01006c6c   Section        0  gapm_actv.o(i.gapm_activity_start_cmd_handler)
    i.gapm_activity_stop_cmd_handler         0x01006ce0   Section        0  gapm_actv.o(i.gapm_activity_stop_cmd_handler)
    i.gapm_activity_stopped_ind_handler      0x01006d50   Section        0  app_task.o(i.gapm_activity_stopped_ind_handler)
    gapm_activity_stopped_ind_handler        0x01006d51   Thumb Code   116  app_task.o(i.gapm_activity_stopped_ind_handler)
    i.gapm_actv_alloc                        0x01006dcc   Section        0  gapm_actv.o(i.gapm_actv_alloc)
    i.gapm_actv_created                      0x01006dfc   Section        0  gapm_actv.o(i.gapm_actv_created)
    i.gapm_actv_deleted                      0x01006e60   Section        0  gapm_actv.o(i.gapm_actv_deleted)
    i.gapm_actv_free                         0x01006ea8   Section        0  gapm_actv.o(i.gapm_actv_free)
    gapm_actv_free                           0x01006ea9   Thumb Code    50  gapm_actv.o(i.gapm_actv_free)
    i.gapm_actv_get_hci_own_addr_type        0x01006ee0   Section        0  gapm_actv.o(i.gapm_actv_get_hci_own_addr_type)
    i.gapm_actv_get_next                     0x01006f00   Section        0  gapm_actv.o(i.gapm_actv_get_next)
    gapm_actv_get_next                       0x01006f01   Thumb Code    44  gapm_actv.o(i.gapm_actv_get_next)
    i.gapm_actv_init                         0x01006f34   Section        0  gapm_actv.o(i.gapm_actv_init)
    i.gapm_actv_rand_addr_set_ind            0x01006f88   Section        0  gapm_actv.o(i.gapm_actv_rand_addr_set_ind)
    i.gapm_actv_retrieve_cmd_cmp_evt         0x01006fa4   Section        0  gapm_actv.o(i.gapm_actv_retrieve_cmd_cmp_evt)
    i.gapm_actv_send_stopped_ind             0x01006fd8   Section        0  gapm_actv.o(i.gapm_actv_send_stopped_ind)
    gapm_actv_send_stopped_ind               0x01006fd9   Thumb Code    42  gapm_actv.o(i.gapm_actv_send_stopped_ind)
    i.gapm_actv_started                      0x01007004   Section        0  gapm_actv.o(i.gapm_actv_started)
    i.gapm_actv_stopped                      0x01007030   Section        0  gapm_actv.o(i.gapm_actv_stopped)
    i.gapm_addr_fsm                          0x010070a8   Section        0  gapm_addr.o(i.gapm_addr_fsm)
    gapm_addr_fsm                            0x010070a9   Thumb Code   190  gapm_addr.o(i.gapm_addr_fsm)
    i.gapm_addr_init                         0x0100716c   Section        0  gapm_addr.o(i.gapm_addr_init)
    i.gapm_addr_renew_cmd_handler            0x01007184   Section        0  gapm_addr.o(i.gapm_addr_renew_cmd_handler)
    i.gapm_addr_renew_next_addr              0x010071ac   Section        0  gapm_addr.o(i.gapm_addr_renew_next_addr)
    gapm_addr_renew_next_addr                0x010071ad   Thumb Code   164  gapm_addr.o(i.gapm_addr_renew_next_addr)
    i.gapm_addr_renew_to_ind_handler         0x01007258   Section        0  gapm_addr.o(i.gapm_addr_renew_to_ind_handler)
    i.gapm_addr_send_dev_bdaddr_ind          0x0100727c   Section        0  gapm_addr.o(i.gapm_addr_send_dev_bdaddr_ind)
    gapm_addr_send_dev_bdaddr_ind            0x0100727d   Thumb Code    44  gapm_addr.o(i.gapm_addr_send_dev_bdaddr_ind)
    i.gapm_addr_set_rand_addr                0x010072a8   Section        0  gapm_addr.o(i.gapm_addr_set_rand_addr)
    i.gapm_addr_solved_ind_handler           0x01007350   Section        0  app_task.o(i.gapm_addr_solved_ind_handler)
    gapm_addr_solved_ind_handler             0x01007351   Thumb Code    16  app_task.o(i.gapm_addr_solved_ind_handler)
    i.gapm_adv_check_data_sanity             0x01007360   Section        0  gapm_adv.o(i.gapm_adv_check_data_sanity)
    gapm_adv_check_data_sanity               0x01007361   Thumb Code   124  gapm_adv.o(i.gapm_adv_check_data_sanity)
    i.gapm_adv_check_param                   0x010073dc   Section        0  gapm_adv.o(i.gapm_adv_check_param)
    gapm_adv_check_param                     0x010073dd   Thumb Code   218  gapm_adv.o(i.gapm_adv_check_param)
    i.gapm_adv_create                        0x010074c0   Section        0  gapm_adv.o(i.gapm_adv_create)
    i.gapm_adv_delete                        0x01007568   Section        0  gapm_adv.o(i.gapm_adv_delete)
    gapm_adv_delete                          0x01007569   Thumb Code    16  gapm_adv.o(i.gapm_adv_delete)
    i.gapm_adv_send_hci_le_rmv_adv_set_cmd   0x0100757c   Section        0  gapm_adv.o(i.gapm_adv_send_hci_le_rmv_adv_set_cmd)
    gapm_adv_send_hci_le_rmv_adv_set_cmd     0x0100757d   Thumb Code    34  gapm_adv.o(i.gapm_adv_send_hci_le_rmv_adv_set_cmd)
    i.gapm_adv_send_hci_le_set_ext_adv_data_cmd 0x0100759e   Section        0  gapm_adv.o(i.gapm_adv_send_hci_le_set_ext_adv_data_cmd)
    gapm_adv_send_hci_le_set_ext_adv_data_cmd 0x0100759f   Thumb Code   184  gapm_adv.o(i.gapm_adv_send_hci_le_set_ext_adv_data_cmd)
    i.gapm_adv_send_hci_le_set_ext_adv_en_cmd 0x01007656   Section        0  gapm_adv.o(i.gapm_adv_send_hci_le_set_ext_adv_en_cmd)
    gapm_adv_send_hci_le_set_ext_adv_en_cmd  0x01007657   Thumb Code    82  gapm_adv.o(i.gapm_adv_send_hci_le_set_ext_adv_en_cmd)
    i.gapm_adv_send_hci_le_set_ext_adv_param_cmd 0x010076a8   Section        0  gapm_adv.o(i.gapm_adv_send_hci_le_set_ext_adv_param_cmd)
    gapm_adv_send_hci_le_set_ext_adv_param_cmd 0x010076a9   Thumb Code   186  gapm_adv.o(i.gapm_adv_send_hci_le_set_ext_adv_param_cmd)
    i.gapm_adv_send_hci_le_set_ext_scan_rsp_data_cmd 0x01007762   Section        0  gapm_adv.o(i.gapm_adv_send_hci_le_set_ext_scan_rsp_data_cmd)
    gapm_adv_send_hci_le_set_ext_scan_rsp_data_cmd 0x01007763   Thumb Code   182  gapm_adv.o(i.gapm_adv_send_hci_le_set_ext_scan_rsp_data_cmd)
    i.gapm_adv_send_hci_le_set_per_adv_data_cmd 0x01007818   Section        0  gapm_adv.o(i.gapm_adv_send_hci_le_set_per_adv_data_cmd)
    gapm_adv_send_hci_le_set_per_adv_data_cmd 0x01007819   Thumb Code   104  gapm_adv.o(i.gapm_adv_send_hci_le_set_per_adv_data_cmd)
    i.gapm_adv_send_hci_le_set_per_adv_en_cmd 0x01007880   Section        0  gapm_adv.o(i.gapm_adv_send_hci_le_set_per_adv_en_cmd)
    gapm_adv_send_hci_le_set_per_adv_en_cmd  0x01007881   Thumb Code    38  gapm_adv.o(i.gapm_adv_send_hci_le_set_per_adv_en_cmd)
    i.gapm_adv_set_data                      0x010078a6   Section        0  gapm_adv.o(i.gapm_adv_set_data)
    gapm_adv_set_data                        0x010078a7   Thumb Code    98  gapm_adv.o(i.gapm_adv_set_data)
    i.gapm_adv_start                         0x01007908   Section        0  gapm_adv.o(i.gapm_adv_start)
    gapm_adv_start                           0x01007909   Thumb Code    72  gapm_adv.o(i.gapm_adv_start)
    i.gapm_adv_stop                          0x01007954   Section        0  gapm_adv.o(i.gapm_adv_stop)
    gapm_adv_stop                            0x01007955   Thumb Code    30  gapm_adv.o(i.gapm_adv_stop)
    i.gapm_auto_conn_to_ind_handler          0x01007978   Section        0  gapm_init.o(i.gapm_auto_conn_to_ind_handler)
    i.gapm_cmp_evt_handler                   0x010079b0   Section        0  app_task.o(i.gapm_cmp_evt_handler)
    gapm_cmp_evt_handler                     0x010079b1   Thumb Code   444  app_task.o(i.gapm_cmp_evt_handler)
    i.gapm_cmp_evt_handler                   0x01007b78   Section        0  gapc_task.o(i.gapm_cmp_evt_handler)
    gapm_cmp_evt_handler                     0x01007b79   Thumb Code   120  gapc_task.o(i.gapm_cmp_evt_handler)
    i.gapm_cmp_evt_handler                   0x01007bf0   Section        0  gapm_addr.o(i.gapm_cmp_evt_handler)
    i.gapm_con_cleanup                       0x01007c10   Section        0  gapm.o(i.gapm_con_cleanup)
    i.gapm_con_create                        0x01007c50   Section        0  gapm.o(i.gapm_con_create)
    i.gapm_con_enable                        0x01007cb8   Section        0  gapm.o(i.gapm_con_enable)
    i.gapm_default_msg_handler               0x01007cc2   Section        0  gapm_task.o(i.gapm_default_msg_handler)
    gapm_default_msg_handler                 0x01007cc3   Thumb Code     4  gapm_task.o(i.gapm_default_msg_handler)
    i.gapm_dev_bdaddr_ind_handler            0x01007cc8   Section        0  gapm_addr.o(i.gapm_dev_bdaddr_ind_handler)
    i.gapm_dle_val_check                     0x01007d04   Section        0  gapm.o(i.gapm_dle_val_check)
    i.gapm_enc_block_ind_handler             0x01007d20   Section        0  app_task.o(i.gapm_enc_block_ind_handler)
    gapm_enc_block_ind_handler               0x01007d21   Thumb Code    18  app_task.o(i.gapm_enc_block_ind_handler)
    i.gapm_ext_adv_report_ind_handler        0x01007d38   Section        0  app_task.o(i.gapm_ext_adv_report_ind_handler)
    gapm_ext_adv_report_ind_handler          0x01007d39   Thumb Code    12  app_task.o(i.gapm_ext_adv_report_ind_handler)
    i.gapm_gen_dh_key_cmd_handler            0x01007d44   Section        0  gapm_smp.o(i.gapm_gen_dh_key_cmd_handler)
    i.gapm_gen_rand_addr_cmd_handler         0x01007d94   Section        0  gapm_smp.o(i.gapm_gen_rand_addr_cmd_handler)
    i.gapm_gen_rand_nb_ind_handler           0x01007dd0   Section        0  app_task.o(i.gapm_gen_rand_nb_ind_handler)
    gapm_gen_rand_nb_ind_handler             0x01007dd1   Thumb Code    38  app_task.o(i.gapm_gen_rand_nb_ind_handler)
    i.gapm_gen_rand_nb_ind_handler           0x01007dfc   Section        0  gapc_task.o(i.gapm_gen_rand_nb_ind_handler)
    gapm_gen_rand_nb_ind_handler             0x01007dfd   Thumb Code    40  gapc_task.o(i.gapm_gen_rand_nb_ind_handler)
    i.gapm_get_address_type                  0x01007e24   Section        0  gapm.o(i.gapm_get_address_type)
    i.gapm_get_att_handle                    0x01007e34   Section        0  gapm.o(i.gapm_get_att_handle)
    i.gapm_get_bdaddr                        0x01007e5c   Section        0  gapm.o(i.gapm_get_bdaddr)
    i.gapm_get_dev_info_cmd_handler          0x01007e64   Section        0  gapm_cfg.o(i.gapm_get_dev_info_cmd_handler)
    i.gapm_get_irk                           0x01007f74   Section        0  gapm.o(i.gapm_get_irk)
    i.gapm_get_local_public_key              0x01007f7c   Section        0  gapm.o(i.gapm_get_local_public_key)
    i.gapm_get_max_mtu                       0x01007f84   Section        0  gapm.o(i.gapm_get_max_mtu)
    i.gapm_get_operation                     0x01007f90   Section        0  gapm.o(i.gapm_get_operation)
    i.gapm_get_pub_key_cmd_handler           0x01007fa8   Section        0  gapm_smp.o(i.gapm_get_pub_key_cmd_handler)
    i.gapm_get_ral_addr_cmd_handler          0x01008044   Section        0  gapm_list.o(i.gapm_get_ral_addr_cmd_handler)
    i.gapm_get_requester                     0x01008098   Section        0  gapm.o(i.gapm_get_requester)
    i.gapm_hci_handler                       0x010080b4   Section        0  gapm_task.o(i.gapm_hci_handler)
    gapm_hci_handler                         0x010080b5   Thumb Code    78  gapm_task.o(i.gapm_hci_handler)
    i.gapm_init                              0x0100810c   Section        0  gapm.o(i.gapm_init)
    i.gapm_init_attr                         0x0100816c   Section        0  gapm.o(i.gapm_init_attr)
    i.gapm_init_connection_ind               0x010081a0   Section        0  gapm_init.o(i.gapm_init_connection_ind)
    i.gapm_init_create                       0x01008238   Section        0  gapm_init.o(i.gapm_init_create)
    i.gapm_init_delete                       0x010082b8   Section        0  gapm_init.o(i.gapm_init_delete)
    gapm_init_delete                         0x010082b9   Thumb Code     4  gapm_init.o(i.gapm_init_delete)
    i.gapm_init_send_hci_le_ext_create_con_cmd 0x010082bc   Section        0  gapm_init.o(i.gapm_init_send_hci_le_ext_create_con_cmd)
    gapm_init_send_hci_le_ext_create_con_cmd 0x010082bd   Thumb Code   212  gapm_init.o(i.gapm_init_send_hci_le_ext_create_con_cmd)
    i.gapm_init_start                        0x01008390   Section        0  gapm_init.o(i.gapm_init_start)
    gapm_init_start                          0x01008391   Thumb Code   112  gapm_init.o(i.gapm_init_start)
    i.gapm_init_stop                         0x01008404   Section        0  gapm_init.o(i.gapm_init_stop)
    gapm_init_stop                           0x01008405   Thumb Code    42  gapm_init.o(i.gapm_init_stop)
    i.gapm_is_addr_type_valid                0x01008434   Section        0  gapm_addr.o(i.gapm_is_addr_type_valid)
    i.gapm_is_legacy_pairing_supp            0x01008478   Section        0  gapm.o(i.gapm_is_legacy_pairing_supp)
    i.gapm_is_pref_con_param_pres            0x01008488   Section        0  gapm.o(i.gapm_is_pref_con_param_pres)
    i.gapm_is_sec_con_pairing_supp           0x01008498   Section        0  gapm.o(i.gapm_is_sec_con_pairing_supp)
    i.gapm_list_add_next_entry               0x010084a8   Section        0  gapm_list.o(i.gapm_list_add_next_entry)
    gapm_list_add_next_entry                 0x010084a9   Thumb Code   174  gapm_list.o(i.gapm_list_add_next_entry)
    i.gapm_list_send_list_size_ind           0x01008556   Section        0  gapm_list.o(i.gapm_list_send_list_size_ind)
    gapm_list_send_list_size_ind             0x01008557   Thumb Code    38  gapm_list.o(i.gapm_list_send_list_size_ind)
    i.gapm_list_set_cmd_handler              0x0100857c   Section        0  gapm_list.o(i.gapm_list_set_cmd_handler)
    i.gapm_op_reset_continue                 0x010085cc   Section        0  gapm_cfg.o(i.gapm_op_reset_continue)
    gapm_op_reset_continue                   0x010085cd   Thumb Code   148  gapm_cfg.o(i.gapm_op_reset_continue)
    i.gapm_op_setup_continue                 0x01008670   Section        0  gapm_cfg.o(i.gapm_op_setup_continue)
    gapm_op_setup_continue                   0x01008671   Thumb Code   298  gapm_cfg.o(i.gapm_op_setup_continue)
    i.gapm_operation_cleanup                 0x010087a0   Section        0  gapm.o(i.gapm_operation_cleanup)
    gapm_operation_cleanup                   0x010087a1   Thumb Code    46  gapm.o(i.gapm_operation_cleanup)
    i.gapm_per_sync_clear_fragments          0x010087d4   Section        0  gapm_per_sync.o(i.gapm_per_sync_clear_fragments)
    i.gapm_per_sync_create                   0x010087f4   Section        0  gapm_per_sync.o(i.gapm_per_sync_create)
    i.gapm_per_sync_delete                   0x01008838   Section        0  gapm_per_sync.o(i.gapm_per_sync_delete)
    gapm_per_sync_delete                     0x01008839   Thumb Code     4  gapm_per_sync.o(i.gapm_per_sync_delete)
    i.gapm_per_sync_get_activity             0x0100883c   Section        0  gapm_per_sync.o(i.gapm_per_sync_get_activity)
    gapm_per_sync_get_activity               0x0100883d   Thumb Code    80  gapm_per_sync.o(i.gapm_per_sync_get_activity)
    i.gapm_per_sync_send_adv_report_ind      0x01008894   Section        0  gapm_per_sync.o(i.gapm_per_sync_send_adv_report_ind)
    gapm_per_sync_send_adv_report_ind        0x01008895   Thumb Code   144  gapm_per_sync.o(i.gapm_per_sync_send_adv_report_ind)
    i.gapm_per_sync_start                    0x01008924   Section        0  gapm_per_sync.o(i.gapm_per_sync_start)
    gapm_per_sync_start                      0x01008925   Thumb Code   120  gapm_per_sync.o(i.gapm_per_sync_start)
    i.gapm_per_sync_stop                     0x010089a0   Section        0  gapm_per_sync.o(i.gapm_per_sync_stop)
    gapm_per_sync_stop                       0x010089a1   Thumb Code    60  gapm_per_sync.o(i.gapm_per_sync_stop)
    i.gapm_process_op                        0x010089e0   Section        0  gapm.o(i.gapm_process_op)
    i.gapm_profile_added_ind_handler         0x01008a54   Section        0  app_task.o(i.gapm_profile_added_ind_handler)
    gapm_profile_added_ind_handler           0x01008a55   Thumb Code    34  app_task.o(i.gapm_profile_added_ind_handler)
    i.gapm_profile_task_add_cmd_handler      0x01008a78   Section        0  gapm_cfg.o(i.gapm_profile_task_add_cmd_handler)
    i.gapm_reset_cmd_handler                 0x01008ad8   Section        0  gapm_cfg.o(i.gapm_reset_cmd_handler)
    i.gapm_resolv_addr_cmd_handler           0x01008b18   Section        0  gapm_smp.o(i.gapm_resolv_addr_cmd_handler)
    i.gapm_scan_actv_clean                   0x01008b50   Section        0  gapm_scan.o(i.gapm_scan_actv_clean)
    i.gapm_scan_add_to_filter                0x01008b78   Section        0  gapm_scan.o(i.gapm_scan_add_to_filter)
    gapm_scan_add_to_filter                  0x01008b79   Thumb Code   124  gapm_scan.o(i.gapm_scan_add_to_filter)
    i.gapm_scan_clear_fragments              0x01008bf4   Section        0  gapm_scan.o(i.gapm_scan_clear_fragments)
    gapm_scan_clear_fragments                0x01008bf5   Thumb Code    26  gapm_scan.o(i.gapm_scan_clear_fragments)
    i.gapm_scan_create                       0x01008c10   Section        0  gapm_scan.o(i.gapm_scan_create)
    i.gapm_scan_delete                       0x01008c80   Section        0  gapm_scan.o(i.gapm_scan_delete)
    gapm_scan_delete                         0x01008c81   Thumb Code     4  gapm_scan.o(i.gapm_scan_delete)
    i.gapm_scan_filter_packet                0x01008c84   Section        0  gapm_scan.o(i.gapm_scan_filter_packet)
    gapm_scan_filter_packet                  0x01008c85   Thumb Code   258  gapm_scan.o(i.gapm_scan_filter_packet)
    i.gapm_scan_send_adv_report_ind          0x01008d8c   Section        0  gapm_scan.o(i.gapm_scan_send_adv_report_ind)
    gapm_scan_send_adv_report_ind            0x01008d8d   Thumb Code   320  gapm_scan.o(i.gapm_scan_send_adv_report_ind)
    i.gapm_scan_send_hci_le_set_ext_scan_en_cmd 0x01008ecc   Section        0  gapm_scan.o(i.gapm_scan_send_hci_le_set_ext_scan_en_cmd)
    gapm_scan_send_hci_le_set_ext_scan_en_cmd 0x01008ecd   Thumb Code    74  gapm_scan.o(i.gapm_scan_send_hci_le_set_ext_scan_en_cmd)
    i.gapm_scan_send_hci_le_set_ext_scan_param_cmd 0x01008f1c   Section        0  gapm_scan.o(i.gapm_scan_send_hci_le_set_ext_scan_param_cmd)
    gapm_scan_send_hci_le_set_ext_scan_param_cmd 0x01008f1d   Thumb Code   156  gapm_scan.o(i.gapm_scan_send_hci_le_set_ext_scan_param_cmd)
    i.gapm_scan_start                        0x01008fb8   Section        0  gapm_scan.o(i.gapm_scan_start)
    gapm_scan_start                          0x01008fb9   Thumb Code    70  gapm_scan.o(i.gapm_scan_start)
    i.gapm_scan_stop                         0x01009004   Section        0  gapm_scan.o(i.gapm_scan_stop)
    gapm_scan_stop                           0x01009005   Thumb Code    14  gapm_scan.o(i.gapm_scan_stop)
    i.gapm_scan_store_fragment               0x01009018   Section        0  gapm_scan.o(i.gapm_scan_store_fragment)
    gapm_scan_store_fragment                 0x01009019   Thumb Code   118  gapm_scan.o(i.gapm_scan_store_fragment)
    i.gapm_send_complete_evt                 0x01009090   Section        0  gapm.o(i.gapm_send_complete_evt)
    i.gapm_send_error_evt                    0x010090d4   Section        0  gapm.o(i.gapm_send_error_evt)
    i.gapm_set_adv_data_cmd_handler          0x010090f8   Section        0  gapm_adv.o(i.gapm_set_adv_data_cmd_handler)
    i.gapm_set_channel_map_cmd_handler       0x010091e0   Section        0  gapm_cfg.o(i.gapm_set_channel_map_cmd_handler)
    i.gapm_set_dev_config_cmd_handler        0x01009238   Section        0  gapm_cfg.o(i.gapm_set_dev_config_cmd_handler)
    i.gapm_set_irk_cmd_handler               0x01009410   Section        0  gapm_cfg.o(i.gapm_set_irk_cmd_handler)
    i.gapm_set_max_mps                       0x01009448   Section        0  gapm.o(i.gapm_set_max_mps)
    i.gapm_set_max_mtu                       0x01009468   Section        0  gapm.o(i.gapm_set_max_mtu)
    i.gapm_smp_encrypt_req                   0x01009488   Section        0  gapm_smp.o(i.gapm_smp_encrypt_req)
    gapm_smp_encrypt_req                     0x01009489   Thumb Code    16  gapm_smp.o(i.gapm_smp_encrypt_req)
    i.gapm_smp_encrypt_rsp                   0x0100949c   Section        0  gapm_smp.o(i.gapm_smp_encrypt_rsp)
    gapm_smp_encrypt_rsp                     0x0100949d   Thumb Code   154  gapm_smp.o(i.gapm_smp_encrypt_rsp)
    i.gapm_smp_rand_req                      0x0100953c   Section        0  gapm_smp.o(i.gapm_smp_rand_req)
    gapm_smp_rand_req                        0x0100953d   Thumb Code     8  gapm_smp.o(i.gapm_smp_rand_req)
    i.gapm_smp_rand_rsp                      0x01009548   Section        0  gapm_smp.o(i.gapm_smp_rand_rsp)
    gapm_smp_rand_rsp                        0x01009549   Thumb Code   142  gapm_smp.o(i.gapm_smp_rand_rsp)
    i.gapm_smp_resolv_op_cont                0x010095dc   Section        0  gapm_smp.o(i.gapm_smp_resolv_op_cont)
    gapm_smp_resolv_op_cont                  0x010095dd   Thumb Code   150  gapm_smp.o(i.gapm_smp_resolv_op_cont)
    i.gapm_svc_chg_en                        0x01009678   Section        0  gapm.o(i.gapm_svc_chg_en)
    i.gapm_sync_established_ind_handler      0x01009688   Section        0  app_task.o(i.gapm_sync_established_ind_handler)
    gapm_sync_established_ind_handler        0x01009689   Thumb Code    12  app_task.o(i.gapm_sync_established_ind_handler)
    i.gapm_unknown_task_msg_handler          0x01009694   Section        0  gapm_task.o(i.gapm_unknown_task_msg_handler)
    gapm_unknown_task_msg_handler            0x01009695   Thumb Code    34  gapm_task.o(i.gapm_unknown_task_msg_handler)
    i.gapm_update_state                      0x010096b6   Section        0  gapm.o(i.gapm_update_state)
    i.gapm_use_enc_block_cmd_handler         0x010096e4   Section        0  gapm_smp.o(i.gapm_use_enc_block_cmd_handler)
    i.gapm_use_enc_block_ind_handler         0x01009724   Section        0  gapc_task.o(i.gapm_use_enc_block_ind_handler)
    gapm_use_enc_block_ind_handler           0x01009725   Thumb Code    60  gapc_task.o(i.gapm_use_enc_block_ind_handler)
    i.gatt_add_client                        0x01009760   Section        0  gatt_api.o(i.gatt_add_client)
    i.gatt_add_client_uuid                   0x0100984c   Section        0  gatt_api.o(i.gatt_add_client_uuid)
    i.gatt_add_service                       0x01009af4   Section        0  gatt_api.o(i.gatt_add_service)
    i.gatt_client_enable_ntf                 0x01009b5c   Section        0  gatt_api.o(i.gatt_client_enable_ntf)
    i.gatt_client_read                       0x01009be0   Section        0  gatt_api.o(i.gatt_client_read)
    i.gatt_client_write_cmd                  0x01009c5c   Section        0  gatt_api.o(i.gatt_client_write_cmd)
    i.gatt_clr_peer_svc                      0x01009cf4   Section        0  gatt_api.o(i.gatt_clr_peer_svc)
    gatt_clr_peer_svc                        0x01009cf5   Thumb Code    58  gatt_api.o(i.gatt_clr_peer_svc)
    i.gatt_get_free_svc_id                   0x01009d34   Section        0  gatt_api.o(i.gatt_get_free_svc_id)
    i.gatt_msg_default_handler               0x01009d60   Section        0  gatt_api.o(i.gatt_msg_default_handler)
    gatt_msg_default_handler                 0x01009d61   Thumb Code    44  gatt_api.o(i.gatt_msg_default_handler)
    i.gatt_msg_default_handler_imp           0x01009d94   Section        0  gatt_api.o(i.gatt_msg_default_handler_imp)
    gatt_msg_default_handler_imp             0x01009d95   Thumb Code  1412  gatt_api.o(i.gatt_msg_default_handler_imp)
    i.gatt_profile_task_add                  0x0100a31c   Section        0  gatt_api.o(i.gatt_profile_task_add)
    i.gatt_regist_peer_prf_info              0x0100a3c8   Section        0  gatt_api.o(i.gatt_regist_peer_prf_info)
    gatt_regist_peer_prf_info                0x0100a3c9   Thumb Code   114  gatt_api.o(i.gatt_regist_peer_prf_info)
    i.gatt_servcie_added                     0x0100a448   Section        0  gatt_api.o(i.gatt_servcie_added)
    gatt_servcie_added                       0x0100a449   Thumb Code    50  gatt_api.o(i.gatt_servcie_added)
    i.gatt_service_connection_cleanup        0x0100a484   Section        0  gatt_api.o(i.gatt_service_connection_cleanup)
    gatt_service_connection_cleanup          0x0100a485   Thumb Code    54  gatt_api.o(i.gatt_service_connection_cleanup)
    i.gatt_service_connection_created        0x0100a4c0   Section        0  gatt_api.o(i.gatt_service_connection_created)
    gatt_service_connection_created          0x0100a4c1   Thumb Code    60  gatt_api.o(i.gatt_service_connection_created)
    i.gatt_service_destroy                   0x0100a504   Section        0  gatt_api.o(i.gatt_service_destroy)
    gatt_service_destroy                     0x0100a505   Thumb Code     2  gatt_api.o(i.gatt_service_destroy)
    i.gatt_service_init                      0x0100a508   Section        0  gatt_api.o(i.gatt_service_init)
    gatt_service_init                        0x0100a509   Thumb Code   786  gatt_api.o(i.gatt_service_init)
    i.gatt_store_peer_prf_info               0x0100a854   Section        0  gatt_api.o(i.gatt_store_peer_prf_info)
    gatt_store_peer_prf_info                 0x0100a855   Thumb Code   248  gatt_api.o(i.gatt_store_peer_prf_info)
    i.gatt_write_peer_svc_to_flash           0x0100a984   Section        0  user_bond_manage.o(i.gatt_write_peer_svc_to_flash)
    i.gattc_att_info_cfm_handler             0x0100aa14   Section        0  gattc_task.o(i.gattc_att_info_cfm_handler)
    gattc_att_info_cfm_handler               0x0100aa15   Thumb Code    82  gattc_task.o(i.gattc_att_info_cfm_handler)
    i.gattc_att_info_req_ind_handler         0x0100aa6c   Section        0  gapc_task.o(i.gattc_att_info_req_ind_handler)
    gattc_att_info_req_ind_handler           0x0100aa6d   Thumb Code   102  gapc_task.o(i.gattc_att_info_req_ind_handler)
    i.gattc_att_info_req_ind_handler         0x0100aad2   Section        0  gattc_task.o(i.gattc_att_info_req_ind_handler)
    gattc_att_info_req_ind_handler           0x0100aad3   Thumb Code    80  gattc_task.o(i.gattc_att_info_req_ind_handler)
    i.gattc_cleanup                          0x0100ab24   Section        0  gattc.o(i.gattc_cleanup)
    i.gattc_cmp_evt_handler                  0x0100abc8   Section        0  gapc_task.o(i.gattc_cmp_evt_handler)
    gattc_cmp_evt_handler                    0x0100abc9   Thumb Code    62  gapc_task.o(i.gattc_cmp_evt_handler)
    i.gattc_cmp_evt_handler                  0x0100ac08   Section        0  gattc_task.o(i.gattc_cmp_evt_handler)
    gattc_cmp_evt_handler                    0x0100ac09   Thumb Code   384  gattc_task.o(i.gattc_cmp_evt_handler)
    i.gattc_con_enable                       0x0100ad8c   Section        0  gattc.o(i.gattc_con_enable)
    i.gattc_create                           0x0100ada4   Section        0  gattc.o(i.gattc_create)
    i.gattc_default_msg_handler              0x0100ae30   Section        0  gattc_task.o(i.gattc_default_msg_handler)
    gattc_default_msg_handler                0x0100ae31   Thumb Code    12  gattc_task.o(i.gattc_default_msg_handler)
    i.gattc_disc_char_desc_ind_handler       0x0100ae3c   Section        0  gattc_task.o(i.gattc_disc_char_desc_ind_handler)
    gattc_disc_char_desc_ind_handler         0x0100ae3d   Thumb Code   106  gattc_task.o(i.gattc_disc_char_desc_ind_handler)
    i.gattc_disc_char_ind_handler            0x0100aeac   Section        0  gattc_task.o(i.gattc_disc_char_ind_handler)
    gattc_disc_char_ind_handler              0x0100aead   Thumb Code   146  gattc_task.o(i.gattc_disc_char_ind_handler)
    i.gattc_disc_cmd_handler                 0x0100af44   Section        0  gattc_task.o(i.gattc_disc_cmd_handler)
    gattc_disc_cmd_handler                   0x0100af45   Thumb Code   322  gattc_task.o(i.gattc_disc_cmd_handler)
    i.gattc_disc_svc_incl_ind_handler        0x0100b090   Section        0  gattc_task.o(i.gattc_disc_svc_incl_ind_handler)
    gattc_disc_svc_incl_ind_handler          0x0100b091   Thumb Code   110  gattc_task.o(i.gattc_disc_svc_incl_ind_handler)
    i.gattc_disc_svc_ind_handler             0x0100b104   Section        0  gattc_task.o(i.gattc_disc_svc_ind_handler)
    gattc_disc_svc_ind_handler               0x0100b105   Thumb Code    66  gattc_task.o(i.gattc_disc_svc_ind_handler)
    i.gattc_event_cfm_handler                0x0100b160   Section        0  gattc_task.o(i.gattc_event_cfm_handler)
    gattc_event_cfm_handler                  0x0100b161   Thumb Code    24  gattc_task.o(i.gattc_event_cfm_handler)
    i.gattc_event_ind_handler                0x0100b178   Section        0  app_task.o(i.gattc_event_ind_handler)
    gattc_event_ind_handler                  0x0100b179   Thumb Code     4  app_task.o(i.gattc_event_ind_handler)
    i.gattc_exc_mtu_cmd_handler              0x0100b17c   Section        0  gattc_task.o(i.gattc_exc_mtu_cmd_handler)
    gattc_exc_mtu_cmd_handler                0x0100b17d   Thumb Code    68  gattc_task.o(i.gattc_exc_mtu_cmd_handler)
    i.gattc_execute_write_cmd_handler        0x0100b1c4   Section        0  gattc_task.o(i.gattc_execute_write_cmd_handler)
    gattc_execute_write_cmd_handler          0x0100b1c5   Thumb Code    42  gattc_task.o(i.gattc_execute_write_cmd_handler)
    i.gattc_get_mtu                          0x0100b1f4   Section        0  gattc.o(i.gattc_get_mtu)
    i.gattc_get_operation                    0x0100b204   Section        0  gattc.o(i.gattc_get_operation)
    i.gattc_get_operation_ptr                0x0100b220   Section        0  gattc.o(i.gattc_get_operation_ptr)
    i.gattc_get_requester                    0x0100b230   Section        0  gattc.o(i.gattc_get_requester)
    i.gattc_init                             0x0100b250   Section        0  gattc.o(i.gattc_init)
    i.gattc_operation_cleanup                0x0100b2a0   Section        0  gattc.o(i.gattc_operation_cleanup)
    gattc_operation_cleanup                  0x0100b2a1   Thumb Code   102  gattc.o(i.gattc_operation_cleanup)
    i.gattc_process_op                       0x0100b30c   Section        0  gattc_task.o(i.gattc_process_op)
    gattc_process_op                         0x0100b30d   Thumb Code   162  gattc_task.o(i.gattc_process_op)
    i.gattc_read_cfm_handler                 0x0100b3b4   Section        0  gattc_task.o(i.gattc_read_cfm_handler)
    gattc_read_cfm_handler                   0x0100b3b5   Thumb Code    64  gattc_task.o(i.gattc_read_cfm_handler)
    i.gattc_read_cmd_handler                 0x0100b3f8   Section        0  gattc_task.o(i.gattc_read_cmd_handler)
    gattc_read_cmd_handler                   0x0100b3f9   Thumb Code   292  gattc_task.o(i.gattc_read_cmd_handler)
    i.gattc_read_ind_handler                 0x0100b528   Section        0  gapc_task.o(i.gattc_read_ind_handler)
    gattc_read_ind_handler                   0x0100b529   Thumb Code   232  gapc_task.o(i.gattc_read_ind_handler)
    i.gattc_read_req_ind_handler             0x0100b610   Section        0  gapc_task.o(i.gattc_read_req_ind_handler)
    gattc_read_req_ind_handler               0x0100b611   Thumb Code   184  gapc_task.o(i.gattc_read_req_ind_handler)
    i.gattc_read_req_ind_handler             0x0100b6c8   Section        0  gattc_task.o(i.gattc_read_req_ind_handler)
    gattc_read_req_ind_handler               0x0100b6c9   Thumb Code    94  gattc_task.o(i.gattc_read_req_ind_handler)
    i.gattc_reg_to_peer_evt_cmd_handler      0x0100b728   Section        0  gattc_task.o(i.gattc_reg_to_peer_evt_cmd_handler)
    gattc_reg_to_peer_evt_cmd_handler        0x0100b729   Thumb Code   156  gattc_task.o(i.gattc_reg_to_peer_evt_cmd_handler)
    i.gattc_reschedule_operation             0x0100b7cc   Section        0  gattc.o(i.gattc_reschedule_operation)
    i.gattc_sdp_svc_disc_cmd_handler         0x0100b808   Section        0  gattc_task.o(i.gattc_sdp_svc_disc_cmd_handler)
    gattc_sdp_svc_disc_cmd_handler           0x0100b809   Thumb Code   190  gattc_task.o(i.gattc_sdp_svc_disc_cmd_handler)
    i.gattc_send_complete_evt                0x0100b8cc   Section        0  gattc.o(i.gattc_send_complete_evt)
    i.gattc_send_error_evt                   0x0100b934   Section        0  gattc.o(i.gattc_send_error_evt)
    i.gattc_send_evt_cmd_handler             0x0100b960   Section        0  gattc_task.o(i.gattc_send_evt_cmd_handler)
    gattc_send_evt_cmd_handler               0x0100b961   Thumb Code    78  gattc_task.o(i.gattc_send_evt_cmd_handler)
    i.gattc_send_svc_changed_cmd_handler     0x0100b9b8   Section        0  gattc_task.o(i.gattc_send_svc_changed_cmd_handler)
    gattc_send_svc_changed_cmd_handler       0x0100b9b9   Thumb Code   178  gattc_task.o(i.gattc_send_svc_changed_cmd_handler)
    i.gattc_set_mtu                          0x0100ba6c   Section        0  gattc.o(i.gattc_set_mtu)
    i.gattc_set_operation_ptr                0x0100babc   Section        0  gattc.o(i.gattc_set_operation_ptr)
    i.gattc_timeout_handler                  0x0100bacc   Section        0  gattc_task.o(i.gattc_timeout_handler)
    gattc_timeout_handler                    0x0100bacd   Thumb Code   104  gattc_task.o(i.gattc_timeout_handler)
    i.gattc_update_state                     0x0100bb38   Section        0  gattc.o(i.gattc_update_state)
    i.gattc_write_cfm_handler                0x0100bb60   Section        0  gattc_task.o(i.gattc_write_cfm_handler)
    gattc_write_cfm_handler                  0x0100bb61   Thumb Code   132  gattc_task.o(i.gattc_write_cfm_handler)
    i.gattc_write_cmd_handler                0x0100bbe8   Section        0  gattc_task.o(i.gattc_write_cmd_handler)
    gattc_write_cmd_handler                  0x0100bbe9   Thumb Code   398  gattc_task.o(i.gattc_write_cmd_handler)
    i.gattc_write_req_ind_handler            0x0100bd7c   Section        0  gapc_task.o(i.gattc_write_req_ind_handler)
    gattc_write_req_ind_handler              0x0100bd7d   Thumb Code   224  gapc_task.o(i.gattc_write_req_ind_handler)
    i.gattc_write_req_ind_handler            0x0100be5c   Section        0  gattc_task.o(i.gattc_write_req_ind_handler)
    gattc_write_req_ind_handler              0x0100be5d   Thumb Code   114  gattc_task.o(i.gattc_write_req_ind_handler)
    i.gattm_cleanup                          0x0100bece   Section        0  gattm.o(i.gattm_cleanup)
    i.gattm_create                           0x0100bed4   Section        0  gattm.o(i.gattm_create)
    i.gattm_default_msg_handler              0x0100bed8   Section        0  gattm_task.o(i.gattm_default_msg_handler)
    gattm_default_msg_handler                0x0100bed9   Thumb Code     4  gattm_task.o(i.gattm_default_msg_handler)
    i.gattm_init                             0x0100bedc   Section        0  gattm.o(i.gattm_init)
    i.gattm_init_attr                        0x0100bf00   Section        0  gattm.o(i.gattm_init_attr)
    i.gattm_svc_get_start_hdl                0x0100bf64   Section        0  gattm.o(i.gattm_svc_get_start_hdl)
    i.get_active_service_id                  0x0100bf70   Section        0  gatt_api.o(i.get_active_service_id)
    get_active_service_id                    0x0100bf71   Thumb Code    48  gatt_api.o(i.get_active_service_id)
    i.get_gatt_default_itf                   0x0100bfa4   Section        0  gatt_api.o(i.get_gatt_default_itf)
    i.get_stored_info_req                    0x0100bfac   Section        0  app_proj_event.o(i.get_stored_info_req)
    i.get_valid_tim_evt_id                   0x0100bfc8   Section        0  os_timer.o(i.get_valid_tim_evt_id)
    get_valid_tim_evt_id                     0x0100bfc9   Thumb Code    70  os_timer.o(i.get_valid_tim_evt_id)
    i.hci_acl_data_handler                   0x0100c014   Section        0  l2cc_task.o(i.hci_acl_data_handler)
    hci_acl_data_handler                     0x0100c015   Thumb Code   178  l2cc_task.o(i.hci_acl_data_handler)
    i.hci_auth_payl_to_exp_evt_handler       0x0100c0d4   Section        0  gapc_hci.o(i.hci_auth_payl_to_exp_evt_handler)
    hci_auth_payl_to_exp_evt_handler         0x0100c0d5   Thumb Code    36  gapc_hci.o(i.hci_auth_payl_to_exp_evt_handler)
    i.hci_basic_cmd_cmp_evt_cfg_handler      0x0100c0f8   Section        0  gapm_cfg.o(i.hci_basic_cmd_cmp_evt_cfg_handler)
    i.hci_basic_cmd_cmp_evt_rl_cfg_handler   0x0100c19c   Section        0  gapm_cfg.o(i.hci_basic_cmd_cmp_evt_rl_cfg_handler)
    i.hci_cmd_stat_event_handler             0x0100c1e0   Section        0  gapc_hci.o(i.hci_cmd_stat_event_handler)
    hci_cmd_stat_event_handler               0x0100c1e1   Thumb Code   240  gapc_hci.o(i.hci_cmd_stat_event_handler)
    i.hci_disc_cmp_evt_handler               0x0100c2d4   Section        0  gapc_hci.o(i.hci_disc_cmp_evt_handler)
    hci_disc_cmp_evt_handler                 0x0100c2d5   Thumb Code    88  gapc_hci.o(i.hci_disc_cmp_evt_handler)
    i.hci_enc_chg_evt_handler                0x0100c330   Section        0  gapc_hci.o(i.hci_enc_chg_evt_handler)
    hci_enc_chg_evt_handler                  0x0100c331   Thumb Code    36  gapc_hci.o(i.hci_enc_chg_evt_handler)
    i.hci_enc_key_refr_evt_handler           0x0100c358   Section        0  gapc_hci.o(i.hci_enc_key_refr_evt_handler)
    hci_enc_key_refr_evt_handler             0x0100c359   Thumb Code    36  gapc_hci.o(i.hci_enc_key_refr_evt_handler)
    i.hci_le_adv_set_term_evt_handler        0x0100c380   Section        0  gapm_adv.o(i.hci_le_adv_set_term_evt_handler)
    i.hci_le_ch_sel_algo_evt_handler         0x0100c3f8   Section        0  gapc_hci.o(i.hci_le_ch_sel_algo_evt_handler)
    i.hci_le_cmd_cmp_evt_addr_handler        0x0100c420   Section        0  gapm_addr.o(i.hci_le_cmd_cmp_evt_addr_handler)
    i.hci_le_cmd_cmp_evt_adv_handler         0x0100c458   Section        0  gapm_adv.o(i.hci_le_cmd_cmp_evt_adv_handler)
    i.hci_le_cmd_cmp_evt_creating_handler    0x0100c4fc   Section        0  gapm_adv.o(i.hci_le_cmd_cmp_evt_creating_handler)
    hci_le_cmd_cmp_evt_creating_handler      0x0100c4fd   Thumb Code   202  gapm_adv.o(i.hci_le_cmd_cmp_evt_creating_handler)
    i.hci_le_cmd_cmp_evt_init_handler        0x0100c5cc   Section        0  gapm_init.o(i.hci_le_cmd_cmp_evt_init_handler)
    i.hci_le_cmd_cmp_evt_list_handler        0x0100c64c   Section        0  gapm_list.o(i.hci_le_cmd_cmp_evt_list_handler)
    i.hci_le_cmd_cmp_evt_per_sync_handler    0x0100c6ec   Section        0  gapm_per_sync.o(i.hci_le_cmd_cmp_evt_per_sync_handler)
    i.hci_le_cmd_cmp_evt_scan_handler        0x0100c720   Section        0  gapm_scan.o(i.hci_le_cmd_cmp_evt_scan_handler)
    i.hci_le_cmd_cmp_evt_starting_handler    0x0100c788   Section        0  gapm_adv.o(i.hci_le_cmd_cmp_evt_starting_handler)
    hci_le_cmd_cmp_evt_starting_handler      0x0100c789   Thumb Code   126  gapm_adv.o(i.hci_le_cmd_cmp_evt_starting_handler)
    i.hci_le_con_update_cmp_evt_handler      0x0100c808   Section        0  gapc_hci.o(i.hci_le_con_update_cmp_evt_handler)
    hci_le_con_update_cmp_evt_handler        0x0100c809   Thumb Code   138  gapc_hci.o(i.hci_le_con_update_cmp_evt_handler)
    i.hci_le_data_len_chg_evt_handler        0x0100c898   Section        0  gapc_hci.o(i.hci_le_data_len_chg_evt_handler)
    hci_le_data_len_chg_evt_handler          0x0100c899   Thumb Code    60  gapc_hci.o(i.hci_le_data_len_chg_evt_handler)
    i.hci_le_enh_con_cmp_evt_handler         0x0100c8d4   Section        0  gapm_actv.o(i.hci_le_enh_con_cmp_evt_handler)
    i.hci_le_ext_adv_report_evt_handler      0x0100c8fc   Section        0  gapm_scan.o(i.hci_le_ext_adv_report_evt_handler)
    i.hci_le_gen_dhkey_stat_evt_handler      0x0100c9c0   Section        0  gapm_smp.o(i.hci_le_gen_dhkey_stat_evt_handler)
    i.hci_le_generate_dhkey_cmp_evt_handler  0x0100c9e6   Section        0  gapm_smp.o(i.hci_le_generate_dhkey_cmp_evt_handler)
    i.hci_le_ltk_request_evt_handler         0x0100ca3c   Section        0  gapc_hci.o(i.hci_le_ltk_request_evt_handler)
    hci_le_ltk_request_evt_handler           0x0100ca3d   Thumb Code   118  gapc_hci.o(i.hci_le_ltk_request_evt_handler)
    i.hci_le_per_adv_report_evt_handler      0x0100cabc   Section        0  gapm_per_sync.o(i.hci_le_per_adv_report_evt_handler)
    i.hci_le_per_adv_sync_est_evt_handler    0x0100cb0c   Section        0  gapm_per_sync.o(i.hci_le_per_adv_sync_est_evt_handler)
    i.hci_le_per_adv_sync_lost_evt_handler   0x0100cb72   Section        0  gapm_per_sync.o(i.hci_le_per_adv_sync_lost_evt_handler)
    i.hci_le_phy_upd_cmp_evt_handler         0x0100cb90   Section        0  gapc_hci.o(i.hci_le_phy_upd_cmp_evt_handler)
    hci_le_phy_upd_cmp_evt_handler           0x0100cb91   Thumb Code   100  gapc_hci.o(i.hci_le_phy_upd_cmp_evt_handler)
    i.hci_le_rd_adv_chnl_tx_pw_cmd_cmp_evt_handler 0x0100cbf8   Section        0  gapm_cfg.o(i.hci_le_rd_adv_chnl_tx_pw_cmd_cmp_evt_handler)
    i.hci_le_rd_buff_size_cmd_cmp_evt_handler 0x0100cc3c   Section        0  gapm_cfg.o(i.hci_le_rd_buff_size_cmd_cmp_evt_handler)
    i.hci_le_rd_local_p256_public_key_cmp_evt_handler 0x0100cc6c   Section        0  gapm_cfg.o(i.hci_le_rd_local_p256_public_key_cmp_evt_handler)
    i.hci_le_rd_max_data_len_cmd_cmp_evt_handler 0x0100ccfc   Section        0  gapm_cfg.o(i.hci_le_rd_max_data_len_cmd_cmp_evt_handler)
    i.hci_le_rd_nb_supp_adv_sets_cmd_cmp_evt_handler 0x0100cd40   Section        0  gapm_cfg.o(i.hci_le_rd_nb_supp_adv_sets_cmd_cmp_evt_handler)
    i.hci_le_rd_pal_size_cmd_cmp_evt_handler 0x0100cda8   Section        0  gapm_list.o(i.hci_le_rd_pal_size_cmd_cmp_evt_handler)
    i.hci_le_rd_phy_cmd_cmp_evt_handler      0x0100cde4   Section        0  gapc_hci.o(i.hci_le_rd_phy_cmd_cmp_evt_handler)
    hci_le_rd_phy_cmd_cmp_evt_handler        0x0100cde5   Thumb Code    88  gapc_hci.o(i.hci_le_rd_phy_cmd_cmp_evt_handler)
    i.hci_le_rd_ral_addr_cmd_cmp_evt_handler 0x0100ce40   Section        0  gapm_list.o(i.hci_le_rd_ral_addr_cmd_cmp_evt_handler)
    i.hci_le_rd_ral_size_cmd_cmp_evt_handler 0x0100cea6   Section        0  gapm_list.o(i.hci_le_rd_ral_size_cmd_cmp_evt_handler)
    i.hci_le_rd_rem_feats_cmp_evt_handler    0x0100cee0   Section        0  gapc_hci.o(i.hci_le_rd_rem_feats_cmp_evt_handler)
    hci_le_rd_rem_feats_cmp_evt_handler      0x0100cee1   Thumb Code   158  gapc_hci.o(i.hci_le_rd_rem_feats_cmp_evt_handler)
    i.hci_le_rd_rf_path_comp_cmd_cmp_evt_handler 0x0100cf84   Section        0  gapm_cfg.o(i.hci_le_rd_rf_path_comp_cmd_cmp_evt_handler)
    i.hci_le_rd_suggted_dft_data_len_cmd_cmp_evt_handler 0x0100cfcc   Section        0  gapm_cfg.o(i.hci_le_rd_suggted_dft_data_len_cmd_cmp_evt_handler)
    i.hci_le_rd_tx_pwr_cmd_cmp_evt_handler   0x0100d006   Section        0  gapm_cfg.o(i.hci_le_rd_tx_pwr_cmd_cmp_evt_handler)
    i.hci_le_rd_wlst_size_cmd_cmp_evt_handler 0x0100d04e   Section        0  gapm_list.o(i.hci_le_rd_wlst_size_cmd_cmp_evt_handler)
    i.hci_le_read_max_adv_data_len_cmd_cmp_evt_handler 0x0100d088   Section        0  gapm_cfg.o(i.hci_le_read_max_adv_data_len_cmd_cmp_evt_handler)
    i.hci_le_rem_con_param_req_evt_handler   0x0100d0f0   Section        0  gapc_hci.o(i.hci_le_rem_con_param_req_evt_handler)
    hci_le_rem_con_param_req_evt_handler     0x0100d0f1   Thumb Code    76  gapc_hci.o(i.hci_le_rem_con_param_req_evt_handler)
    i.hci_le_scan_req_rcvd_evt_handler       0x0100d140   Section        0  gapm_adv.o(i.hci_le_scan_req_rcvd_evt_handler)
    i.hci_le_scan_timeout_evt_handler        0x0100d1a0   Section        0  gapm_scan.o(i.hci_le_scan_timeout_evt_handler)
    i.hci_le_set_data_len_cmd_cmp_evt_handler 0x0100d1c8   Section        0  gapc_hci.o(i.hci_le_set_data_len_cmd_cmp_evt_handler)
    hci_le_set_data_len_cmd_cmp_evt_handler  0x0100d1c9   Thumb Code    46  gapc_hci.o(i.hci_le_set_data_len_cmd_cmp_evt_handler)
    i.hci_le_start_enc_stat_evt_handler      0x0100d1fc   Section        0  gapc_hci.o(i.hci_le_start_enc_stat_evt_handler)
    hci_le_start_enc_stat_evt_handler        0x0100d1fd   Thumb Code    36  gapc_hci.o(i.hci_le_start_enc_stat_evt_handler)
    i.hci_nb_cmp_pkts_evt_handler            0x0100d220   Section        0  l2cc_task.o(i.hci_nb_cmp_pkts_evt_handler)
    hci_nb_cmp_pkts_evt_handler              0x0100d221   Thumb Code    52  l2cc_task.o(i.hci_nb_cmp_pkts_evt_handler)
    i.hci_rd_auth_payl_to_cmd_cmp_evt_handler 0x0100d258   Section        0  gapc_hci.o(i.hci_rd_auth_payl_to_cmd_cmp_evt_handler)
    hci_rd_auth_payl_to_cmd_cmp_evt_handler  0x0100d259   Thumb Code    72  gapc_hci.o(i.hci_rd_auth_payl_to_cmd_cmp_evt_handler)
    i.hci_rd_bd_addr_cmd_cmp_evt_handler     0x0100d2a0   Section        0  gapm_cfg.o(i.hci_rd_bd_addr_cmd_cmp_evt_handler)
    i.hci_rd_buff_size_cmd_cmp_evt_handler   0x0100d2e4   Section        0  gapm_cfg.o(i.hci_rd_buff_size_cmd_cmp_evt_handler)
    i.hci_rd_chnl_map_cmd_cmp_evt_handler    0x0100d314   Section        0  gapc_hci.o(i.hci_rd_chnl_map_cmd_cmp_evt_handler)
    hci_rd_chnl_map_cmd_cmp_evt_handler      0x0100d315   Thumb Code    96  gapc_hci.o(i.hci_rd_chnl_map_cmd_cmp_evt_handler)
    i.hci_rd_local_ver_info_cmd_cmp_evt_handler 0x0100d374   Section        0  gapm_cfg.o(i.hci_rd_local_ver_info_cmd_cmp_evt_handler)
    i.hci_rd_rem_ver_info_cmp_evt_handler    0x0100d3dc   Section        0  gapc_hci.o(i.hci_rd_rem_ver_info_cmp_evt_handler)
    hci_rd_rem_ver_info_cmp_evt_handler      0x0100d3dd   Thumb Code   130  gapc_hci.o(i.hci_rd_rem_ver_info_cmp_evt_handler)
    i.hci_rd_rssi_cmd_cmp_evt_handler        0x0100d464   Section        0  gapc_hci.o(i.hci_rd_rssi_cmd_cmp_evt_handler)
    hci_rd_rssi_cmd_cmp_evt_handler          0x0100d465   Thumb Code    92  gapc_hci.o(i.hci_rd_rssi_cmd_cmp_evt_handler)
    i.hci_test_end_cmd_cmp_evt_handler       0x0100d4c0   Section        0  gapm_cfg.o(i.hci_test_end_cmd_cmp_evt_handler)
    i.hci_vs_set_pref_slave_latency_cmd_cmp_evt_handler 0x0100d4fc   Section        0  gapc_hci.o(i.hci_vs_set_pref_slave_latency_cmd_cmp_evt_handler)
    hci_vs_set_pref_slave_latency_cmd_cmp_evt_handler 0x0100d4fd   Thumb Code    46  gapc_hci.o(i.hci_vs_set_pref_slave_latency_cmd_cmp_evt_handler)
    i.hci_wr_auth_payl_to_cmd_cmp_evt_handler 0x0100d530   Section        0  gapc_hci.o(i.hci_wr_auth_payl_to_cmd_cmp_evt_handler)
    hci_wr_auth_payl_to_cmd_cmp_evt_handler  0x0100d531   Thumb Code    38  gapc_hci.o(i.hci_wr_auth_payl_to_cmd_cmp_evt_handler)
    i.initial_static_memory                  0x0100d558   Section        0  jump_table.o(i.initial_static_memory)
    i.jump_table_get_static_keys             0x0100d63c   Section        0  jump_table.o(i.jump_table_get_static_keys)
    i.jump_table_memmory_init                0x0100d6fc   Section        0  jump_table.o(i.jump_table_memmory_init)
    i.jump_table_param_get                   0x0100d750   Section        0  jump_table.o(i.jump_table_param_get)
    jump_table_param_get                     0x0100d751   Thumb Code    68  jump_table.o(i.jump_table_param_get)
    i.jump_table_param_set                   0x0100d798   Section        0  jump_table.o(i.jump_table_param_set)
    jump_table_param_set                     0x0100d799   Thumb Code    50  jump_table.o(i.jump_table_param_set)
    i.jump_table_set_static_keys             0x0100d7d0   Section        0  jump_table.o(i.jump_table_set_static_keys)
    i.jump_table_set_static_keys_store_offset 0x0100d870   Section        0  jump_table.o(i.jump_table_set_static_keys_store_offset)
    i.l2c_code_conn_param_upd_req_handler    0x0100d87c   Section        0  gapc_sig.o(i.l2c_code_conn_param_upd_req_handler)
    l2c_code_conn_param_upd_req_handler      0x0100d87d   Thumb Code    98  gapc_sig.o(i.l2c_code_conn_param_upd_req_handler)
    i.l2c_code_conn_param_upd_req_handler    0x0100d8e4   Section        0  l2cc_sig.o(i.l2c_code_conn_param_upd_req_handler)
    l2c_code_conn_param_upd_req_handler      0x0100d8e5   Thumb Code    60  l2cc_sig.o(i.l2c_code_conn_param_upd_req_handler)
    i.l2c_code_conn_param_upd_resp_handler   0x0100d920   Section        0  gapc_sig.o(i.l2c_code_conn_param_upd_resp_handler)
    l2c_code_conn_param_upd_resp_handler     0x0100d921   Thumb Code    68  gapc_sig.o(i.l2c_code_conn_param_upd_resp_handler)
    i.l2c_code_conn_param_upd_resp_handler   0x0100d964   Section        0  l2cc_sig.o(i.l2c_code_conn_param_upd_resp_handler)
    l2c_code_conn_param_upd_resp_handler     0x0100d965   Thumb Code    58  l2cc_sig.o(i.l2c_code_conn_param_upd_resp_handler)
    i.l2c_code_reject_handler                0x0100d99e   Section        0  gapc_sig.o(i.l2c_code_reject_handler)
    l2c_code_reject_handler                  0x0100d99f   Thumb Code    80  gapc_sig.o(i.l2c_code_reject_handler)
    i.l2c_code_reject_handler                0x0100d9ee   Section        0  l2cc_sig.o(i.l2c_code_reject_handler)
    l2c_code_reject_handler                  0x0100d9ef   Thumb Code    28  l2cc_sig.o(i.l2c_code_reject_handler)
    i.l2cc_cleanup                           0x0100da0c   Section        0  l2cc.o(i.l2cc_cleanup)
    i.l2cc_cmp_evt_handler                   0x0100dabc   Section        0  gapc_task.o(i.l2cc_cmp_evt_handler)
    l2cc_cmp_evt_handler                     0x0100dabd   Thumb Code    60  gapc_task.o(i.l2cc_cmp_evt_handler)
    i.l2cc_cmp_evt_handler                   0x0100daf8   Section        0  gattc_task.o(i.l2cc_cmp_evt_handler)
    l2cc_cmp_evt_handler                     0x0100daf9   Thumb Code    70  gattc_task.o(i.l2cc_cmp_evt_handler)
    i.l2cc_create                            0x0100db40   Section        0  l2cc.o(i.l2cc_create)
    i.l2cc_data_send                         0x0100db8c   Section        0  l2cc.o(i.l2cc_data_send)
    i.l2cc_dbg_pdu_pack                      0x0100dd04   Section        0  l2cc_pdu.o(i.l2cc_dbg_pdu_pack)
    i.l2cc_dbg_pdu_send_cmd_handler          0x0100dd54   Section        0  l2cc_task.o(i.l2cc_dbg_pdu_send_cmd_handler)
    l2cc_dbg_pdu_send_cmd_handler            0x0100dd55   Thumb Code   106  l2cc_task.o(i.l2cc_dbg_pdu_send_cmd_handler)
    i.l2cc_default_msg_handler               0x0100ddc4   Section        0  l2cc_task.o(i.l2cc_default_msg_handler)
    l2cc_default_msg_handler                 0x0100ddc5   Thumb Code     4  l2cc_task.o(i.l2cc_default_msg_handler)
    i.l2cc_init                              0x0100ddc8   Section        0  l2cc.o(i.l2cc_init)
    i.l2cc_lecb_sdu_send_cmd_handler         0x0100de18   Section        0  l2cc_task.o(i.l2cc_lecb_sdu_send_cmd_handler)
    l2cc_lecb_sdu_send_cmd_handler           0x0100de19   Thumb Code    62  l2cc_task.o(i.l2cc_lecb_sdu_send_cmd_handler)
    i.l2cc_op_complete                       0x0100de58   Section        0  l2cc.o(i.l2cc_op_complete)
    i.l2cc_pdu_alloc                         0x0100deac   Section        0  l2cc_task.o(i.l2cc_pdu_alloc)
    i.l2cc_pdu_header_check                  0x0100ded8   Section        0  l2cc_pdu.o(i.l2cc_pdu_header_check)
    i.l2cc_pdu_pack                          0x0100e01c   Section        0  l2cc_pdu.o(i.l2cc_pdu_pack)
    i.l2cc_pdu_recv_ind_handler              0x0100e2b0   Section        0  gapc_task.o(i.l2cc_pdu_recv_ind_handler)
    l2cc_pdu_recv_ind_handler                0x0100e2b1   Thumb Code   104  gapc_task.o(i.l2cc_pdu_recv_ind_handler)
    i.l2cc_pdu_recv_ind_handler              0x0100e318   Section        0  gattc_task.o(i.l2cc_pdu_recv_ind_handler)
    l2cc_pdu_recv_ind_handler                0x0100e319   Thumb Code   114  gattc_task.o(i.l2cc_pdu_recv_ind_handler)
    i.l2cc_pdu_recv_ind_handler              0x0100e38a   Section        0  l2cc_task.o(i.l2cc_pdu_recv_ind_handler)
    l2cc_pdu_recv_ind_handler                0x0100e38b   Thumb Code    98  l2cc_task.o(i.l2cc_pdu_recv_ind_handler)
    i.l2cc_pdu_rx_init                       0x0100e3ec   Section        0  l2cc_pdu.o(i.l2cc_pdu_rx_init)
    i.l2cc_pdu_send                          0x0100e46c   Section        0  l2cc_task.o(i.l2cc_pdu_send)
    i.l2cc_pdu_send_cmd_handler              0x0100e474   Section        0  l2cc_task.o(i.l2cc_pdu_send_cmd_handler)
    l2cc_pdu_send_cmd_handler                0x0100e475   Thumb Code    90  l2cc_task.o(i.l2cc_pdu_send_cmd_handler)
    i.l2cc_pdu_unpack                        0x0100e4d4   Section        0  l2cc_pdu.o(i.l2cc_pdu_unpack)
    i.l2cc_send_cmp_evt                      0x0100e76c   Section        0  l2cc.o(i.l2cc_send_cmp_evt)
    i.l2cc_sig_pdu_recv_handler              0x0100e79c   Section        0  l2cc_sig.o(i.l2cc_sig_pdu_recv_handler)
    i.l2cc_sig_send_cmd_reject               0x0100e7e8   Section        0  l2cc_sig.o(i.l2cc_sig_send_cmd_reject)
    i.l2cc_update_state                      0x0100e844   Section        0  l2cc.o(i.l2cc_update_state)
    i.l2cm_cleanup                           0x0100e86c   Section        0  l2cm.o(i.l2cm_cleanup)
    i.l2cm_create                            0x0100e894   Section        0  l2cm.o(i.l2cm_create)
    i.l2cm_get_nb_buffer_available           0x0100e898   Section        0  l2cm.o(i.l2cm_get_nb_buffer_available)
    i.l2cm_init                              0x0100e8a4   Section        0  l2cm.o(i.l2cm_init)
    i.l2cm_l2cap_tx_handler                  0x0100e8d4   Section        0  l2cm.o(i.l2cm_l2cap_tx_handler)
    l2cm_l2cap_tx_handler                    0x0100e8d5   Thumb Code    88  l2cm.o(i.l2cm_l2cap_tx_handler)
    i.l2cm_set_link_layer_buff_size          0x0100e934   Section        0  l2cm.o(i.l2cm_set_link_layer_buff_size)
    i.l2cm_tx_status                         0x0100e944   Section        0  l2cm.o(i.l2cm_tx_status)
    i.llc_patch_1                            0x0100e970   Section        0  patch_rf.o(i.llc_patch_1)
    i.mesh_set_runtime                       0x0100ecfc   Section        0  mesh_api.o(i.mesh_set_runtime)
    i.mr_central_msg_handler                 0x0100ed48   Section        0  ble_multi_role.o(i.mr_central_msg_handler)
    mr_central_msg_handler                   0x0100ed49   Thumb Code   238  ble_multi_role.o(i.mr_central_msg_handler)
    i.mr_central_start_scan                  0x0100ee64   Section        0  ble_multi_role.o(i.mr_central_start_scan)
    mr_central_start_scan                    0x0100ee65   Thumb Code    42  ble_multi_role.o(i.mr_central_start_scan)
    i.mr_start_adv                           0x0100eea4   Section        0  ble_multi_role.o(i.mr_start_adv)
    mr_start_adv                             0x0100eea5   Thumb Code    78  ble_multi_role.o(i.mr_start_adv)
    i.multi_role_init                        0x0100ef10   Section        0  ble_multi_role.o(i.multi_role_init)
    i.os_default_task_func                   0x0100efec   Section        0  os_task.o(i.os_default_task_func)
    os_default_task_func                     0x0100efed   Thumb Code    44  os_task.o(i.os_default_task_func)
    i.os_get_free_task_type                  0x0100f01c   Section        0  os_task.o(i.os_get_free_task_type)
    i.os_msg_post                            0x0100f03c   Section        0  os_msg_q.o(i.os_msg_post)
    i.os_task_create                         0x0100f09c   Section        0  os_task.o(i.os_task_create)
    i.os_task_create_x                       0x0100f0a4   Section        0  os_task.o(i.os_task_create_x)
    i.os_timer_start                         0x0100f11c   Section        0  os_timer.o(i.os_timer_start)
    i.os_timer_stop                          0x0100f198   Section        0  os_timer.o(i.os_timer_stop)
    i.os_zalloc                              0x0100f214   Section        0  os_mem.o(i.os_zalloc)
    i.platform_reset_patch                   0x0100f22c   Section        0  sys_utils.o(i.platform_reset_patch)
    i.pmu_bg_trim                            0x0100f268   Section        0  driver_pmu.o(i.pmu_bg_trim)
    i.pmu_enable_irq                         0x0100f320   Section        0  driver_pmu.o(i.pmu_enable_irq)
    i.pmu_qdec_get_cnt                       0x0100f39c   Section        0  driver_pmu_qdec.o(i.pmu_qdec_get_cnt)
    i.pmu_set_sys_power_mode                 0x0100f3b4   Section        0  driver_pmu.o(i.pmu_set_sys_power_mode)
    i.pmu_sub_init                           0x0100f3e6   Section        0  driver_pmu.o(i.pmu_sub_init)
    i.prf_add_profile                        0x0100f6f0   Section        0  prf.o(i.prf_add_profile)
    i.prf_cleanup                            0x0100f7b0   Section        0  prf.o(i.prf_cleanup)
    i.prf_create                             0x0100f804   Section        0  prf.o(i.prf_create)
    i.prf_extract_svc_info_uuid_128          0x0100f858   Section        0  prf_utils.o(i.prf_extract_svc_info_uuid_128)
    i.prf_get_task_from_id                   0x0100f9f8   Section        0  prf.o(i.prf_get_task_from_id)
    i.prf_init                               0x0100fa44   Section        0  prf.o(i.prf_init)
    i.prf_itf_get_imp                        0x0100fb40   Section        0  app_prf.o(i.prf_itf_get_imp)
    i.rf_force_agc_enable                    0x0100fb68   Section        0  patch_rf.o(i.rf_force_agc_enable)
    rf_force_agc_enable                      0x0100fb69   Thumb Code     2  patch_rf.o(i.rf_force_agc_enable)
    i.rwble_hl_init_imp                      0x0100fb6a   Section        0  rwble_hl.o(i.rwble_hl_init_imp)
    i.rwble_hl_reset                         0x0100fb88   Section        0  rwble_hl.o(i.rwble_hl_reset)
    i.smpc_ShiftLeft1Bit16ByteNum            0x0100fba6   Section        0  smpc_crypto.o(i.smpc_ShiftLeft1Bit16ByteNum)
    i.smpc_XOR_16_Byte_Array                 0x0100fbca   Section        0  smpc_crypto.o(i.smpc_XOR_16_Byte_Array)
    i.smpc_aes_cmac_complete                 0x0100fbe0   Section        0  smpc_crypto.o(i.smpc_aes_cmac_complete)
    i.smpc_aes_cmac_continue                 0x0100fc28   Section        0  smpc_crypto.o(i.smpc_aes_cmac_continue)
    i.smpc_aes_cmac_init                     0x0100fd78   Section        0  smpc_crypto.o(i.smpc_aes_cmac_init)
    i.smpc_calc_confirm_cont                 0x0100fdc4   Section        0  smpc_api.o(i.smpc_calc_confirm_cont)
    i.smpc_calc_subkeys                      0x01010314   Section        0  smpc.o(i.smpc_calc_subkeys)
    i.smpc_check_key_distrib                 0x01010398   Section        0  smpc.o(i.smpc_check_key_distrib)
    i.smpc_check_max_key_size                0x01010418   Section        0  smpc.o(i.smpc_check_max_key_size)
    i.smpc_check_pairing_feat                0x01010444   Section        0  smpc.o(i.smpc_check_pairing_feat)
    i.smpc_check_param                       0x01010468   Section        0  smpc_util.o(i.smpc_check_param)
    i.smpc_check_repeated_attempts           0x010104ec   Section        0  smpc.o(i.smpc_check_repeated_attempts)
    i.smpc_clear_timeout_timer               0x01010550   Section        0  smpc.o(i.smpc_clear_timeout_timer)
    i.smpc_confirm_gen_rand                  0x01010584   Section        0  smpc_api.o(i.smpc_confirm_gen_rand)
    i.smpc_construcpublic_key_t_pdu          0x010107cc   Section        0  smpc_util.o(i.smpc_construcpublic_key_t_pdu)
    smpc_construcpublic_key_t_pdu            0x010107cd   Thumb Code    30  smpc_util.o(i.smpc_construcpublic_key_t_pdu)
    i.smpc_construct_dhkey_check_pdu         0x010107ea   Section        0  smpc_util.o(i.smpc_construct_dhkey_check_pdu)
    smpc_construct_dhkey_check_pdu           0x010107eb   Thumb Code     8  smpc_util.o(i.smpc_construct_dhkey_check_pdu)
    i.smpc_construct_enc_info_pdu            0x010107f2   Section        0  smpc_util.o(i.smpc_construct_enc_info_pdu)
    smpc_construct_enc_info_pdu              0x010107f3   Thumb Code     8  smpc_util.o(i.smpc_construct_enc_info_pdu)
    i.smpc_construct_id_addr_info_pdu        0x010107fa   Section        0  smpc_util.o(i.smpc_construct_id_addr_info_pdu)
    smpc_construct_id_addr_info_pdu          0x010107fb   Thumb Code    30  smpc_util.o(i.smpc_construct_id_addr_info_pdu)
    i.smpc_construct_id_info_pdu             0x01010818   Section        0  smpc_util.o(i.smpc_construct_id_info_pdu)
    smpc_construct_id_info_pdu               0x01010819   Thumb Code     8  smpc_util.o(i.smpc_construct_id_info_pdu)
    i.smpc_construct_keypress_notification_pdu 0x01010820   Section        0  smpc_util.o(i.smpc_construct_keypress_notification_pdu)
    smpc_construct_keypress_notification_pdu 0x01010821   Thumb Code     6  smpc_util.o(i.smpc_construct_keypress_notification_pdu)
    i.smpc_construct_mst_id_pdu              0x01010826   Section        0  smpc_util.o(i.smpc_construct_mst_id_pdu)
    smpc_construct_mst_id_pdu                0x01010827   Thumb Code    18  smpc_util.o(i.smpc_construct_mst_id_pdu)
    i.smpc_construct_pair_cfm_pdu            0x01010838   Section        0  smpc_util.o(i.smpc_construct_pair_cfm_pdu)
    smpc_construct_pair_cfm_pdu              0x01010839   Thumb Code     8  smpc_util.o(i.smpc_construct_pair_cfm_pdu)
    i.smpc_construct_pair_fail_pdu           0x01010840   Section        0  smpc_util.o(i.smpc_construct_pair_fail_pdu)
    smpc_construct_pair_fail_pdu             0x01010841   Thumb Code     6  smpc_util.o(i.smpc_construct_pair_fail_pdu)
    i.smpc_construct_pair_rand_pdu           0x01010846   Section        0  smpc_util.o(i.smpc_construct_pair_rand_pdu)
    smpc_construct_pair_rand_pdu             0x01010847   Thumb Code     8  smpc_util.o(i.smpc_construct_pair_rand_pdu)
    i.smpc_construct_pair_req_pdu            0x0101084e   Section        0  smpc_util.o(i.smpc_construct_pair_req_pdu)
    smpc_construct_pair_req_pdu              0x0101084f   Thumb Code    12  smpc_util.o(i.smpc_construct_pair_req_pdu)
    i.smpc_construct_pair_rsp_pdu            0x0101085a   Section        0  smpc_util.o(i.smpc_construct_pair_rsp_pdu)
    smpc_construct_pair_rsp_pdu              0x0101085b   Thumb Code    12  smpc_util.o(i.smpc_construct_pair_rsp_pdu)
    i.smpc_construct_sec_req_pdu             0x01010866   Section        0  smpc_util.o(i.smpc_construct_sec_req_pdu)
    smpc_construct_sec_req_pdu               0x01010867   Thumb Code     6  smpc_util.o(i.smpc_construct_sec_req_pdu)
    i.smpc_construct_sign_info_pdu           0x0101086c   Section        0  smpc_util.o(i.smpc_construct_sign_info_pdu)
    smpc_construct_sign_info_pdu             0x0101086d   Thumb Code     8  smpc_util.o(i.smpc_construct_sign_info_pdu)
    i.smpc_encrypt_cfm                       0x01010874   Section        0  smpc_api.o(i.smpc_encrypt_cfm)
    i.smpc_encrypt_start                     0x010108ac   Section        0  smpc_api.o(i.smpc_encrypt_start)
    i.smpc_encrypt_start_handler             0x010108d2   Section        0  smpc_api.o(i.smpc_encrypt_start_handler)
    i.smpc_f4_Init                           0x0101090c   Section        0  smpc_crypto.o(i.smpc_f4_Init)
    i.smpc_f4_complete                       0x01010968   Section        0  smpc_crypto.o(i.smpc_f4_complete)
    i.smpc_f5_complete                       0x010109a0   Section        0  smpc_crypto.o(i.smpc_f5_complete)
    i.smpc_f5_init                           0x010109d8   Section        0  smpc_crypto.o(i.smpc_f5_init)
    i.smpc_f6_complete                       0x01010a88   Section        0  smpc_crypto.o(i.smpc_f6_complete)
    i.smpc_f6_init                           0x01010ac0   Section        0  smpc_crypto.o(i.smpc_f6_init)
    i.smpc_g2_complete                       0x01010b5c   Section        0  smpc_crypto.o(i.smpc_g2_complete)
    i.smpc_g2_init                           0x01010b94   Section        0  smpc_crypto.o(i.smpc_g2_init)
    i.smpc_generate_cfm                      0x01010bfc   Section        0  smpc.o(i.smpc_generate_cfm)
    i.smpc_generate_ci                       0x01010c7c   Section        0  smpc.o(i.smpc_generate_ci)
    i.smpc_generate_e1                       0x01010cf0   Section        0  smpc.o(i.smpc_generate_e1)
    i.smpc_generate_l                        0x01010da8   Section        0  smpc.o(i.smpc_generate_l)
    i.smpc_generate_rand                     0x01010e00   Section        0  smpc.o(i.smpc_generate_rand)
    i.smpc_generate_stk                      0x01010e30   Section        0  smpc.o(i.smpc_generate_stk)
    i.smpc_get_key_sec_prop                  0x01010e80   Section        0  smpc.o(i.smpc_get_key_sec_prop)
    i.smpc_get_next_passkey_bit              0x01010f88   Section        0  smpc.o(i.smpc_get_next_passkey_bit)
    i.smpc_handle_dh_key_check_complete      0x01010fb8   Section        0  smpc.o(i.smpc_handle_dh_key_check_complete)
    i.smpc_handle_enc_change_evt             0x01010ff8   Section        0  smpc.o(i.smpc_handle_enc_change_evt)
    i.smpc_init_mac_key_calculation          0x01011130   Section        0  smpc.o(i.smpc_init_mac_key_calculation)
    i.smpc_initiate_dhkey_check              0x010111d8   Section        0  smpc.o(i.smpc_initiate_dhkey_check)
    i.smpc_initiate_dhkey_verification       0x010112ac   Section        0  smpc.o(i.smpc_initiate_dhkey_verification)
    i.smpc_is_sec_mode_reached               0x01011380   Section        0  smpc.o(i.smpc_is_sec_mode_reached)
    i.smpc_key_press_notification_ind        0x010113ac   Section        0  smpc_api.o(i.smpc_key_press_notification_ind)
    i.smpc_launch_rep_att_timer              0x010113d4   Section        0  smpc.o(i.smpc_launch_rep_att_timer)
    i.smpc_pairing_csrk_exch                 0x01011420   Section        0  smpc_api.o(i.smpc_pairing_csrk_exch)
    i.smpc_pairing_end                       0x0101146c   Section        0  smpc.o(i.smpc_pairing_end)
    i.smpc_pairing_irk_exch                  0x010114cc   Section        0  smpc_api.o(i.smpc_pairing_irk_exch)
    i.smpc_pairing_ltk_exch                  0x01011514   Section        0  smpc_api.o(i.smpc_pairing_ltk_exch)
    i.smpc_pairing_nc_exch                   0x01011580   Section        0  smpc_api.o(i.smpc_pairing_nc_exch)
    i.smpc_pairing_oob_exch                  0x010115d8   Section        0  smpc_api.o(i.smpc_pairing_oob_exch)
    i.smpc_pairing_req_handler               0x010116a0   Section        0  smpc_api.o(i.smpc_pairing_req_handler)
    i.smpc_pairing_rsp                       0x010116e0   Section        0  smpc_api.o(i.smpc_pairing_rsp)
    i.smpc_pairing_start                     0x01011818   Section        0  smpc_api.o(i.smpc_pairing_start)
    i.smpc_pairing_tk_exch                   0x010118c4   Section        0  smpc_api.o(i.smpc_pairing_tk_exch)
    i.smpc_pdu_recv                          0x010119bc   Section        0  smpc.o(i.smpc_pdu_recv)
    i.smpc_pdu_send                          0x01011a14   Section        0  smpc.o(i.smpc_pdu_send)
    i.smpc_process_aes_cmac                  0x01011aa4   Section        0  smpc_crypto.o(i.smpc_process_aes_cmac)
    i.smpc_recv_dhkey_check_pdu              0x01011ae0   Section        0  smpc_util.o(i.smpc_recv_dhkey_check_pdu)
    smpc_recv_dhkey_check_pdu                0x01011ae1   Thumb Code   110  smpc_util.o(i.smpc_recv_dhkey_check_pdu)
    i.smpc_recv_enc_info_pdu                 0x01011b7c   Section        0  smpc_util.o(i.smpc_recv_enc_info_pdu)
    smpc_recv_enc_info_pdu                   0x01011b7d   Thumb Code    48  smpc_util.o(i.smpc_recv_enc_info_pdu)
    i.smpc_recv_id_addr_info_pdu             0x01011bb0   Section        0  smpc_util.o(i.smpc_recv_id_addr_info_pdu)
    smpc_recv_id_addr_info_pdu               0x01011bb1   Thumb Code    74  smpc_util.o(i.smpc_recv_id_addr_info_pdu)
    i.smpc_recv_id_info_pdu                  0x01011c00   Section        0  smpc_util.o(i.smpc_recv_id_info_pdu)
    smpc_recv_id_info_pdu                    0x01011c01   Thumb Code    48  smpc_util.o(i.smpc_recv_id_info_pdu)
    i.smpc_recv_keypress_notification_pdu    0x01011c34   Section        0  smpc_util.o(i.smpc_recv_keypress_notification_pdu)
    smpc_recv_keypress_notification_pdu      0x01011c35   Thumb Code    72  smpc_util.o(i.smpc_recv_keypress_notification_pdu)
    i.smpc_recv_mst_id_pdu                   0x01011c80   Section        0  smpc_util.o(i.smpc_recv_mst_id_pdu)
    smpc_recv_mst_id_pdu                     0x01011c81   Thumb Code    84  smpc_util.o(i.smpc_recv_mst_id_pdu)
    i.smpc_recv_pair_cfm_pdu                 0x01011cd8   Section        0  smpc_util.o(i.smpc_recv_pair_cfm_pdu)
    smpc_recv_pair_cfm_pdu                   0x01011cd9   Thumb Code   240  smpc_util.o(i.smpc_recv_pair_cfm_pdu)
    i.smpc_recv_pair_fail_pdu                0x01011dcc   Section        0  smpc_util.o(i.smpc_recv_pair_fail_pdu)
    smpc_recv_pair_fail_pdu                  0x01011dcd   Thumb Code    58  smpc_util.o(i.smpc_recv_pair_fail_pdu)
    i.smpc_recv_pair_rand_pdu                0x01011e0c   Section        0  smpc_util.o(i.smpc_recv_pair_rand_pdu)
    smpc_recv_pair_rand_pdu                  0x01011e0d   Thumb Code   496  smpc_util.o(i.smpc_recv_pair_rand_pdu)
    i.smpc_recv_pair_req_pdu                 0x01012000   Section        0  smpc_util.o(i.smpc_recv_pair_req_pdu)
    smpc_recv_pair_req_pdu                   0x01012001   Thumb Code   162  smpc_util.o(i.smpc_recv_pair_req_pdu)
    i.smpc_recv_pair_rsp_pdu                 0x010120a8   Section        0  smpc_util.o(i.smpc_recv_pair_rsp_pdu)
    smpc_recv_pair_rsp_pdu                   0x010120a9   Thumb Code   292  smpc_util.o(i.smpc_recv_pair_rsp_pdu)
    i.smpc_recv_public_key_pdu               0x010121d0   Section        0  smpc_util.o(i.smpc_recv_public_key_pdu)
    smpc_recv_public_key_pdu                 0x010121d1   Thumb Code   194  smpc_util.o(i.smpc_recv_public_key_pdu)
    i.smpc_recv_sec_req_pdu                  0x010122c0   Section        0  smpc_util.o(i.smpc_recv_sec_req_pdu)
    smpc_recv_sec_req_pdu                    0x010122c1   Thumb Code   124  smpc_util.o(i.smpc_recv_sec_req_pdu)
    i.smpc_recv_sign_info_pdu                0x01012340   Section        0  smpc_util.o(i.smpc_recv_sign_info_pdu)
    smpc_recv_sign_info_pdu                  0x01012341   Thumb Code    48  smpc_util.o(i.smpc_recv_sign_info_pdu)
    i.smpc_secure_connections_enabled        0x01012374   Section        0  smpc.o(i.smpc_secure_connections_enabled)
    i.smpc_security_req_send                 0x01012384   Section        0  smpc_api.o(i.smpc_security_req_send)
    i.smpc_send_gen_dh_key_cmd               0x010123d8   Section        0  smpc.o(i.smpc_send_gen_dh_key_cmd)
    i.smpc_send_ltk_req_rsp                  0x01012418   Section        0  smpc.o(i.smpc_send_ltk_req_rsp)
    i.smpc_send_pairing_ind                  0x01012490   Section        0  smpc.o(i.smpc_send_pairing_ind)
    i.smpc_send_pairing_req_ind              0x01012540   Section        0  smpc.o(i.smpc_send_pairing_req_ind)
    i.smpc_send_start_enc_cmd                0x01012640   Section        0  smpc.o(i.smpc_send_start_enc_cmd)
    i.smpc_send_use_enc_block_cmd            0x010126c8   Section        0  smpc.o(i.smpc_send_use_enc_block_cmd)
    i.smpc_sign_command                      0x01012708   Section        0  smpc_api.o(i.smpc_sign_command)
    i.smpc_sign_cont                         0x010127f0   Section        0  smpc_api.o(i.smpc_sign_cont)
    i.smpc_tkdp_rcp_continue                 0x010129c8   Section        0  smpc.o(i.smpc_tkdp_rcp_continue)
    i.smpc_tkdp_rcp_start                    0x01012a8c   Section        0  smpc.o(i.smpc_tkdp_rcp_start)
    i.smpc_tkdp_send_continue                0x01012abc   Section        0  smpc.o(i.smpc_tkdp_send_continue)
    i.smpc_tkdp_send_start                   0x01012ba0   Section        0  smpc.o(i.smpc_tkdp_send_start)
    i.smpc_xor                               0x01012bd0   Section        0  smpc.o(i.smpc_xor)
    i.sp_gatt_add_service                    0x01012be8   Section        0  simple_gatt_service.o(i.sp_gatt_add_service)
    i.sp_gatt_msg_handler                    0x01012c14   Section        0  simple_gatt_service.o(i.sp_gatt_msg_handler)
    sp_gatt_msg_handler                      0x01012c15   Thumb Code    42  simple_gatt_service.o(i.sp_gatt_msg_handler)
    i.sp_gatt_read_cb                        0x01012c40   Section        0  simple_gatt_service.o(i.sp_gatt_read_cb)
    sp_gatt_read_cb                          0x01012c41   Thumb Code   166  simple_gatt_service.o(i.sp_gatt_read_cb)
    i.sp_gatt_write_cb                       0x01012d1c   Section        0  simple_gatt_service.o(i.sp_gatt_write_cb)
    sp_gatt_write_cb                         0x01012d1d   Thumb Code   136  simple_gatt_service.o(i.sp_gatt_write_cb)
    i.system_latency_enable                  0x01012e08   Section        0  patch_rf.o(i.system_latency_enable)
    i.system_sleep_disable                   0x01012e30   Section        0  sys_utils.o(i.system_sleep_disable)
    i.user_custom_parameters                 0x01012e38   Section        0  proj_main.o(i.user_custom_parameters)
    i.user_entry_after_ble_init              0x01012e8c   Section        0  proj_main.o(i.user_entry_after_ble_init)
    i.user_entry_before_ble_init             0x01012eb8   Section        0  proj_main.o(i.user_entry_before_ble_init)
    i.user_init_static_memory                0x01012f00   Section        0  entry.o(i.user_init_static_memory)
    i.user_task_func                         0x01012f28   Section        0  user_task.o(i.user_task_func)
    user_task_func                           0x01012f29   Thumb Code    44  user_task.o(i.user_task_func)
    i.user_task_init                         0x01012f70   Section        0  user_task.o(i.user_task_init)
    i.wdt_init                               0x01012f88   Section        0  driver_wdt.o(i.wdt_init)
    .constdata                               0x01013004   Section       68  user_task.o(.constdata)
    .constdata                               0x01013048   Section       48  ble_multi_role.o(.constdata)
    .constdata                               0x01013078   Section        2  simple_gatt_service.o(.constdata)
    .constdata                               0x0101307a   Section       17  simple_gatt_service.o(.constdata)
    .constdata                               0x0101308b   Section       17  simple_gatt_service.o(.constdata)
    .constdata                               0x0101309c   Section       17  simple_gatt_service.o(.constdata)
    .constdata                               0x010130ad   Section       17  simple_gatt_service.o(.constdata)
    .constdata                               0x010130be   Section       17  simple_gatt_service.o(.constdata)
    .constdata                               0x010130d0   Section      476  simple_gatt_service.o(.constdata)
    .constdata                               0x010132ac   Section       32  driver_pmu.o(.constdata)
    .constdata                               0x010132cc   Section       16  flash.o(.constdata)
    .constdata                               0x010132dc   Section        4  app.o(.constdata)
    appm_add_svc_func_list                   0x010132dc   Data           4  app.o(.constdata)
    .constdata                               0x010132e0   Section       48  app_sec.o(.constdata)
    .constdata                               0x01013310   Section        8  app_sec.o(.constdata)
    .constdata                               0x01013318   Section       88  gapm.o(.constdata)
    gapm_att_db                              0x01013318   Data          88  gapm.o(.constdata)
    .constdata                               0x01013370   Section       36  gattm.o(.constdata)
    gattm_att_db                             0x01013374   Data          32  gattm.o(.constdata)
    .constdata                               0x01013394   Section      160  app_task.o(.constdata)
    appm_msg_handler_tab                     0x01013394   Data         160  app_task.o(.constdata)
    .constdata                               0x01013434   Section       12  app_task.o(.constdata)
    .constdata                               0x01013440   Section      304  gapc_task.o(.constdata)
    gapc_msg_handler_tab                     0x01013440   Data         304  gapc_task.o(.constdata)
    .constdata                               0x01013570   Section       12  gapc_task.o(.constdata)
    .constdata                               0x0101357c   Section      512  gapm_task.o(.constdata)
    gapm_hci_cmd_cmp_event_handler_tab       0x0101357c   Data         408  gapm_task.o(.constdata)
    gapm_hci_cmd_stat_event_handler_tab      0x01013714   Data          24  gapm_task.o(.constdata)
    gapm_hci_le_event_handler_tab            0x0101372c   Data          80  gapm_task.o(.constdata)
    .constdata                               0x0101377c   Section      248  gapm_task.o(.constdata)
    gapm_msg_handler_tab                     0x0101377c   Data         248  gapm_task.o(.constdata)
    .constdata                               0x01013874   Section       12  gapm_task.o(.constdata)
    .constdata                               0x01013880   Section       25  smpc.o(.constdata)
    smpc_pair_method                         0x01013880   Data          25  smpc.o(.constdata)
    .constdata                               0x0101389c   Section      140  atts.o(.constdata)
    atts_rights                              0x0101389c   Data          36  atts.o(.constdata)
    .constdata                               0x01013928   Section      224  gattc_task.o(.constdata)
    gattc_msg_handler_tab                    0x01013928   Data         224  gattc_task.o(.constdata)
    .constdata                               0x01013a08   Section       12  gattc_task.o(.constdata)
    .constdata                               0x01013a14   Section        8  gattm_task.o(.constdata)
    gattm_msg_handler_tab                    0x01013a14   Data           8  gattm_task.o(.constdata)
    .constdata                               0x01013a1c   Section       12  gattm_task.o(.constdata)
    .constdata                               0x01013a28   Section       56  l2cc_task.o(.constdata)
    l2cc_msg_handler_tab                     0x01013a28   Data          56  l2cc_task.o(.constdata)
    .constdata                               0x01013a60   Section       12  l2cc_task.o(.constdata)
    .constdata                               0x01013a6c   Section      216  gapc_hci.o(.constdata)
    hci_cmd_cmp_event_handler_tab            0x01013a6c   Data          72  gapc_hci.o(.constdata)
    hci_cmd_stat_event_handler_tab           0x01013ab4   Data          48  gapc_hci.o(.constdata)
    hci_le_event_handler_tab                 0x01013ae4   Data          56  gapc_hci.o(.constdata)
    hci_event_handler_tab                    0x01013b1c   Data          40  gapc_hci.o(.constdata)
    .constdata                               0x01013b44   Section       24  gapc_sig.o(.constdata)
    .constdata                               0x01013b5c   Section       60  smpc_util.o(.constdata)
    .constdata                               0x01013b98   Section       60  smpc_util.o(.constdata)
    .constdata                               0x01013bd4   Section      112  attc.o(.constdata)
    .constdata                               0x01013c44   Section      276  l2cc_pdu.o(.constdata)
    l2cc_signaling_pkt_format                0x01013c44   Data          92  l2cc_pdu.o(.constdata)
    l2cc_security_pkt_format                 0x01013ca0   Data          60  l2cc_pdu.o(.constdata)
    l2cc_attribute_pkt_format                0x01013cdc   Data         124  l2cc_pdu.o(.constdata)
    .constdata                               0x01013d58   Section       24  l2cc_sig.o(.constdata)
    .conststring                             0x01013d70   Section      421  user_task.o(.conststring)
    .conststring                             0x01013f18   Section       47  mesh_api.o(.conststring)
    .conststring                             0x01013f48   Section      109  l2cc_pdu.o(.conststring)
    RESET                                    0x20000000   Section      128  app_boot_vectors.o(RESET)
    ram_code_front                           0x20000b60   Section        0  entry.o(ram_code_front)
    ram_code                                 0x20000e08   Section        0  proj_main.o(ram_code)
    ram_code                                 0x20000e60   Section        0  driver_pmu.o(ram_code)
    ram_code                                 0x20001050   Section        0  driver_keyscan.o(ram_code)
    ram_code                                 0x20001070   Section        0  driver_pmu_qdec.o(ram_code)
    ram_code                                 0x20001098   Section        0  driver_rtc.o(ram_code)
    ram_code                                 0x2000109c   Section        0  driver_uart.o(ram_code)
    ram_code                                 0x200010f0   Section        0  driver_wdt.o(ram_code)
    ram_code                                 0x200011f0   Section        0  driver_i2s.o(ram_code)
    ram_code                                 0x20001220   Section        0  driver_exti.o(ram_code)
    ram_code                                 0x20001240   Section        0  driver_timer.o(ram_code)
    ram_code                                 0x2000129c   Section      112  app_boot_vectors.o(ram_code)
    pmu_isr_ram                              0x2000129d   Thumb Code    18  app_boot_vectors.o(ram_code)
    SVC_Handler                              0x200012af   Thumb Code    74  app_boot_vectors.o(ram_code)
    ram_code                                 0x2000130c   Section        0  patch.o(ram_code)
    ram_code                                 0x200016d4   Section        0  entry.o(ram_code)
    pmu_smooth_calc_calib_result             0x200016d7   Thumb Code   162  entry.o(ram_code)
    ram_code                                 0x200019c4   Section       24  patch_rf.o(ram_code)
    ram_code                                 0x200019dc   Section        0  patch_rf.o(ram_code)
    ram_code                                 0x20002020   Section        0  patch_no_md_bit.o(ram_code)
    lld_con_tx_prog                          0x2000206b   Thumb Code   468  patch_no_md_bit.o(ram_code)
    ram_code                                 0x200023b4   Section        0  patch_rtos.o(ram_code)
    ram_code                                 0x20002500   Section        6  sys_utils.o(ram_code)
    ram_code                                 0x20002508   Section        0  sys_utils.o(ram_code)
    ram_code                                 0x20002694   Section        0  flash.o(ram_code)
    ram_code                                 0x200029d0   Section        0  adv_check_mode.o(ram_code)
    .data                                    0x20002e70   Section        2  user_task.o(.data)
    .data                                    0x20002e72   Section       27  ble_multi_role.o(.data)
    client_id                                0x20002e72   Data           1  ble_multi_role.o(.data)
    adv_data                                 0x20002e73   Data           4  ble_multi_role.o(.data)
    scan_rsp_data                            0x20002e77   Data          22  ble_multi_role.o(.data)
    .data                                    0x20002e90   Section       24  button.o(.data)
    .data                                    0x20002ea8   Section        3  simple_gatt_service.o(.data)
    .data                                    0x20002eab   Section        1  driver_pmu.o(.data)
    .data                                    0x20002eac   Section        4  driver_i2s.o(.data)
    .data                                    0x20002ec0   Section      256  patch.o(.data)
    .data                                    0x20002fc0   Section       20  gatt_api.o(.data)
    registed_num                             0x20002fc0   Data           1  gatt_api.o(.data)
    client_idx                               0x20002fc1   Data           1  gatt_api.o(.data)
    gatt_profile_task_count                  0x20002fc2   Data           1  gatt_api.o(.data)
    gatt_service_cbs                         0x20002fc4   Data          16  gatt_api.o(.data)
    .data                                    0x20002fd4   Section       12  entry.o(.data)
    check_calib_result                       0x20002fd5   Data           1  entry.o(.data)
    calib_array_full                         0x20002fd6   Data           1  entry.o(.data)
    calib_result_index                       0x20002fd7   Data           1  entry.o(.data)
    total_calib_result                       0x20002fd8   Data           4  entry.o(.data)
    last_avg_result                          0x20002fdc   Data           4  entry.o(.data)
    .data                                    0x20002fe0   Section       12  jump_table.o(.data)
    stack_size                               0x20002fe0   Data           2  jump_table.o(.data)
    static_mem_end                           0x20002fe8   Data           4  jump_table.o(.data)
    .data                                    0x20002fec   Section      300  patch_rf.o(.data)
    report_rssi_enabled                      0x20002fec   Data           1  patch_rf.o(.data)
    nest                                     0x20002fed   Data           1  patch_rf.o(.data)
    sleep_isr_come                           0x20002fee   Data           1  patch_rf.o(.data)
    recv_comp_packet_during_evt              0x20002ff0   Data           1  patch_rf.o(.data)
    sch_arb_env                              0x20002ff4   Data           4  patch_rf.o(.data)
    sch_prog_env                             0x20002ff8   Data           4  patch_rf.o(.data)
    lld_disable_latency_label                0x20002ffc   Data           4  patch_rf.o(.data)
    system_sleep_max_during                  0x20003000   Data           4  patch_rf.o(.data)
    .data                                    0x20003118   Section        1  patch_no_md_bit.o(.data)
    op_code                                  0x20003118   Data           1  patch_no_md_bit.o(.data)
    .data                                    0x2000311c   Section        8  patch_rtos.o(.data)
    p_rtos_sleep_time                        0x20003120   Data           4  patch_rtos.o(.data)
    .data                                    0x20003124   Section        2  sys_utils.o(.data)
    check_count                              0x20003125   Data           1  sys_utils.o(.data)
    .data                                    0x20003128   Section       12  os_timer.o(.data)
    timer_list                               0x20003128   Data           4  os_timer.o(.data)
    timer_id_flag                            0x2000312c   Data           8  os_timer.o(.data)
    .data                                    0x20003134   Section       12  app.o(.data)
    .data                                    0x20003140   Section        8  app_conn.o(.data)
    gattc_seq_num                            0x20003140   Data           1  app_conn.o(.data)
    .data                                    0x20003148   Section       20  user_bond_manage.o(.data)
    MAX_BOND_DEV_NUM                         0x20003148   Data           1  user_bond_manage.o(.data)
    bond_manage_enable                       0x20003149   Data           1  user_bond_manage.o(.data)
    last_sotre_idx                           0x2000314b   Data           1  user_bond_manage.o(.data)
    gap_bond_info_env                        0x2000314c   Data           4  user_bond_manage.o(.data)
    gap_bond_irks_env                        0x20003150   Data           4  user_bond_manage.o(.data)
    ble_bond_falsh_addr                      0x20003154   Data           4  user_bond_manage.o(.data)
    ble_svc_falsh_addr                       0x20003158   Data           4  user_bond_manage.o(.data)
    .data                                    0x2000315c   Section       16  app_sec.o(.data)
    sec_cmd                                  0x20003160   Data          12  app_sec.o(.data)
    .data                                    0x2000316c   Section       78  adv_check_mode.o(.data)
    send_ptr                                 0x2000316e   Data           2  adv_check_mode.o(.data)
    frq_freq_table                           0x20003170   Data          42  adv_check_mode.o(.data)
    calib_freq_table                         0x2000319a   Data          32  adv_check_mode.o(.data)
    .data                                    0x200031bc   Section        8  prf.o(.data)
    .data                                    0x200031c4   Section       40  mesh_api.o(.data)
    app_mesh_model_add_step                  0x200031c4   Data           1  mesh_api.o(.data)
    mesh_model_nb                            0x200031c5   Data           1  mesh_api.o(.data)
    mesh_tx_hdl                              0x200031c6   Data           1  mesh_api.o(.data)
    mesh_callback                            0x200031dc   Data           4  mesh_api.o(.data)
    .data                                    0x200031ec   Section        4  app_task.o(.data)
    tmp_dest_id                              0x200031ec   Data           2  app_task.o(.data)
    tmp_src_id                               0x200031ee   Data           2  app_task.o(.data)
    .data                                    0x200031f0   Section        1  app_task.o(.data)
    .data                                    0x200031f1   Section        1  gapm_task.o(.data)
    .data                                    0x200031f2   Section        1  gattm_task.o(.data)
    .data                                    0x200031f4   Section        4  l2cc_task.o(.data)
    .data                                    0x200031f8   Section        2  gapm_scan.o(.data)
    length_sum                               0x200031f8   Data           2  gapm_scan.o(.data)
    .bss                                     0x200031fc   Section       60  button.o(.bss)
    .bss                                     0x20003238   Section      124  simple_gatt_service.o(.bss)
    simple_profile_svc                       0x200032a8   Data          12  simple_gatt_service.o(.bss)
    .bss                                     0x200032b4   Section       24  patch.o(.bss)
    lld_regs_buffer                          0x200032b4   Data          24  patch.o(.bss)
    .bss                                     0x200032cc   Section     1724  gatt_api.o(.bss)
    gatt_svc_list                            0x200032cc   Data        1600  gatt_api.o(.bss)
    gClientDB                                0x2000390c   Data         124  gatt_api.o(.bss)
    .bss                                     0x20003988   Section       40  entry.o(.bss)
    calib_result                             0x20003988   Data          40  entry.o(.bss)
    .bss                                     0x200039b0   Section      380  jump_table.o(.bss)
    prf_env_buffer                           0x200039b0   Data         220  jump_table.o(.bss)
    ke_task_elem_buffer                      0x20003a8c   Data         160  jump_table.o(.bss)
    .bss                                     0x20003b2c   Section      176  patch_no_md_bit.o(.bss)
    g_evt_cnt_setting                        0x20003b2c   Data         176  patch_no_md_bit.o(.bss)
    .bss                                     0x20003bdc   Section      204  app.o(.bss)
    .bss                                     0x20003ca8   Section       20  app_conn.o(.bss)
    .bss                                     0x20003cbc   Section       54  app_sec.o(.bss)
    .bss                                     0x20003cf4   Section       80  gapc.o(.bss)
    .bss                                     0x20003d44   Section      212  gapm.o(.bss)
    .bss                                     0x20003e18   Section       80  gattc.o(.bss)
    .bss                                     0x20003e68   Section       32  gattm.o(.bss)
    .bss                                     0x20003e88   Section       20  gapc_task.o(.bss)
    .bss                                     0x20003e9c   Section       20  gattc_task.o(.bss)
    .bss                                     0x20003eb0   Section       20  l2cc_task.o(.bss)
    .bss                                     0x20003ec4   Section       12  l2cm.o(.bss)
    .bss                                     0x20003ed0   Section       80  l2cc.o(.bss)
    heap_ke                                  0x20003f20   Section        4  jump_table.o(heap_ke)
    heap_ke_take_place                       0x20003f20   Data           4  jump_table.o(heap_ke)

    Global Symbols

    Symbol Name                              Value     Ov Type        Size  Object(Section)

    BuildAttributes$$THM_ISAv4$P$D$K$B$S$PE$A:L22UL41UL21$X:L11$S22US41US21$IEEE1$IW$USESV6$~STKCKD$USESV7$~SHL$OSPACE$ROPI$EBA8$MICROLIB$REQ8$PRES8$EABIv2 0x00000000   Number         0  anon$$obj.o ABSOLUTE
    __ARM_use_no_argv                        0x00000000   Number         0  syscall.txt ABSOLUTE
    __Vectors                                0x00000000   Data           0  syscall.txt ABSOLUTE
    _printf_a                                0x00000000   Number         0  stubs.o ABSOLUTE
    _printf_c                                0x00000000   Number         0  stubs.o ABSOLUTE
    _printf_charcount                        0x00000000   Number         0  stubs.o ABSOLUTE
    _printf_d                                0x00000000   Number         0  stubs.o ABSOLUTE
    _printf_e                                0x00000000   Number         0  stubs.o ABSOLUTE
    _printf_f                                0x00000000   Number         0  stubs.o ABSOLUTE
    _printf_flags                            0x00000000   Number         0  stubs.o ABSOLUTE
    _printf_fp_dec                           0x00000000   Number         0  stubs.o ABSOLUTE
    _printf_fp_hex                           0x00000000   Number         0  stubs.o ABSOLUTE
    _printf_g                                0x00000000   Number         0  stubs.o ABSOLUTE
    _printf_i                                0x00000000   Number         0  stubs.o ABSOLUTE
    _printf_int_dec                          0x00000000   Number         0  stubs.o ABSOLUTE
    _printf_l                                0x00000000   Number         0  stubs.o ABSOLUTE
    _printf_lc                               0x00000000   Number         0  stubs.o ABSOLUTE
    _printf_ll                               0x00000000   Number         0  stubs.o ABSOLUTE
    _printf_lld                              0x00000000   Number         0  stubs.o ABSOLUTE
    _printf_lli                              0x00000000   Number         0  stubs.o ABSOLUTE
    _printf_llo                              0x00000000   Number         0  stubs.o ABSOLUTE
    _printf_llu                              0x00000000   Number         0  stubs.o ABSOLUTE
    _printf_llx                              0x00000000   Number         0  stubs.o ABSOLUTE
    _printf_longlong_dec                     0x00000000   Number         0  stubs.o ABSOLUTE
    _printf_longlong_hex                     0x00000000   Number         0  stubs.o ABSOLUTE
    _printf_longlong_oct                     0x00000000   Number         0  stubs.o ABSOLUTE
    _printf_ls                               0x00000000   Number         0  stubs.o ABSOLUTE
    _printf_mbtowc                           0x00000000   Number         0  stubs.o ABSOLUTE
    _printf_n                                0x00000000   Number         0  stubs.o ABSOLUTE
    _printf_o                                0x00000000   Number         0  stubs.o ABSOLUTE
    _printf_p                                0x00000000   Number         0  stubs.o ABSOLUTE
    _printf_percent                          0x00000000   Number         0  stubs.o ABSOLUTE
    _printf_pre_padding                      0x00000000   Number         0  stubs.o ABSOLUTE
    _printf_return_value                     0x00000000   Number         0  stubs.o ABSOLUTE
    _printf_s                                0x00000000   Number         0  stubs.o ABSOLUTE
    _printf_sizespec                         0x00000000   Number         0  stubs.o ABSOLUTE
    _printf_str                              0x00000000   Number         0  stubs.o ABSOLUTE
    _printf_truncate_signed                  0x00000000   Number         0  stubs.o ABSOLUTE
    _printf_truncate_unsigned                0x00000000   Number         0  stubs.o ABSOLUTE
    _printf_u                                0x00000000   Number         0  stubs.o ABSOLUTE
    _printf_wc                               0x00000000   Number         0  stubs.o ABSOLUTE
    _printf_wctomb                           0x00000000   Number         0  stubs.o ABSOLUTE
    _printf_widthprec                        0x00000000   Number         0  stubs.o ABSOLUTE
    _printf_x                                0x00000000   Number         0  stubs.o ABSOLUTE
    __main                                   0x0000008d   Thumb Code     0  syscall.txt ABSOLUTE
    _main_stk                                0x0000008d   Thumb Code     0  syscall.txt ABSOLUTE
    _main_scatterload                        0x00000091   Thumb Code     0  syscall.txt ABSOLUTE
    __main_after_scatterload                 0x00000095   Thumb Code     0  syscall.txt ABSOLUTE
    _main_clock                              0x00000095   Thumb Code     0  syscall.txt ABSOLUTE
    _main_cpp_init                           0x00000095   Thumb Code     0  syscall.txt ABSOLUTE
    _main_init                               0x00000095   Thumb Code     0  syscall.txt ABSOLUTE
    __rt_final_cpp                           0x0000009d   Thumb Code     0  syscall.txt ABSOLUTE
    __rt_final_exit                          0x0000009d   Thumb Code     0  syscall.txt ABSOLUTE
    rwip_sleep_mul_64                        0x000000a1   Thumb Code     0  syscall.txt ABSOLUTE
    __asm___11_low_power_c_50b0e29e__low_power_save_cpu 0x000000ad   Thumb Code     0  syscall.txt ABSOLUTE
    low_power_restore_cpu                    0x0000012d   Thumb Code     0  syscall.txt ABSOLUTE
    SVC_Handler                              0x00000139   Thumb Code     0  syscall.txt ABSOLUTE
    vPortSVCHandler                          0x00000171   Thumb Code     0  syscall.txt ABSOLUTE
    __asm___6_port_c_39a90d8d__prvStartFirstTask 0x00000195   Thumb Code     0  syscall.txt ABSOLUTE
    prv_call_svc_pc                          0x000001a9   Thumb Code     0  syscall.txt ABSOLUTE
    PendSV_Handler                           0x000001ad   Thumb Code     0  syscall.txt ABSOLUTE
    vPortGetIPSR                             0x000001f9   Thumb Code     0  syscall.txt ABSOLUTE
    __asm___10_app_boot_c_fcf06f29____REV16  0x00000201   Thumb Code     0  syscall.txt ABSOLUTE
    __asm___14_ble_util_buf_c_b8bf6b0e____REV16 0x00000205   Thumb Code     0  syscall.txt ABSOLUTE
    __asm___7_rwble_c_5e66ef03____REV16      0x00000209   Thumb Code     0  syscall.txt ABSOLUTE
    __asm___5_llc_c_llc_init____REV16        0x0000020d   Thumb Code     0  syscall.txt ABSOLUTE
    __asm___15_llc_chmap_upd_c_ddac89ec____REV16 0x00000211   Thumb Code     0  syscall.txt ABSOLUTE
    __asm___13_llc_con_upd_c_de71abdd____REV16 0x00000215   Thumb Code     0  syscall.txt ABSOLUTE
    __asm___9_llc_dbg_c____REV16             0x00000219   Thumb Code     0  syscall.txt ABSOLUTE
    __asm___16_llc_disconnect_c_67e9d540____REV16 0x0000021d   Thumb Code     0  syscall.txt ABSOLUTE
    __asm___12_llc_dl_upd_c_553d3f21____REV16 0x00000221   Thumb Code     0  syscall.txt ABSOLUTE
    __asm___13_llc_encrypt_c_8159a054____REV16 0x00000225   Thumb Code     0  syscall.txt ABSOLUTE
    __asm___15_llc_feat_exch_c_6fa097ef____REV16 0x00000229   Thumb Code     0  syscall.txt ABSOLUTE
    __asm___9_llc_hci_c_996dc4b6____REV16    0x0000022d   Thumb Code     0  syscall.txt ABSOLUTE
    __asm___13_llc_le_ping_c_434cc73c____REV16 0x00000231   Thumb Code     0  syscall.txt ABSOLUTE
    __asm___10_llc_llcp_c_1a9b13a9____REV16  0x00000235   Thumb Code     0  syscall.txt ABSOLUTE
    __asm___13_llc_phy_upd_c_0294cefd____REV16 0x00000239   Thumb Code     0  syscall.txt ABSOLUTE
    __asm___10_llc_task_c_30369c55____REV16  0x0000023d   Thumb Code     0  syscall.txt ABSOLUTE
    __asm___14_llc_ver_exch_c_2771d0a7____REV16 0x00000241   Thumb Code     0  syscall.txt ABSOLUTE
    __asm___5_lld_c_f7832d1e____REV16        0x00000245   Thumb Code     0  syscall.txt ABSOLUTE
    __asm___9_lld_adv_c_9a148cc9____REV16    0x00000249   Thumb Code     0  syscall.txt ABSOLUTE
    __asm___9_lld_con_c_df553fb8____REV16    0x0000024d   Thumb Code     0  syscall.txt ABSOLUTE
    __asm___10_lld_init_c_b391185e____REV16  0x00000251   Thumb Code     0  syscall.txt ABSOLUTE
    __asm___13_lld_per_adv_c_77b63e9a____REV16 0x00000255   Thumb Code     0  syscall.txt ABSOLUTE
    __asm___10_lld_scan_c_01456b52____REV16  0x00000259   Thumb Code     0  syscall.txt ABSOLUTE
    __asm___10_lld_sync_c_8bd34c56____REV16  0x0000025d   Thumb Code     0  syscall.txt ABSOLUTE
    __asm___10_lld_test_c_54e5e101____REV16  0x00000261   Thumb Code     0  syscall.txt ABSOLUTE
    __asm___5_llm_c_52f69136____REV16        0x00000265   Thumb Code     0  syscall.txt ABSOLUTE
    __asm___9_llm_adv_c_2ca465c6____REV16    0x00000269   Thumb Code     0  syscall.txt ABSOLUTE
    __asm___9_llm_hci_c_20aee1fa____REV16    0x0000026d   Thumb Code     0  syscall.txt ABSOLUTE
    __asm___10_llm_init_c_c210a516____REV16  0x00000271   Thumb Code     0  syscall.txt ABSOLUTE
    __asm___9_llm_iso_c____REV16             0x00000275   Thumb Code     0  syscall.txt ABSOLUTE
    __asm___10_llm_scan_c_963e4937____REV16  0x00000279   Thumb Code     0  syscall.txt ABSOLUTE
    __asm___10_llm_task_c_5d3df270____REV16  0x0000027d   Thumb Code     0  syscall.txt ABSOLUTE
    __asm___5_hci_c_hci_init____REV16        0x00000281   Thumb Code     0  syscall.txt ABSOLUTE
    __asm___8_hci_fc_c_fcf3c82e____REV16     0x00000285   Thumb Code     0  syscall.txt ABSOLUTE
    __asm___9_hci_msg_c_b5066cf5____REV16    0x00000289   Thumb Code     0  syscall.txt ABSOLUTE
    __asm___8_hci_tl_c_9ce329a5____REV16     0x0000028d   Thumb Code     0  syscall.txt ABSOLUTE
    __asm___11_sch_alarm_c_3b4969f2____REV16 0x00000291   Thumb Code     0  syscall.txt ABSOLUTE
    __asm___9_sch_arb_c_87561c0e____REV16    0x00000295   Thumb Code     0  syscall.txt ABSOLUTE
    __asm___10_sch_plan_c_c0257ea0____REV16  0x00000299   Thumb Code     0  syscall.txt ABSOLUTE
    __asm___10_sch_prog_c_de24772c____REV16  0x0000029d   Thumb Code     0  syscall.txt ABSOLUTE
    __asm___11_sch_slice_c_de6dd3b5____REV16 0x000002a1   Thumb Code     0  syscall.txt ABSOLUTE
    __asm___5_aes_c_aes_init____REV16        0x000002a5   Thumb Code     0  syscall.txt ABSOLUTE
    __asm___9_aes_ccm_c_aes_ccm____REV16     0x000002a9   Thumb Code     0  syscall.txt ABSOLUTE
    __asm___10_aes_cmac_c_fe47f34c____REV16  0x000002ad   Thumb Code     0  syscall.txt ABSOLUTE
    __asm___8_aes_k1_c_aes_k1____REV16       0x000002b1   Thumb Code     0  syscall.txt ABSOLUTE
    __asm___8_aes_k2_c_5cc4f012____REV16     0x000002b5   Thumb Code     0  syscall.txt ABSOLUTE
    __asm___8_aes_k3_c_979823b7____REV16     0x000002b9   Thumb Code     0  syscall.txt ABSOLUTE
    __asm___8_aes_k4_c_8a9d130f____REV16     0x000002bd   Thumb Code     0  syscall.txt ABSOLUTE
    __asm___8_aes_s1_c_aes_s1____REV16       0x000002c1   Thumb Code     0  syscall.txt ABSOLUTE
    __asm___9_co_list_c_ca99e89f____REV16    0x000002c5   Thumb Code     0  syscall.txt ABSOLUTE
    __asm___10_co_utils_c_one_bits____REV16  0x000002c9   Thumb Code     0  syscall.txt ABSOLUTE
    __asm___5_dbg_c_3a87ab48____REV16        0x000002cd   Thumb Code     0  syscall.txt ABSOLUTE
    __asm___12_dbg_mwsgen_c____REV16         0x000002d1   Thumb Code     0  syscall.txt ABSOLUTE
    __asm___12_dbg_swdiag_c____REV16         0x000002d5   Thumb Code     0  syscall.txt ABSOLUTE
    __asm___10_dbg_task_c____REV16           0x000002d9   Thumb Code     0  syscall.txt ABSOLUTE
    __asm___9_dbg_trc_c____REV16             0x000002dd   Thumb Code     0  syscall.txt ABSOLUTE
    __asm___13_dbg_trc_mem_c____REV16        0x000002e1   Thumb Code     0  syscall.txt ABSOLUTE
    __asm___12_dbg_trc_tl_c____REV16         0x000002e5   Thumb Code     0  syscall.txt ABSOLUTE
    __asm___9_display_c____REV16             0x000002e9   Thumb Code     0  syscall.txt ABSOLUTE
    __asm___14_display_task_c____REV16       0x000002ed   Thumb Code     0  syscall.txt ABSOLUTE
    __asm___10_ecc_p256_c_8b173798____REV16  0x000002f1   Thumb Code     0  syscall.txt ABSOLUTE
    __asm___6_h4tl_c_3a5732fe____REV16       0x000002f5   Thumb Code     0  syscall.txt ABSOLUTE
    __asm___4_ke_c_ke_init____REV16          0x000002f9   Thumb Code     0  syscall.txt ABSOLUTE
    __asm___10_ke_event_c_87ccd12c____REV16  0x000002fd   Thumb Code     0  syscall.txt ABSOLUTE
    __asm___8_ke_mem_c_f92e48dd____REV16     0x00000301   Thumb Code     0  syscall.txt ABSOLUTE
    __asm___8_ke_msg_c_d502b297____REV16     0x00000305   Thumb Code     0  syscall.txt ABSOLUTE
    __asm___10_ke_queue_c_5cab850e____REV16  0x00000309   Thumb Code     0  syscall.txt ABSOLUTE
    __asm___9_ke_task_c_18478d77____REV16    0x0000030d   Thumb Code     0  syscall.txt ABSOLUTE
    __asm___10_ke_timer_c_3b621a08____REV16  0x00000311   Thumb Code     0  syscall.txt ABSOLUTE
    __asm___6_nvds_c____REV16                0x00000315   Thumb Code     0  syscall.txt ABSOLUTE
    __asm___9_rf_simu_c_82de3823____REV16    0x00000319   Thumb Code     0  syscall.txt ABSOLUTE
    __asm___6_rwip_c_f2b147fa____REV16       0x0000031d   Thumb Code     0  syscall.txt ABSOLUTE
    __asm___13_rwip_driver_c_c12c84cf____REV16 0x00000321   Thumb Code     0  syscall.txt ABSOLUTE
    __asm___11_co_printf_c_fputc____REV16    0x00000325   Thumb Code     0  syscall.txt ABSOLUTE
    __asm___11_low_power_c_50b0e29e____REV16 0x00000329   Thumb Code     0  syscall.txt ABSOLUTE
    __asm___7_crc32_c_36f7c2a5____REV16      0x0000032d   Thumb Code     0  syscall.txt ABSOLUTE
    __asm___5_md5_c_MD5_Init____REV16        0x00000331   Thumb Code     0  syscall.txt ABSOLUTE
    __asm___11_arch_main_c_uart_api____REV16 0x00000335   Thumb Code     0  syscall.txt ABSOLUTE
    __asm___12_jump_table_c_6a9c728e____REV16 0x00000339   Thumb Code     0  syscall.txt ABSOLUTE
    __asm___6_intc_c_189c7b66____REV16       0x0000033d   Thumb Code     0  syscall.txt ABSOLUTE
    __asm___6_uart_c_988f2830____REV16       0x00000341   Thumb Code     0  syscall.txt ABSOLUTE
    __asm___7_flash_c_1f9d869b____REV16      0x00000345   Thumb Code     0  syscall.txt ABSOLUTE
    __asm___6_qspi_c_79b82d8e____REV16       0x00000349   Thumb Code     0  syscall.txt ABSOLUTE
    __asm___8_system_c_a51710b5____REV16     0x0000034d   Thumb Code     0  syscall.txt ABSOLUTE
    __asm___6_gpio_c_a47c3f18____REV16       0x00000351   Thumb Code     0  syscall.txt ABSOLUTE
    __asm___5_ssp_c_3d1cf05e____REV16        0x00000355   Thumb Code     0  syscall.txt ABSOLUTE
    __asm___8_frspim_c_6e8f94f7____REV16     0x00000359   Thumb Code     0  syscall.txt ABSOLUTE
    __asm___5_pmu_c_7ed478f1____REV16        0x0000035d   Thumb Code     0  syscall.txt ABSOLUTE
    __asm___9_apb2spi_c_a124e987____REV16    0x00000361   Thumb Code     0  syscall.txt ABSOLUTE
    __asm___6_trng_c_36387bb2____REV16       0x00000365   Thumb Code     0  syscall.txt ABSOLUTE
    __asm___6_list_c_a968f7cb____REV16       0x00000369   Thumb Code     0  syscall.txt ABSOLUTE
    __asm___7_queue_c_48e2f297____REV16      0x0000036d   Thumb Code     0  syscall.txt ABSOLUTE
    __asm___7_tasks_c_f31043e3____REV16      0x00000371   Thumb Code     0  syscall.txt ABSOLUTE
    __asm___8_timers_c_a20bbafd____REV16     0x00000375   Thumb Code     0  syscall.txt ABSOLUTE
    __asm___14_event_groups_c_5f98c4ce____REV16 0x00000379   Thumb Code     0  syscall.txt ABSOLUTE
    __asm___8_heap_6_c_94e30ff9____REV16     0x0000037d   Thumb Code     0  syscall.txt ABSOLUTE
    __asm___6_port_c_39a90d8d____REV16       0x00000381   Thumb Code     0  syscall.txt ABSOLUTE
    __asm___20_freertos_interface_c_bc2b671d____REV16 0x00000385   Thumb Code     0  syscall.txt ABSOLUTE
    __asm___10_app_boot_c_fcf06f29____REVSH  0x00000389   Thumb Code     0  syscall.txt ABSOLUTE
    __asm___14_ble_util_buf_c_b8bf6b0e____REVSH 0x0000038d   Thumb Code     0  syscall.txt ABSOLUTE
    __asm___7_rwble_c_5e66ef03____REVSH      0x00000391   Thumb Code     0  syscall.txt ABSOLUTE
    __asm___5_llc_c_llc_init____REVSH        0x00000395   Thumb Code     0  syscall.txt ABSOLUTE
    __asm___15_llc_chmap_upd_c_ddac89ec____REVSH 0x00000399   Thumb Code     0  syscall.txt ABSOLUTE
    __asm___13_llc_con_upd_c_de71abdd____REVSH 0x0000039d   Thumb Code     0  syscall.txt ABSOLUTE
    __asm___9_llc_dbg_c____REVSH             0x000003a1   Thumb Code     0  syscall.txt ABSOLUTE
    __asm___16_llc_disconnect_c_67e9d540____REVSH 0x000003a5   Thumb Code     0  syscall.txt ABSOLUTE
    __asm___12_llc_dl_upd_c_553d3f21____REVSH 0x000003a9   Thumb Code     0  syscall.txt ABSOLUTE
    __asm___13_llc_encrypt_c_8159a054____REVSH 0x000003ad   Thumb Code     0  syscall.txt ABSOLUTE
    __asm___15_llc_feat_exch_c_6fa097ef____REVSH 0x000003b1   Thumb Code     0  syscall.txt ABSOLUTE
    __asm___9_llc_hci_c_996dc4b6____REVSH    0x000003b5   Thumb Code     0  syscall.txt ABSOLUTE
    __asm___13_llc_le_ping_c_434cc73c____REVSH 0x000003b9   Thumb Code     0  syscall.txt ABSOLUTE
    __asm___10_llc_llcp_c_1a9b13a9____REVSH  0x000003bd   Thumb Code     0  syscall.txt ABSOLUTE
    __asm___13_llc_phy_upd_c_0294cefd____REVSH 0x000003c1   Thumb Code     0  syscall.txt ABSOLUTE
    __asm___10_llc_task_c_30369c55____REVSH  0x000003c5   Thumb Code     0  syscall.txt ABSOLUTE
    __asm___14_llc_ver_exch_c_2771d0a7____REVSH 0x000003c9   Thumb Code     0  syscall.txt ABSOLUTE
    __asm___5_lld_c_f7832d1e____REVSH        0x000003cd   Thumb Code     0  syscall.txt ABSOLUTE
    __asm___9_lld_adv_c_9a148cc9____REVSH    0x000003d1   Thumb Code     0  syscall.txt ABSOLUTE
    __asm___9_lld_con_c_df553fb8____REVSH    0x000003d5   Thumb Code     0  syscall.txt ABSOLUTE
    __asm___10_lld_init_c_b391185e____REVSH  0x000003d9   Thumb Code     0  syscall.txt ABSOLUTE
    __asm___13_lld_per_adv_c_77b63e9a____REVSH 0x000003dd   Thumb Code     0  syscall.txt ABSOLUTE
    __asm___10_lld_scan_c_01456b52____REVSH  0x000003e1   Thumb Code     0  syscall.txt ABSOLUTE
    __asm___10_lld_sync_c_8bd34c56____REVSH  0x000003e5   Thumb Code     0  syscall.txt ABSOLUTE
    __asm___10_lld_test_c_54e5e101____REVSH  0x000003e9   Thumb Code     0  syscall.txt ABSOLUTE
    __asm___5_llm_c_52f69136____REVSH        0x000003ed   Thumb Code     0  syscall.txt ABSOLUTE
    __asm___9_llm_adv_c_2ca465c6____REVSH    0x000003f1   Thumb Code     0  syscall.txt ABSOLUTE
    __asm___9_llm_hci_c_20aee1fa____REVSH    0x000003f5   Thumb Code     0  syscall.txt ABSOLUTE
    __asm___10_llm_init_c_c210a516____REVSH  0x000003f9   Thumb Code     0  syscall.txt ABSOLUTE
    __asm___9_llm_iso_c____REVSH             0x000003fd   Thumb Code     0  syscall.txt ABSOLUTE
    __asm___10_llm_scan_c_963e4937____REVSH  0x00000401   Thumb Code     0  syscall.txt ABSOLUTE
    __asm___10_llm_task_c_5d3df270____REVSH  0x00000405   Thumb Code     0  syscall.txt ABSOLUTE
    __asm___5_hci_c_hci_init____REVSH        0x00000409   Thumb Code     0  syscall.txt ABSOLUTE
    __asm___8_hci_fc_c_fcf3c82e____REVSH     0x0000040d   Thumb Code     0  syscall.txt ABSOLUTE
    __asm___9_hci_msg_c_b5066cf5____REVSH    0x00000411   Thumb Code     0  syscall.txt ABSOLUTE
    __asm___8_hci_tl_c_9ce329a5____REVSH     0x00000415   Thumb Code     0  syscall.txt ABSOLUTE
    __asm___11_sch_alarm_c_3b4969f2____REVSH 0x00000419   Thumb Code     0  syscall.txt ABSOLUTE
    __asm___9_sch_arb_c_87561c0e____REVSH    0x0000041d   Thumb Code     0  syscall.txt ABSOLUTE
    __asm___10_sch_plan_c_c0257ea0____REVSH  0x00000421   Thumb Code     0  syscall.txt ABSOLUTE
    __asm___10_sch_prog_c_de24772c____REVSH  0x00000425   Thumb Code     0  syscall.txt ABSOLUTE
    __asm___11_sch_slice_c_de6dd3b5____REVSH 0x00000429   Thumb Code     0  syscall.txt ABSOLUTE
    __asm___5_aes_c_aes_init____REVSH        0x0000042d   Thumb Code     0  syscall.txt ABSOLUTE
    __asm___9_aes_ccm_c_aes_ccm____REVSH     0x00000431   Thumb Code     0  syscall.txt ABSOLUTE
    __asm___10_aes_cmac_c_fe47f34c____REVSH  0x00000435   Thumb Code     0  syscall.txt ABSOLUTE
    __asm___8_aes_k1_c_aes_k1____REVSH       0x00000439   Thumb Code     0  syscall.txt ABSOLUTE
    __asm___8_aes_k2_c_5cc4f012____REVSH     0x0000043d   Thumb Code     0  syscall.txt ABSOLUTE
    __asm___8_aes_k3_c_979823b7____REVSH     0x00000441   Thumb Code     0  syscall.txt ABSOLUTE
    __asm___8_aes_k4_c_8a9d130f____REVSH     0x00000445   Thumb Code     0  syscall.txt ABSOLUTE
    __asm___8_aes_s1_c_aes_s1____REVSH       0x00000449   Thumb Code     0  syscall.txt ABSOLUTE
    __asm___9_co_list_c_ca99e89f____REVSH    0x0000044d   Thumb Code     0  syscall.txt ABSOLUTE
    __asm___10_co_utils_c_one_bits____REVSH  0x00000451   Thumb Code     0  syscall.txt ABSOLUTE
    __asm___5_dbg_c_3a87ab48____REVSH        0x00000455   Thumb Code     0  syscall.txt ABSOLUTE
    __asm___12_dbg_mwsgen_c____REVSH         0x00000459   Thumb Code     0  syscall.txt ABSOLUTE
    __asm___12_dbg_swdiag_c____REVSH         0x0000045d   Thumb Code     0  syscall.txt ABSOLUTE
    __asm___10_dbg_task_c____REVSH           0x00000461   Thumb Code     0  syscall.txt ABSOLUTE
    __asm___9_dbg_trc_c____REVSH             0x00000465   Thumb Code     0  syscall.txt ABSOLUTE
    __asm___13_dbg_trc_mem_c____REVSH        0x00000469   Thumb Code     0  syscall.txt ABSOLUTE
    __asm___12_dbg_trc_tl_c____REVSH         0x0000046d   Thumb Code     0  syscall.txt ABSOLUTE
    __asm___9_display_c____REVSH             0x00000471   Thumb Code     0  syscall.txt ABSOLUTE
    __asm___14_display_task_c____REVSH       0x00000475   Thumb Code     0  syscall.txt ABSOLUTE
    __asm___10_ecc_p256_c_8b173798____REVSH  0x00000479   Thumb Code     0  syscall.txt ABSOLUTE
    __asm___6_h4tl_c_3a5732fe____REVSH       0x0000047d   Thumb Code     0  syscall.txt ABSOLUTE
    __asm___4_ke_c_ke_init____REVSH          0x00000481   Thumb Code     0  syscall.txt ABSOLUTE
    __asm___10_ke_event_c_87ccd12c____REVSH  0x00000485   Thumb Code     0  syscall.txt ABSOLUTE
    __asm___8_ke_mem_c_f92e48dd____REVSH     0x00000489   Thumb Code     0  syscall.txt ABSOLUTE
    __asm___8_ke_msg_c_d502b297____REVSH     0x0000048d   Thumb Code     0  syscall.txt ABSOLUTE
    __asm___10_ke_queue_c_5cab850e____REVSH  0x00000491   Thumb Code     0  syscall.txt ABSOLUTE
    __asm___9_ke_task_c_18478d77____REVSH    0x00000495   Thumb Code     0  syscall.txt ABSOLUTE
    __asm___10_ke_timer_c_3b621a08____REVSH  0x00000499   Thumb Code     0  syscall.txt ABSOLUTE
    __asm___6_nvds_c____REVSH                0x0000049d   Thumb Code     0  syscall.txt ABSOLUTE
    __asm___9_rf_simu_c_82de3823____REVSH    0x000004a1   Thumb Code     0  syscall.txt ABSOLUTE
    __asm___6_rwip_c_f2b147fa____REVSH       0x000004a5   Thumb Code     0  syscall.txt ABSOLUTE
    __asm___13_rwip_driver_c_c12c84cf____REVSH 0x000004a9   Thumb Code     0  syscall.txt ABSOLUTE
    __asm___11_co_printf_c_fputc____REVSH    0x000004ad   Thumb Code     0  syscall.txt ABSOLUTE
    __asm___11_low_power_c_50b0e29e____REVSH 0x000004b1   Thumb Code     0  syscall.txt ABSOLUTE
    __asm___7_crc32_c_36f7c2a5____REVSH      0x000004b5   Thumb Code     0  syscall.txt ABSOLUTE
    __asm___5_md5_c_MD5_Init____REVSH        0x000004b9   Thumb Code     0  syscall.txt ABSOLUTE
    __asm___11_arch_main_c_uart_api____REVSH 0x000004bd   Thumb Code     0  syscall.txt ABSOLUTE
    __asm___12_jump_table_c_6a9c728e____REVSH 0x000004c1   Thumb Code     0  syscall.txt ABSOLUTE
    __asm___6_intc_c_189c7b66____REVSH       0x000004c5   Thumb Code     0  syscall.txt ABSOLUTE
    __asm___6_uart_c_988f2830____REVSH       0x000004c9   Thumb Code     0  syscall.txt ABSOLUTE
    __asm___7_flash_c_1f9d869b____REVSH      0x000004cd   Thumb Code     0  syscall.txt ABSOLUTE
    __asm___6_qspi_c_79b82d8e____REVSH       0x000004d1   Thumb Code     0  syscall.txt ABSOLUTE
    __asm___8_system_c_a51710b5____REVSH     0x000004d5   Thumb Code     0  syscall.txt ABSOLUTE
    __asm___6_gpio_c_a47c3f18____REVSH       0x000004d9   Thumb Code     0  syscall.txt ABSOLUTE
    __asm___5_ssp_c_3d1cf05e____REVSH        0x000004dd   Thumb Code     0  syscall.txt ABSOLUTE
    __asm___8_frspim_c_6e8f94f7____REVSH     0x000004e1   Thumb Code     0  syscall.txt ABSOLUTE
    __asm___5_pmu_c_7ed478f1____REVSH        0x000004e5   Thumb Code     0  syscall.txt ABSOLUTE
    __asm___9_apb2spi_c_a124e987____REVSH    0x000004e9   Thumb Code     0  syscall.txt ABSOLUTE
    __asm___6_trng_c_36387bb2____REVSH       0x000004ed   Thumb Code     0  syscall.txt ABSOLUTE
    __asm___6_list_c_a968f7cb____REVSH       0x000004f1   Thumb Code     0  syscall.txt ABSOLUTE
    __asm___7_queue_c_48e2f297____REVSH      0x000004f5   Thumb Code     0  syscall.txt ABSOLUTE
    __asm___7_tasks_c_f31043e3____REVSH      0x000004f9   Thumb Code     0  syscall.txt ABSOLUTE
    __asm___8_timers_c_a20bbafd____REVSH     0x000004fd   Thumb Code     0  syscall.txt ABSOLUTE
    __asm___14_event_groups_c_5f98c4ce____REVSH 0x00000501   Thumb Code     0  syscall.txt ABSOLUTE
    __asm___8_heap_6_c_94e30ff9____REVSH     0x00000505   Thumb Code     0  syscall.txt ABSOLUTE
    __asm___6_port_c_39a90d8d____REVSH       0x00000509   Thumb Code     0  syscall.txt ABSOLUTE
    __asm___20_freertos_interface_c_bc2b671d____REVSH 0x0000050d   Thumb Code     0  syscall.txt ABSOLUTE
    __asm___10_app_boot_c_fcf06f29____RRX    0x00000511   Thumb Code     0  syscall.txt ABSOLUTE
    __asm___14_ble_util_buf_c_b8bf6b0e____RRX 0x00000519   Thumb Code     0  syscall.txt ABSOLUTE
    __asm___7_rwble_c_5e66ef03____RRX        0x00000521   Thumb Code     0  syscall.txt ABSOLUTE
    __asm___5_llc_c_llc_init____RRX          0x00000529   Thumb Code     0  syscall.txt ABSOLUTE
    __asm___15_llc_chmap_upd_c_ddac89ec____RRX 0x00000531   Thumb Code     0  syscall.txt ABSOLUTE
    __asm___13_llc_con_upd_c_de71abdd____RRX 0x00000539   Thumb Code     0  syscall.txt ABSOLUTE
    __asm___9_llc_dbg_c____RRX               0x00000541   Thumb Code     0  syscall.txt ABSOLUTE
    __asm___16_llc_disconnect_c_67e9d540____RRX 0x00000549   Thumb Code     0  syscall.txt ABSOLUTE
    __asm___12_llc_dl_upd_c_553d3f21____RRX  0x00000551   Thumb Code     0  syscall.txt ABSOLUTE
    __asm___13_llc_encrypt_c_8159a054____RRX 0x00000559   Thumb Code     0  syscall.txt ABSOLUTE
    __asm___15_llc_feat_exch_c_6fa097ef____RRX 0x00000561   Thumb Code     0  syscall.txt ABSOLUTE
    __asm___9_llc_hci_c_996dc4b6____RRX      0x00000569   Thumb Code     0  syscall.txt ABSOLUTE
    __asm___13_llc_le_ping_c_434cc73c____RRX 0x00000571   Thumb Code     0  syscall.txt ABSOLUTE
    __asm___10_llc_llcp_c_1a9b13a9____RRX    0x00000579   Thumb Code     0  syscall.txt ABSOLUTE
    __asm___13_llc_phy_upd_c_0294cefd____RRX 0x00000581   Thumb Code     0  syscall.txt ABSOLUTE
    __asm___10_llc_task_c_30369c55____RRX    0x00000589   Thumb Code     0  syscall.txt ABSOLUTE
    __asm___14_llc_ver_exch_c_2771d0a7____RRX 0x00000591   Thumb Code     0  syscall.txt ABSOLUTE
    __asm___5_lld_c_f7832d1e____RRX          0x00000599   Thumb Code     0  syscall.txt ABSOLUTE
    __asm___9_lld_adv_c_9a148cc9____RRX      0x000005a1   Thumb Code     0  syscall.txt ABSOLUTE
    __asm___9_lld_con_c_df553fb8____RRX      0x000005a9   Thumb Code     0  syscall.txt ABSOLUTE
    __asm___10_lld_init_c_b391185e____RRX    0x000005b1   Thumb Code     0  syscall.txt ABSOLUTE
    __asm___13_lld_per_adv_c_77b63e9a____RRX 0x000005b9   Thumb Code     0  syscall.txt ABSOLUTE
    __asm___10_lld_scan_c_01456b52____RRX    0x000005c1   Thumb Code     0  syscall.txt ABSOLUTE
    __asm___10_lld_sync_c_8bd34c56____RRX    0x000005c9   Thumb Code     0  syscall.txt ABSOLUTE
    __asm___10_lld_test_c_54e5e101____RRX    0x000005d1   Thumb Code     0  syscall.txt ABSOLUTE
    __asm___5_llm_c_52f69136____RRX          0x000005d9   Thumb Code     0  syscall.txt ABSOLUTE
    __asm___9_llm_adv_c_2ca465c6____RRX      0x000005e1   Thumb Code     0  syscall.txt ABSOLUTE
    __asm___9_llm_hci_c_20aee1fa____RRX      0x000005e9   Thumb Code     0  syscall.txt ABSOLUTE
    __asm___10_llm_init_c_c210a516____RRX    0x000005f1   Thumb Code     0  syscall.txt ABSOLUTE
    __asm___9_llm_iso_c____RRX               0x000005f9   Thumb Code     0  syscall.txt ABSOLUTE
    __asm___10_llm_scan_c_963e4937____RRX    0x00000601   Thumb Code     0  syscall.txt ABSOLUTE
    __asm___10_llm_task_c_5d3df270____RRX    0x00000609   Thumb Code     0  syscall.txt ABSOLUTE
    __asm___5_hci_c_hci_init____RRX          0x00000611   Thumb Code     0  syscall.txt ABSOLUTE
    __asm___8_hci_fc_c_fcf3c82e____RRX       0x00000619   Thumb Code     0  syscall.txt ABSOLUTE
    __asm___9_hci_msg_c_b5066cf5____RRX      0x00000621   Thumb Code     0  syscall.txt ABSOLUTE
    __asm___8_hci_tl_c_9ce329a5____RRX       0x00000629   Thumb Code     0  syscall.txt ABSOLUTE
    __asm___11_sch_alarm_c_3b4969f2____RRX   0x00000631   Thumb Code     0  syscall.txt ABSOLUTE
    __asm___9_sch_arb_c_87561c0e____RRX      0x00000639   Thumb Code     0  syscall.txt ABSOLUTE
    __asm___10_sch_plan_c_c0257ea0____RRX    0x00000641   Thumb Code     0  syscall.txt ABSOLUTE
    __asm___10_sch_prog_c_de24772c____RRX    0x00000649   Thumb Code     0  syscall.txt ABSOLUTE
    __asm___11_sch_slice_c_de6dd3b5____RRX   0x00000651   Thumb Code     0  syscall.txt ABSOLUTE
    __asm___5_aes_c_aes_init____RRX          0x00000659   Thumb Code     0  syscall.txt ABSOLUTE
    __asm___9_aes_ccm_c_aes_ccm____RRX       0x00000661   Thumb Code     0  syscall.txt ABSOLUTE
    __asm___10_aes_cmac_c_fe47f34c____RRX    0x00000669   Thumb Code     0  syscall.txt ABSOLUTE
    __asm___8_aes_k1_c_aes_k1____RRX         0x00000671   Thumb Code     0  syscall.txt ABSOLUTE
    __asm___8_aes_k2_c_5cc4f012____RRX       0x00000679   Thumb Code     0  syscall.txt ABSOLUTE
    __asm___8_aes_k3_c_979823b7____RRX       0x00000681   Thumb Code     0  syscall.txt ABSOLUTE
    __asm___8_aes_k4_c_8a9d130f____RRX       0x00000689   Thumb Code     0  syscall.txt ABSOLUTE
    __asm___8_aes_s1_c_aes_s1____RRX         0x00000691   Thumb Code     0  syscall.txt ABSOLUTE
    __asm___9_co_list_c_ca99e89f____RRX      0x00000699   Thumb Code     0  syscall.txt ABSOLUTE
    __asm___10_co_utils_c_one_bits____RRX    0x000006a1   Thumb Code     0  syscall.txt ABSOLUTE
    __asm___5_dbg_c_3a87ab48____RRX          0x000006a9   Thumb Code     0  syscall.txt ABSOLUTE
    __asm___12_dbg_mwsgen_c____RRX           0x000006b1   Thumb Code     0  syscall.txt ABSOLUTE
    __asm___12_dbg_swdiag_c____RRX           0x000006b9   Thumb Code     0  syscall.txt ABSOLUTE
    __asm___10_dbg_task_c____RRX             0x000006c1   Thumb Code     0  syscall.txt ABSOLUTE
    __asm___9_dbg_trc_c____RRX               0x000006c9   Thumb Code     0  syscall.txt ABSOLUTE
    __asm___13_dbg_trc_mem_c____RRX          0x000006d1   Thumb Code     0  syscall.txt ABSOLUTE
    __asm___12_dbg_trc_tl_c____RRX           0x000006d9   Thumb Code     0  syscall.txt ABSOLUTE
    __asm___9_display_c____RRX               0x000006e1   Thumb Code     0  syscall.txt ABSOLUTE
    __asm___14_display_task_c____RRX         0x000006e9   Thumb Code     0  syscall.txt ABSOLUTE
    __asm___10_ecc_p256_c_8b173798____RRX    0x000006f1   Thumb Code     0  syscall.txt ABSOLUTE
    __asm___6_h4tl_c_3a5732fe____RRX         0x000006f9   Thumb Code     0  syscall.txt ABSOLUTE
    __asm___4_ke_c_ke_init____RRX            0x00000701   Thumb Code     0  syscall.txt ABSOLUTE
    __asm___10_ke_event_c_87ccd12c____RRX    0x00000709   Thumb Code     0  syscall.txt ABSOLUTE
    __asm___8_ke_mem_c_f92e48dd____RRX       0x00000711   Thumb Code     0  syscall.txt ABSOLUTE
    __asm___8_ke_msg_c_d502b297____RRX       0x00000719   Thumb Code     0  syscall.txt ABSOLUTE
    __asm___10_ke_queue_c_5cab850e____RRX    0x00000721   Thumb Code     0  syscall.txt ABSOLUTE
    __asm___9_ke_task_c_18478d77____RRX      0x00000729   Thumb Code     0  syscall.txt ABSOLUTE
    __asm___10_ke_timer_c_3b621a08____RRX    0x00000731   Thumb Code     0  syscall.txt ABSOLUTE
    __asm___6_nvds_c____RRX                  0x00000739   Thumb Code     0  syscall.txt ABSOLUTE
    __asm___9_rf_simu_c_82de3823____RRX      0x00000741   Thumb Code     0  syscall.txt ABSOLUTE
    __asm___6_rwip_c_f2b147fa____RRX         0x00000749   Thumb Code     0  syscall.txt ABSOLUTE
    __asm___13_rwip_driver_c_c12c84cf____RRX 0x00000751   Thumb Code     0  syscall.txt ABSOLUTE
    __asm___11_co_printf_c_fputc____RRX      0x00000759   Thumb Code     0  syscall.txt ABSOLUTE
    __asm___11_low_power_c_50b0e29e____RRX   0x00000761   Thumb Code     0  syscall.txt ABSOLUTE
    __asm___7_crc32_c_36f7c2a5____RRX        0x00000769   Thumb Code     0  syscall.txt ABSOLUTE
    __asm___5_md5_c_MD5_Init____RRX          0x00000771   Thumb Code     0  syscall.txt ABSOLUTE
    __asm___11_arch_main_c_uart_api____RRX   0x00000779   Thumb Code     0  syscall.txt ABSOLUTE
    __asm___12_jump_table_c_6a9c728e____RRX  0x00000781   Thumb Code     0  syscall.txt ABSOLUTE
    __asm___6_intc_c_189c7b66____RRX         0x00000789   Thumb Code     0  syscall.txt ABSOLUTE
    __asm___6_uart_c_988f2830____RRX         0x00000791   Thumb Code     0  syscall.txt ABSOLUTE
    __asm___7_flash_c_1f9d869b____RRX        0x00000799   Thumb Code     0  syscall.txt ABSOLUTE
    __asm___6_qspi_c_79b82d8e____RRX         0x000007a1   Thumb Code     0  syscall.txt ABSOLUTE
    __asm___8_system_c_a51710b5____RRX       0x000007a9   Thumb Code     0  syscall.txt ABSOLUTE
    __asm___6_gpio_c_a47c3f18____RRX         0x000007b1   Thumb Code     0  syscall.txt ABSOLUTE
    __asm___5_ssp_c_3d1cf05e____RRX          0x000007b9   Thumb Code     0  syscall.txt ABSOLUTE
    __asm___8_frspim_c_6e8f94f7____RRX       0x000007c1   Thumb Code     0  syscall.txt ABSOLUTE
    __asm___5_pmu_c_7ed478f1____RRX          0x000007c9   Thumb Code     0  syscall.txt ABSOLUTE
    __asm___9_apb2spi_c_a124e987____RRX      0x000007d1   Thumb Code     0  syscall.txt ABSOLUTE
    __asm___6_trng_c_36387bb2____RRX         0x000007d9   Thumb Code     0  syscall.txt ABSOLUTE
    __asm___6_list_c_a968f7cb____RRX         0x000007e1   Thumb Code     0  syscall.txt ABSOLUTE
    __asm___7_queue_c_48e2f297____RRX        0x000007e9   Thumb Code     0  syscall.txt ABSOLUTE
    __asm___7_tasks_c_f31043e3____RRX        0x000007f1   Thumb Code     0  syscall.txt ABSOLUTE
    __asm___8_timers_c_a20bbafd____RRX       0x000007f9   Thumb Code     0  syscall.txt ABSOLUTE
    __asm___14_event_groups_c_5f98c4ce____RRX 0x00000801   Thumb Code     0  syscall.txt ABSOLUTE
    __asm___8_heap_6_c_94e30ff9____RRX       0x00000809   Thumb Code     0  syscall.txt ABSOLUTE
    __asm___6_port_c_39a90d8d____RRX         0x00000811   Thumb Code     0  syscall.txt ABSOLUTE
    __asm___20_freertos_interface_c_bc2b671d____RRX 0x00000819   Thumb Code     0  syscall.txt ABSOLUTE
    Reset_Handler                            0x00000821   Thumb Code     0  syscall.txt ABSOLUTE
    set_handlemode_sp                        0x00000853   Thumb Code     0  syscall.txt ABSOLUTE
    NMI_Handler                              0x00000859   Thumb Code     0  syscall.txt ABSOLUTE
    HardFault_Handler                        0x0000085b   Thumb Code     0  syscall.txt ABSOLUTE
    MemManage_Handler                        0x0000085d   Thumb Code     0  syscall.txt ABSOLUTE
    BusFault_Handler                         0x0000085f   Thumb Code     0  syscall.txt ABSOLUTE
    UsageFault_Handler                       0x00000861   Thumb Code     0  syscall.txt ABSOLUTE
    DebugMon_Handler                         0x00000865   Thumb Code     0  syscall.txt ABSOLUTE
    EXTI0_Handler                            0x0000086b   Thumb Code     0  syscall.txt ABSOLUTE
    EXTI1_Handler                            0x0000086d   Thumb Code     0  syscall.txt ABSOLUTE
    EXTI2_Handler                            0x0000086f   Thumb Code     0  syscall.txt ABSOLUTE
    EXTI3_Handler                            0x00000871   Thumb Code     0  syscall.txt ABSOLUTE
    EXTI4_Handler                            0x00000873   Thumb Code     0  syscall.txt ABSOLUTE
